{"contracts/strategies/StrategyB.sol":{"StrategyB":{"abi":[{"inputs":[{"internalType":"address","name":"_underlying","type":"address"},{"internalType":"address","name":"_vault","type":"address"}],"stateMutability":"nonpayable","type":"constructor"},{"inputs":[{"internalType":"address","name":"target","type":"address"}],"name":"AddressEmptyCode","type":"error"},{"inputs":[{"internalType":"address","name":"account","type":"address"}],"name":"AddressInsufficientBalance","type":"error"},{"inputs":[],"name":"FailedInnerCall","type":"error"},{"inputs":[{"internalType":"address","name":"owner","type":"address"}],"name":"OwnableInvalidOwner","type":"error"},{"inputs":[{"internalType":"address","name":"account","type":"address"}],"name":"OwnableUnauthorizedAccount","type":"error"},{"inputs":[{"internalType":"address","name":"token","type":"address"}],"name":"SafeERC20FailedOperation","type":"error"},{"anonymous":false,"inputs":[{"indexed":true,"internalType":"address","name":"previousOwner","type":"address"},{"indexed":true,"internalType":"address","name":"newOwner","type":"address"}],"name":"OwnershipTransferred","type":"event"},{"anonymous":false,"inputs":[{"indexed":false,"internalType":"uint256","name":"amount","type":"uint256"},{"indexed":false,"internalType":"uint256","name":"newTotal","type":"uint256"}],"name":"YieldAccrued","type":"event"},{"inputs":[],"name":"SECONDS_PER_YEAR","outputs":[{"internalType":"uint256","name":"","type":"uint256"}],"stateMutability":"view","type":"function"},{"inputs":[],"name":"accrueYield","outputs":[{"internalType":"uint256","name":"","type":"uint256"}],"stateMutability":"nonpayable","type":"function"},{"inputs":[],"name":"apyBps","outputs":[{"internalType":"uint256","name":"","type":"uint256"}],"stateMutability":"view","type":"function"},{"inputs":[{"internalType":"uint256","name":"amount","type":"uint256"}],"name":"deposit","outputs":[{"internalType":"uint256","name":"","type":"uint256"}],"stateMutability":"nonpayable","type":"function"},{"inputs":[],"name":"emergencyWithdraw","outputs":[{"internalType":"uint256","name":"","type":"uint256"}],"stateMutability":"nonpayable","type":"function"},{"inputs":[],"name":"isPaused","outputs":[{"internalType":"bool","name":"","type":"bool"}],"stateMutability":"view","type":"function"},{"inputs":[],"name":"lastUpdateTime","outputs":[{"internalType":"uint256","name":"","type":"uint256"}],"stateMutability":"view","type":"function"},{"inputs":[],"name":"owner","outputs":[{"internalType":"address","name":"","type":"address"}],"stateMutability":"view","type":"function"},{"inputs":[],"name":"renounceOwnership","outputs":[],"stateMutability":"nonpayable","type":"function"},{"inputs":[{"internalType":"bool","name":"_paused","type":"bool"}],"name":"setPaused","outputs":[],"stateMutability":"nonpayable","type":"function"},{"inputs":[],"name":"totalAssets","outputs":[{"internalType":"uint256","name":"","type":"uint256"}],"stateMutability":"view","type":"function"},{"inputs":[],"name":"totalAssetsTracked","outputs":[{"internalType":"uint256","name":"","type":"uint256"}],"stateMutability":"view","type":"function"},{"inputs":[{"internalType":"address","name":"newOwner","type":"address"}],"name":"transferOwnership","outputs":[],"stateMutability":"nonpayable","type":"function"},{"inputs":[],"name":"underlying","outputs":[{"internalType":"contract IERC20","name":"","type":"address"}],"stateMutability":"view","type":"function"},{"inputs":[{"internalType":"uint256","name":"amount","type":"uint256"}],"name":"withdraw","outputs":[{"internalType":"uint256","name":"","type":"uint256"}],"stateMutability":"nonpayable","type":"function"}],"evm":{"bytecode":{"linkReferences":{},"object":"60c03461010757601f610a3738819003918201601f19168301916001600160401b0383118484101761010c57808492604094855283398101031261010757602061004882610122565b916001600160a01b0391829161005e9101610122565b169182156100ee57600080546001600160a01b03198116851782556040519491908416907f8be0079c531659141344cd1fd0a4f28419497f9722a3daafe3b4186f6b6457e09080a3166080526103e860a05242600255610900908161013782396080518181816101bd015281816102e9015281816103f301526104c7015260a05181818161045901526106530152f35b604051631e4fbdf760e01b815260006004820152602490fd5b600080fd5b634e487b7160e01b600052604160045260246000fd5b51906001600160a01b03821682036101075756fe60406080815260048036101561001457600080fd5b600091823560e01c806301e1d11414610592578063059d9c751461056e57806316c38b3c1461052e5780632e1a7d4d1461047c57806351618ed314610441578063618e68e8146104225780636f307dc3146103de578063715018a6146103815780638da5cb5b14610359578063b187bd2614610335578063b6b55f2514610276578063c8f33c9114610257578063db2e21bc14610178578063e6a69ab8146101555763f2fde38b146100c557600080fd5b34610151576020366003190112610151576001600160a01b0382358181169391929084900361014d576100f66105af565b831561013757505082546001600160a01b0319811683178455167f8be0079c531659141344cd1fd0a4f28419497f9722a3daafe3b4186f6b6457e08380a380f35b51631e4fbdf760e01b8152908101849052602490fd5b8480fd5b8280fd5b838234610174578160031936011261017457602090516301e133808152f35b5080fd5b50346101515782600319360112610151576101916105af565b610199610697565b506003805460ff1916600117905580516370a0823160e01b815230928101929092527f00000000000000000000000000000000000000000000000000000000000000006020836024816001600160a01b0385165afa92831561024d578493610215575b508261020f916020956001553390610878565b51908152f35b9092506020813d8211610245575b8161023060209383610709565b8101031261024157519160206101fc565b8380fd5b3d9150610223565b82513d86823e3d90fd5b8382346101745781600319360112610174576020906002549051908152f35b50829034610174576020366003190112610174578235916102956105af565b61029d610697565b5081516323b872dd60e01b6020820152336024820152306044820152606480820185905281529060a082019067ffffffffffffffff821183831017610322576020858561030d868683527f0000000000000000000000000000000000000000000000000000000000000000610741565b61031982600154610611565b60015551908152f35b634e487b7160e01b815260418652602490fd5b83823461017457816003193601126101745760209060ff6003541690519015158152f35b838234610174578160031936011261017457905490516001600160a01b039091168152602090f35b83346103db57806003193601126103db5761039a6105af565b80546001600160a01b03198116825581906001600160a01b03167f8be0079c531659141344cd1fd0a4f28419497f9722a3daafe3b4186f6b6457e08280a380f35b80fd5b838234610174578160031936011261017457517f00000000000000000000000000000000000000000000000000000000000000006001600160a01b03168152602090f35b8382346101745781600319360112610174576020906001549051908152f35b838234610174578160031936011261017457602090517f00000000000000000000000000000000000000000000000000000000000000008152f35b5091346103db5760203660031901126103db575080359061049b6105af565b6104a3610697565b50600154908282106104eb5750916104bd826020946105db565b60015561020f82337f0000000000000000000000000000000000000000000000000000000000000000610878565b606490602085519162461bcd60e51b8352820152601c60248201527f53747261746567793a20696e73756666696369656e742066756e6473000000006044820152fd5b5050346101745760203660031901126101745735801515809103610174576105546105af565b61055c610697565b5060ff80196003541691161760035580f35b83823461017457816003193601126101745760209061058b610697565b9051908152f35b83823461017457816003193601126101745760209061058b61061e565b6000546001600160a01b031633036105c357565b60405163118cdaa760e01b8152336004820152602490fd5b919082039182116105e857565b634e487b7160e01b600052601160045260246000fd5b818102929181159184041417156105e857565b919082018092116105e857565b6001548015801561068b575b6106845761063a600254426105db565b8015610687579064496cebb80061067d610684936106787f0000000000000000000000000000000000000000000000000000000000000000856105fe565b6105fe565b0490610611565b90565b5090565b5060ff6003541661062a565b60ff60035416610703576106a961061e565b6106b5600154826105db565b90816106c8575b50504260025560015490565b7ffe2ebf53456a69d7b70affc98b9021c791a9bce3af6fa5d24dfbc2db0f817b54918160409260015582519182526020820152a138806106bc565b60015490565b90601f8019910116810190811067ffffffffffffffff82111761072b57604052565b634e487b7160e01b600052604160045260246000fd5b60018060a01b031690600080826020829451910182865af13d15610809573d9067ffffffffffffffff82116107f5579061079d916040519161078d6020601f19601f8401160184610709565b82523d84602084013e5b84610815565b9081519182151592836107cd575b5050506107b55750565b60249060405190635274afe760e01b82526004820152fd5b8192935090602091810103126101745760200151908115918215036103db57503880806107ab565b634e487b7160e01b83526041600452602483fd5b61079d90606090610797565b9061083c575080511561082a57805190602001fd5b604051630a12f52160e11b8152600490fd5b8151158061086f575b61084d575090565b604051639996b31560e01b81526001600160a01b039091166004820152602490fd5b50803b15610845565b60405163a9059cbb60e01b60208201526001600160a01b039092166024830152604480830193909352918152608081019167ffffffffffffffff83118284101761072b576108c892604052610741565b56fea26469706673582212200354dc93ac3aed4d2f4f7d5ca6dfdb51301a30cb7e1a8eead8e51a78d35c739264736f6c63430008140033","opcodes":"PUSH1 0xC0 CALLVALUE PUSH2 0x107 JUMPI PUSH1 0x1F PUSH2 0xA37 CODESIZE DUP2 SWAP1 SUB SWAP2 DUP3 ADD PUSH1 0x1F NOT AND DUP4 ADD SWAP2 PUSH1 0x1 PUSH1 0x1 PUSH1 0x40 SHL SUB DUP4 GT DUP5 DUP5 LT OR PUSH2 0x10C JUMPI DUP1 DUP5 SWAP3 PUSH1 0x40 SWAP5 DUP6 MSTORE DUP4 CODECOPY DUP2 ADD SUB SLT PUSH2 0x107 JUMPI PUSH1 0x20 PUSH2 0x48 DUP3 PUSH2 0x122 JUMP JUMPDEST SWAP2 PUSH1 0x1 PUSH1 0x1 PUSH1 0xA0 SHL SUB SWAP2 DUP3 SWAP2 PUSH2 0x5E SWAP2 ADD PUSH2 0x122 JUMP JUMPDEST AND SWAP2 DUP3 ISZERO PUSH2 0xEE JUMPI PUSH1 0x0 DUP1 SLOAD PUSH1 0x1 PUSH1 0x1 PUSH1 0xA0 SHL SUB NOT DUP2 AND DUP6 OR DUP3 SSTORE PUSH1 0x40 MLOAD SWAP5 SWAP2 SWAP1 DUP5 AND SWAP1 PUSH32 0x8BE0079C531659141344CD1FD0A4F28419497F9722A3DAAFE3B4186F6B6457E0 SWAP1 DUP1 LOG3 AND PUSH1 0x80 MSTORE PUSH2 0x3E8 PUSH1 0xA0 MSTORE TIMESTAMP PUSH1 0x2 SSTORE PUSH2 0x900 SWAP1 DUP2 PUSH2 0x137 DUP3 CODECOPY PUSH1 0x80 MLOAD DUP2 DUP2 DUP2 PUSH2 0x1BD ADD MSTORE DUP2 DUP2 PUSH2 0x2E9 ADD MSTORE DUP2 DUP2 PUSH2 0x3F3 ADD MSTORE PUSH2 0x4C7 ADD MSTORE PUSH1 0xA0 MLOAD DUP2 DUP2 DUP2 PUSH2 0x459 ADD MSTORE PUSH2 0x653 ADD MSTORE RETURN JUMPDEST PUSH1 0x40 MLOAD PUSH4 0x1E4FBDF7 PUSH1 0xE0 SHL DUP2 MSTORE PUSH1 0x0 PUSH1 0x4 DUP3 ADD MSTORE PUSH1 0x24 SWAP1 REVERT JUMPDEST PUSH1 0x0 DUP1 REVERT JUMPDEST PUSH4 0x4E487B71 PUSH1 0xE0 SHL PUSH1 0x0 MSTORE PUSH1 0x41 PUSH1 0x4 MSTORE PUSH1 0x24 PUSH1 0x0 REVERT JUMPDEST MLOAD SWAP1 PUSH1 0x1 PUSH1 0x1 PUSH1 0xA0 SHL SUB DUP3 AND DUP3 SUB PUSH2 0x107 JUMPI JUMP INVALID PUSH1 0x40 PUSH1 0x80 DUP2 MSTORE PUSH1 0x4 DUP1 CALLDATASIZE LT ISZERO PUSH2 0x14 JUMPI PUSH1 0x0 DUP1 REVERT JUMPDEST PUSH1 0x0 SWAP2 DUP3 CALLDATALOAD PUSH1 0xE0 SHR DUP1 PUSH4 0x1E1D114 EQ PUSH2 0x592 JUMPI DUP1 PUSH4 0x59D9C75 EQ PUSH2 0x56E JUMPI DUP1 PUSH4 0x16C38B3C EQ PUSH2 0x52E JUMPI DUP1 PUSH4 0x2E1A7D4D EQ PUSH2 0x47C JUMPI DUP1 PUSH4 0x51618ED3 EQ PUSH2 0x441 JUMPI DUP1 PUSH4 0x618E68E8 EQ PUSH2 0x422 JUMPI DUP1 PUSH4 0x6F307DC3 EQ PUSH2 0x3DE JUMPI DUP1 PUSH4 0x715018A6 EQ PUSH2 0x381 JUMPI DUP1 PUSH4 0x8DA5CB5B EQ PUSH2 0x359 JUMPI DUP1 PUSH4 0xB187BD26 EQ PUSH2 0x335 JUMPI DUP1 PUSH4 0xB6B55F25 EQ PUSH2 0x276 JUMPI DUP1 PUSH4 0xC8F33C91 EQ PUSH2 0x257 JUMPI DUP1 PUSH4 0xDB2E21BC EQ PUSH2 0x178 JUMPI DUP1 PUSH4 0xE6A69AB8 EQ PUSH2 0x155 JUMPI PUSH4 0xF2FDE38B EQ PUSH2 0xC5 JUMPI PUSH1 0x0 DUP1 REVERT JUMPDEST CALLVALUE PUSH2 0x151 JUMPI PUSH1 0x20 CALLDATASIZE PUSH1 0x3 NOT ADD SLT PUSH2 0x151 JUMPI PUSH1 0x1 PUSH1 0x1 PUSH1 0xA0 SHL SUB DUP3 CALLDATALOAD DUP2 DUP2 AND SWAP4 SWAP2 SWAP3 SWAP1 DUP5 SWAP1 SUB PUSH2 0x14D JUMPI PUSH2 0xF6 PUSH2 0x5AF JUMP JUMPDEST DUP4 ISZERO PUSH2 0x137 JUMPI POP POP DUP3 SLOAD PUSH1 0x1 PUSH1 0x1 PUSH1 0xA0 SHL SUB NOT DUP2 AND DUP4 OR DUP5 SSTORE AND PUSH32 0x8BE0079C531659141344CD1FD0A4F28419497F9722A3DAAFE3B4186F6B6457E0 DUP4 DUP1 LOG3 DUP1 RETURN JUMPDEST MLOAD PUSH4 0x1E4FBDF7 PUSH1 0xE0 SHL DUP2 MSTORE SWAP1 DUP2 ADD DUP5 SWAP1 MSTORE PUSH1 0x24 SWAP1 REVERT JUMPDEST DUP5 DUP1 REVERT JUMPDEST DUP3 DUP1 REVERT JUMPDEST DUP4 DUP3 CALLVALUE PUSH2 0x174 JUMPI DUP2 PUSH1 0x3 NOT CALLDATASIZE ADD SLT PUSH2 0x174 JUMPI PUSH1 0x20 SWAP1 MLOAD PUSH4 0x1E13380 DUP2 MSTORE RETURN JUMPDEST POP DUP1 REVERT JUMPDEST POP CALLVALUE PUSH2 0x151 JUMPI DUP3 PUSH1 0x3 NOT CALLDATASIZE ADD SLT PUSH2 0x151 JUMPI PUSH2 0x191 PUSH2 0x5AF JUMP JUMPDEST PUSH2 0x199 PUSH2 0x697 JUMP JUMPDEST POP PUSH1 0x3 DUP1 SLOAD PUSH1 0xFF NOT AND PUSH1 0x1 OR SWAP1 SSTORE DUP1 MLOAD PUSH4 0x70A08231 PUSH1 0xE0 SHL DUP2 MSTORE ADDRESS SWAP3 DUP2 ADD SWAP3 SWAP1 SWAP3 MSTORE PUSH32 0x0 PUSH1 0x20 DUP4 PUSH1 0x24 DUP2 PUSH1 0x1 PUSH1 0x1 PUSH1 0xA0 SHL SUB DUP6 AND GAS STATICCALL SWAP3 DUP4 ISZERO PUSH2 0x24D JUMPI DUP5 SWAP4 PUSH2 0x215 JUMPI JUMPDEST POP DUP3 PUSH2 0x20F SWAP2 PUSH1 0x20 SWAP6 PUSH1 0x1 SSTORE CALLER SWAP1 PUSH2 0x878 JUMP JUMPDEST MLOAD SWAP1 DUP2 MSTORE RETURN JUMPDEST SWAP1 SWAP3 POP PUSH1 0x20 DUP2 RETURNDATASIZE DUP3 GT PUSH2 0x245 JUMPI JUMPDEST DUP2 PUSH2 0x230 PUSH1 0x20 SWAP4 DUP4 PUSH2 0x709 JUMP JUMPDEST DUP2 ADD SUB SLT PUSH2 0x241 JUMPI MLOAD SWAP2 PUSH1 0x20 PUSH2 0x1FC JUMP JUMPDEST DUP4 DUP1 REVERT JUMPDEST RETURNDATASIZE SWAP2 POP PUSH2 0x223 JUMP JUMPDEST DUP3 MLOAD RETURNDATASIZE DUP7 DUP3 RETURNDATACOPY RETURNDATASIZE SWAP1 REVERT JUMPDEST DUP4 DUP3 CALLVALUE PUSH2 0x174 JUMPI DUP2 PUSH1 0x3 NOT CALLDATASIZE ADD SLT PUSH2 0x174 JUMPI PUSH1 0x20 SWAP1 PUSH1 0x2 SLOAD SWAP1 MLOAD SWAP1 DUP2 MSTORE RETURN JUMPDEST POP DUP3 SWAP1 CALLVALUE PUSH2 0x174 JUMPI PUSH1 0x20 CALLDATASIZE PUSH1 0x3 NOT ADD SLT PUSH2 0x174 JUMPI DUP3 CALLDATALOAD SWAP2 PUSH2 0x295 PUSH2 0x5AF JUMP JUMPDEST PUSH2 0x29D PUSH2 0x697 JUMP JUMPDEST POP DUP2 MLOAD PUSH4 0x23B872DD PUSH1 0xE0 SHL PUSH1 0x20 DUP3 ADD MSTORE CALLER PUSH1 0x24 DUP3 ADD MSTORE ADDRESS PUSH1 0x44 DUP3 ADD MSTORE PUSH1 0x64 DUP1 DUP3 ADD DUP6 SWAP1 MSTORE DUP2 MSTORE SWAP1 PUSH1 0xA0 DUP3 ADD SWAP1 PUSH8 0xFFFFFFFFFFFFFFFF DUP3 GT DUP4 DUP4 LT OR PUSH2 0x322 JUMPI PUSH1 0x20 DUP6 DUP6 PUSH2 0x30D DUP7 DUP7 DUP4 MSTORE PUSH32 0x0 PUSH2 0x741 JUMP JUMPDEST PUSH2 0x319 DUP3 PUSH1 0x1 SLOAD PUSH2 0x611 JUMP JUMPDEST PUSH1 0x1 SSTORE MLOAD SWAP1 DUP2 MSTORE RETURN JUMPDEST PUSH4 0x4E487B71 PUSH1 0xE0 SHL DUP2 MSTORE PUSH1 0x41 DUP7 MSTORE PUSH1 0x24 SWAP1 REVERT JUMPDEST DUP4 DUP3 CALLVALUE PUSH2 0x174 JUMPI DUP2 PUSH1 0x3 NOT CALLDATASIZE ADD SLT PUSH2 0x174 JUMPI PUSH1 0x20 SWAP1 PUSH1 0xFF PUSH1 0x3 SLOAD AND SWAP1 MLOAD SWAP1 ISZERO ISZERO DUP2 MSTORE RETURN JUMPDEST DUP4 DUP3 CALLVALUE PUSH2 0x174 JUMPI DUP2 PUSH1 0x3 NOT CALLDATASIZE ADD SLT PUSH2 0x174 JUMPI SWAP1 SLOAD SWAP1 MLOAD PUSH1 0x1 PUSH1 0x1 PUSH1 0xA0 SHL SUB SWAP1 SWAP2 AND DUP2 MSTORE PUSH1 0x20 SWAP1 RETURN JUMPDEST DUP4 CALLVALUE PUSH2 0x3DB JUMPI DUP1 PUSH1 0x3 NOT CALLDATASIZE ADD SLT PUSH2 0x3DB JUMPI PUSH2 0x39A PUSH2 0x5AF JUMP JUMPDEST DUP1 SLOAD PUSH1 0x1 PUSH1 0x1 PUSH1 0xA0 SHL SUB NOT DUP2 AND DUP3 SSTORE DUP2 SWAP1 PUSH1 0x1 PUSH1 0x1 PUSH1 0xA0 SHL SUB AND PUSH32 0x8BE0079C531659141344CD1FD0A4F28419497F9722A3DAAFE3B4186F6B6457E0 DUP3 DUP1 LOG3 DUP1 RETURN JUMPDEST DUP1 REVERT JUMPDEST DUP4 DUP3 CALLVALUE PUSH2 0x174 JUMPI DUP2 PUSH1 0x3 NOT CALLDATASIZE ADD SLT PUSH2 0x174 JUMPI MLOAD PUSH32 0x0 PUSH1 0x1 PUSH1 0x1 PUSH1 0xA0 SHL SUB AND DUP2 MSTORE PUSH1 0x20 SWAP1 RETURN JUMPDEST DUP4 DUP3 CALLVALUE PUSH2 0x174 JUMPI DUP2 PUSH1 0x3 NOT CALLDATASIZE ADD SLT PUSH2 0x174 JUMPI PUSH1 0x20 SWAP1 PUSH1 0x1 SLOAD SWAP1 MLOAD SWAP1 DUP2 MSTORE RETURN JUMPDEST DUP4 DUP3 CALLVALUE PUSH2 0x174 JUMPI DUP2 PUSH1 0x3 NOT CALLDATASIZE ADD SLT PUSH2 0x174 JUMPI PUSH1 0x20 SWAP1 MLOAD PUSH32 0x0 DUP2 MSTORE RETURN JUMPDEST POP SWAP2 CALLVALUE PUSH2 0x3DB JUMPI PUSH1 0x20 CALLDATASIZE PUSH1 0x3 NOT ADD SLT PUSH2 0x3DB JUMPI POP DUP1 CALLDATALOAD SWAP1 PUSH2 0x49B PUSH2 0x5AF JUMP JUMPDEST PUSH2 0x4A3 PUSH2 0x697 JUMP JUMPDEST POP PUSH1 0x1 SLOAD SWAP1 DUP3 DUP3 LT PUSH2 0x4EB JUMPI POP SWAP2 PUSH2 0x4BD DUP3 PUSH1 0x20 SWAP5 PUSH2 0x5DB JUMP JUMPDEST PUSH1 0x1 SSTORE PUSH2 0x20F DUP3 CALLER PUSH32 0x0 PUSH2 0x878 JUMP JUMPDEST PUSH1 0x64 SWAP1 PUSH1 0x20 DUP6 MLOAD SWAP2 PUSH3 0x461BCD PUSH1 0xE5 SHL DUP4 MSTORE DUP3 ADD MSTORE PUSH1 0x1C PUSH1 0x24 DUP3 ADD MSTORE PUSH32 0x53747261746567793A20696E73756666696369656E742066756E647300000000 PUSH1 0x44 DUP3 ADD MSTORE REVERT JUMPDEST POP POP CALLVALUE PUSH2 0x174 JUMPI PUSH1 0x20 CALLDATASIZE PUSH1 0x3 NOT ADD SLT PUSH2 0x174 JUMPI CALLDATALOAD DUP1 ISZERO ISZERO DUP1 SWAP2 SUB PUSH2 0x174 JUMPI PUSH2 0x554 PUSH2 0x5AF JUMP JUMPDEST PUSH2 0x55C PUSH2 0x697 JUMP JUMPDEST POP PUSH1 0xFF DUP1 NOT PUSH1 0x3 SLOAD AND SWAP2 AND OR PUSH1 0x3 SSTORE DUP1 RETURN JUMPDEST DUP4 DUP3 CALLVALUE PUSH2 0x174 JUMPI DUP2 PUSH1 0x3 NOT CALLDATASIZE ADD SLT PUSH2 0x174 JUMPI PUSH1 0x20 SWAP1 PUSH2 0x58B PUSH2 0x697 JUMP JUMPDEST SWAP1 MLOAD SWAP1 DUP2 MSTORE RETURN JUMPDEST DUP4 DUP3 CALLVALUE PUSH2 0x174 JUMPI DUP2 PUSH1 0x3 NOT CALLDATASIZE ADD SLT PUSH2 0x174 JUMPI PUSH1 0x20 SWAP1 PUSH2 0x58B PUSH2 0x61E JUMP JUMPDEST PUSH1 0x0 SLOAD PUSH1 0x1 PUSH1 0x1 PUSH1 0xA0 SHL SUB AND CALLER SUB PUSH2 0x5C3 JUMPI JUMP JUMPDEST PUSH1 0x40 MLOAD PUSH4 0x118CDAA7 PUSH1 0xE0 SHL DUP2 MSTORE CALLER PUSH1 0x4 DUP3 ADD MSTORE PUSH1 0x24 SWAP1 REVERT JUMPDEST SWAP2 SWAP1 DUP3 SUB SWAP2 DUP3 GT PUSH2 0x5E8 JUMPI JUMP JUMPDEST PUSH4 0x4E487B71 PUSH1 0xE0 SHL PUSH1 0x0 MSTORE PUSH1 0x11 PUSH1 0x4 MSTORE PUSH1 0x24 PUSH1 0x0 REVERT JUMPDEST DUP2 DUP2 MUL SWAP3 SWAP2 DUP2 ISZERO SWAP2 DUP5 DIV EQ OR ISZERO PUSH2 0x5E8 JUMPI JUMP JUMPDEST SWAP2 SWAP1 DUP3 ADD DUP1 SWAP3 GT PUSH2 0x5E8 JUMPI JUMP JUMPDEST PUSH1 0x1 SLOAD DUP1 ISZERO DUP1 ISZERO PUSH2 0x68B JUMPI JUMPDEST PUSH2 0x684 JUMPI PUSH2 0x63A PUSH1 0x2 SLOAD TIMESTAMP PUSH2 0x5DB JUMP JUMPDEST DUP1 ISZERO PUSH2 0x687 JUMPI SWAP1 PUSH5 0x496CEBB800 PUSH2 0x67D PUSH2 0x684 SWAP4 PUSH2 0x678 PUSH32 0x0 DUP6 PUSH2 0x5FE JUMP JUMPDEST PUSH2 0x5FE JUMP JUMPDEST DIV SWAP1 PUSH2 0x611 JUMP JUMPDEST SWAP1 JUMP JUMPDEST POP SWAP1 JUMP JUMPDEST POP PUSH1 0xFF PUSH1 0x3 SLOAD AND PUSH2 0x62A JUMP JUMPDEST PUSH1 0xFF PUSH1 0x3 SLOAD AND PUSH2 0x703 JUMPI PUSH2 0x6A9 PUSH2 0x61E JUMP JUMPDEST PUSH2 0x6B5 PUSH1 0x1 SLOAD DUP3 PUSH2 0x5DB JUMP JUMPDEST SWAP1 DUP2 PUSH2 0x6C8 JUMPI JUMPDEST POP POP TIMESTAMP PUSH1 0x2 SSTORE PUSH1 0x1 SLOAD SWAP1 JUMP JUMPDEST PUSH32 0xFE2EBF53456A69D7B70AFFC98B9021C791A9BCE3AF6FA5D24DFBC2DB0F817B54 SWAP2 DUP2 PUSH1 0x40 SWAP3 PUSH1 0x1 SSTORE DUP3 MLOAD SWAP2 DUP3 MSTORE PUSH1 0x20 DUP3 ADD MSTORE LOG1 CODESIZE DUP1 PUSH2 0x6BC JUMP JUMPDEST PUSH1 0x1 SLOAD SWAP1 JUMP JUMPDEST SWAP1 PUSH1 0x1F DUP1 NOT SWAP2 ADD AND DUP2 ADD SWAP1 DUP2 LT PUSH8 0xFFFFFFFFFFFFFFFF DUP3 GT OR PUSH2 0x72B JUMPI PUSH1 0x40 MSTORE JUMP JUMPDEST PUSH4 0x4E487B71 PUSH1 0xE0 SHL PUSH1 0x0 MSTORE PUSH1 0x41 PUSH1 0x4 MSTORE PUSH1 0x24 PUSH1 0x0 REVERT JUMPDEST PUSH1 0x1 DUP1 PUSH1 0xA0 SHL SUB AND SWAP1 PUSH1 0x0 DUP1 DUP3 PUSH1 0x20 DUP3 SWAP5 MLOAD SWAP2 ADD DUP3 DUP7 GAS CALL RETURNDATASIZE ISZERO PUSH2 0x809 JUMPI RETURNDATASIZE SWAP1 PUSH8 0xFFFFFFFFFFFFFFFF DUP3 GT PUSH2 0x7F5 JUMPI SWAP1 PUSH2 0x79D SWAP2 PUSH1 0x40 MLOAD SWAP2 PUSH2 0x78D PUSH1 0x20 PUSH1 0x1F NOT PUSH1 0x1F DUP5 ADD AND ADD DUP5 PUSH2 0x709 JUMP JUMPDEST DUP3 MSTORE RETURNDATASIZE DUP5 PUSH1 0x20 DUP5 ADD RETURNDATACOPY JUMPDEST DUP5 PUSH2 0x815 JUMP JUMPDEST SWAP1 DUP2 MLOAD SWAP2 DUP3 ISZERO ISZERO SWAP3 DUP4 PUSH2 0x7CD JUMPI JUMPDEST POP POP POP PUSH2 0x7B5 JUMPI POP JUMP JUMPDEST PUSH1 0x24 SWAP1 PUSH1 0x40 MLOAD SWAP1 PUSH4 0x5274AFE7 PUSH1 0xE0 SHL DUP3 MSTORE PUSH1 0x4 DUP3 ADD MSTORE REVERT JUMPDEST DUP2 SWAP3 SWAP4 POP SWAP1 PUSH1 0x20 SWAP2 DUP2 ADD SUB SLT PUSH2 0x174 JUMPI PUSH1 0x20 ADD MLOAD SWAP1 DUP2 ISZERO SWAP2 DUP3 ISZERO SUB PUSH2 0x3DB JUMPI POP CODESIZE DUP1 DUP1 PUSH2 0x7AB JUMP JUMPDEST PUSH4 0x4E487B71 PUSH1 0xE0 SHL DUP4 MSTORE PUSH1 0x41 PUSH1 0x4 MSTORE PUSH1 0x24 DUP4 REVERT JUMPDEST PUSH2 0x79D SWAP1 PUSH1 0x60 SWAP1 PUSH2 0x797 JUMP JUMPDEST SWAP1 PUSH2 0x83C JUMPI POP DUP1 MLOAD ISZERO PUSH2 0x82A JUMPI DUP1 MLOAD SWAP1 PUSH1 0x20 ADD REVERT JUMPDEST PUSH1 0x40 MLOAD PUSH4 0xA12F521 PUSH1 0xE1 SHL DUP2 MSTORE PUSH1 0x4 SWAP1 REVERT JUMPDEST DUP2 MLOAD ISZERO DUP1 PUSH2 0x86F JUMPI JUMPDEST PUSH2 0x84D JUMPI POP SWAP1 JUMP JUMPDEST PUSH1 0x40 MLOAD PUSH4 0x9996B315 PUSH1 0xE0 SHL DUP2 MSTORE PUSH1 0x1 PUSH1 0x1 PUSH1 0xA0 SHL SUB SWAP1 SWAP2 AND PUSH1 0x4 DUP3 ADD MSTORE PUSH1 0x24 SWAP1 REVERT JUMPDEST POP DUP1 EXTCODESIZE ISZERO PUSH2 0x845 JUMP JUMPDEST PUSH1 0x40 MLOAD PUSH4 0xA9059CBB PUSH1 0xE0 SHL PUSH1 0x20 DUP3 ADD MSTORE PUSH1 0x1 PUSH1 0x1 PUSH1 0xA0 SHL SUB SWAP1 SWAP3 AND PUSH1 0x24 DUP4 ADD MSTORE PUSH1 0x44 DUP1 DUP4 ADD SWAP4 SWAP1 SWAP4 MSTORE SWAP2 DUP2 MSTORE PUSH1 0x80 DUP2 ADD SWAP2 PUSH8 0xFFFFFFFFFFFFFFFF DUP4 GT DUP3 DUP5 LT OR PUSH2 0x72B JUMPI PUSH2 0x8C8 SWAP3 PUSH1 0x40 MSTORE PUSH2 0x741 JUMP JUMPDEST JUMP INVALID LOG2 PUSH5 0x6970667358 0x22 SLT KECCAK256 SUB SLOAD 0xDC SWAP4 0xAC GASPRICE 0xED 0x4D 0x2F 0x4F PUSH30 0x5CA6DFDB51301A30CB7E1A8EEAD8E51A78D35C739264736F6C6343000814 STOP CALLER "},"methodIdentifiers":{"SECONDS_PER_YEAR()":"e6a69ab8","accrueYield()":"059d9c75","apyBps()":"51618ed3","deposit(uint256)":"b6b55f25","emergencyWithdraw()":"db2e21bc","isPaused()":"b187bd26","lastUpdateTime()":"c8f33c91","owner()":"8da5cb5b","renounceOwnership()":"715018a6","setPaused(bool)":"16c38b3c","totalAssets()":"01e1d114","totalAssetsTracked()":"618e68e8","transferOwnership(address)":"f2fde38b","underlying()":"6f307dc3","withdraw(uint256)":"2e1a7d4d"}}}}}