{"contracts/LiteVault.sol":{"LiteVault":{"abi":[{"inputs":[{"internalType":"address","name":"_underlying","type":"address"},{"internalType":"address","name":"_initialOwner","type":"address"}],"stateMutability":"nonpayable","type":"constructor"},{"inputs":[{"internalType":"address","name":"target","type":"address"}],"name":"AddressEmptyCode","type":"error"},{"inputs":[{"internalType":"address","name":"account","type":"address"}],"name":"AddressInsufficientBalance","type":"error"},{"inputs":[],"name":"FailedInnerCall","type":"error"},{"inputs":[{"internalType":"address","name":"owner","type":"address"}],"name":"OwnableInvalidOwner","type":"error"},{"inputs":[{"internalType":"address","name":"account","type":"address"}],"name":"OwnableUnauthorizedAccount","type":"error"},{"inputs":[],"name":"ReentrancyGuardReentrantCall","type":"error"},{"inputs":[{"internalType":"address","name":"token","type":"address"}],"name":"SafeERC20FailedOperation","type":"error"},{"anonymous":false,"inputs":[{"indexed":true,"internalType":"address","name":"user","type":"address"},{"indexed":false,"internalType":"uint256","name":"amount","type":"uint256"},{"indexed":false,"internalType":"uint256","name":"shares","type":"uint256"}],"name":"Deposit","type":"event"},{"anonymous":false,"inputs":[],"name":"EmergencyWithdraw","type":"event"},{"anonymous":false,"inputs":[{"indexed":true,"internalType":"address","name":"previousOwner","type":"address"},{"indexed":true,"internalType":"address","name":"newOwner","type":"address"}],"name":"OwnershipTransferred","type":"event"},{"anonymous":false,"inputs":[{"indexed":false,"internalType":"uint256","name":"stratAAssets","type":"uint256"},{"indexed":false,"internalType":"uint256","name":"stratBAssets","type":"uint256"}],"name":"Rebalance","type":"event"},{"anonymous":false,"inputs":[{"indexed":true,"internalType":"address","name":"user","type":"address"},{"indexed":false,"internalType":"uint256","name":"amount","type":"uint256"},{"indexed":false,"internalType":"uint256","name":"shares","type":"uint256"}],"name":"Withdraw","type":"event"},{"inputs":[],"name":"MAX_BPS","outputs":[{"internalType":"uint256","name":"","type":"uint256"}],"stateMutability":"view","type":"function"},{"inputs":[],"name":"STRAT_A_WEIGHT","outputs":[{"internalType":"uint256","name":"","type":"uint256"}],"stateMutability":"view","type":"function"},{"inputs":[],"name":"STRAT_B_WEIGHT","outputs":[{"internalType":"uint256","name":"","type":"uint256"}],"stateMutability":"view","type":"function"},{"inputs":[{"internalType":"uint256","name":"shares","type":"uint256"}],"name":"convertToAssets","outputs":[{"internalType":"uint256","name":"","type":"uint256"}],"stateMutability":"view","type":"function"},{"inputs":[{"internalType":"uint256","name":"assets","type":"uint256"}],"name":"convertToShares","outputs":[{"internalType":"uint256","name":"","type":"uint256"}],"stateMutability":"view","type":"function"},{"inputs":[{"internalType":"uint256","name":"amount","type":"uint256"},{"internalType":"uint256","name":"minShares","type":"uint256"}],"name":"deposit","outputs":[],"stateMutability":"nonpayable","type":"function"},{"inputs":[],"name":"emergencyWithdrawAll","outputs":[],"stateMutability":"nonpayable","type":"function"},{"inputs":[],"name":"getStrategyAPYs","outputs":[{"internalType":"uint256","name":"apyA","type":"uint256"},{"internalType":"uint256","name":"apyB","type":"uint256"}],"stateMutability":"view","type":"function"},{"inputs":[{"internalType":"address","name":"user","type":"address"}],"name":"getUserPosition","outputs":[{"internalType":"uint256","name":"","type":"uint256"}],"stateMutability":"view","type":"function"},{"inputs":[],"name":"isPaused","outputs":[{"internalType":"bool","name":"","type":"bool"}],"stateMutability":"view","type":"function"},{"inputs":[],"name":"owner","outputs":[{"internalType":"address","name":"","type":"address"}],"stateMutability":"view","type":"function"},{"inputs":[],"name":"rebalance","outputs":[],"stateMutability":"nonpayable","type":"function"},{"inputs":[],"name":"renounceOwnership","outputs":[],"stateMutability":"nonpayable","type":"function"},{"inputs":[{"internalType":"bool","name":"_paused","type":"bool"}],"name":"setPaused","outputs":[],"stateMutability":"nonpayable","type":"function"},{"inputs":[{"internalType":"address","name":"_stratA","type":"address"},{"internalType":"address","name":"_stratB","type":"address"}],"name":"setStrategies","outputs":[],"stateMutability":"nonpayable","type":"function"},{"inputs":[{"internalType":"uint256","name":"_bps","type":"uint256"}],"name":"setTargetBuffer","outputs":[],"stateMutability":"nonpayable","type":"function"},{"inputs":[],"name":"sharePrice","outputs":[{"internalType":"uint256","name":"","type":"uint256"}],"stateMutability":"view","type":"function"},{"inputs":[],"name":"shareToken","outputs":[{"internalType":"contract YLTC","name":"","type":"address"}],"stateMutability":"view","type":"function"},{"inputs":[],"name":"strategyA","outputs":[{"internalType":"contract IStrategy","name":"","type":"address"}],"stateMutability":"view","type":"function"},{"inputs":[],"name":"strategyB","outputs":[{"internalType":"contract IStrategy","name":"","type":"address"}],"stateMutability":"view","type":"function"},{"inputs":[],"name":"targetBufferBps","outputs":[{"internalType":"uint256","name":"","type":"uint256"}],"stateMutability":"view","type":"function"},{"inputs":[],"name":"totalAssets","outputs":[{"internalType":"uint256","name":"","type":"uint256"}],"stateMutability":"view","type":"function"},{"inputs":[{"internalType":"address","name":"newOwner","type":"address"}],"name":"transferOwnership","outputs":[],"stateMutability":"nonpayable","type":"function"},{"inputs":[],"name":"underlying","outputs":[{"internalType":"contract IERC20","name":"","type":"address"}],"stateMutability":"view","type":"function"},{"inputs":[{"internalType":"uint256","name":"shares","type":"uint256"}],"name":"withdraw","outputs":[],"stateMutability":"nonpayable","type":"function"}],"evm":{"bytecode":{"linkReferences":{},"object":"60c034620001a157620030cf906001600160401b0390601f38849003908101601f191682019083821183831017620001a65780839160409687948552833981010312620001a1576200005f60206200005783620001bc565b9201620001bc565b60016000908155926001600160a01b039182169290919083156200018957600180546001600160a01b0319811686179091558651949083167f8be0079c531659141344cd1fd0a4f28419497f9722a3daafe3b4186f6b6457e08780a36105dc60045516608052610d9582810191821183831017620001755760209183916200233a833930815203019082f09081156200016a575060a052516121689081620001d282396080518181816102600152818161095301528181610f3801528181611128015281816116e001528181611cc10152611e3b015260a05181818161038001528181610f7c0152818161105a015281816118a60152818161194f01528181611f8301526120500152f35b8251903d90823e3d90fd5b634e487b7160e01b84526041600452602484fd5b8551631e4fbdf760e01b815260048101869052602490fd5b600080fd5b634e487b7160e01b600052604160045260246000fd5b51906001600160a01b0382168203620001a15756fe6040608081526004908136101561001557600080fd5b600091823560e01c90816301e1d114146115eb57816307a2d13a146115cb57816316c38b3c146115945781632e1a7d4d1461100b57816340f4520c14610fee5781635646b99514610fd15781635b7c2dad14610fab5781636c9fa59e14610f675781636f307dc314610f23578163715018a614610ec5578163715857b014610ea75781637966477614610d8d5781637d7c2a1c146108fc57816387269729146108df5781638da5cb5b146108b6578163b187bd2614610892578163c583214c14610834578163c6e6f59214610801578163c82b929d1461079d578163d7ebce751461077457838263dd1917191461063e57508163e2bbb15814610215578163e504d975146101ec578163f2fde38b14610157575063fd967f471461013857600080fd5b34610153578160031936011261015357602090516127108152f35b5080fd5b9050346101e85760203660031901126101e857610172611608565b9061017b61161e565b6001600160a01b039182169283156101d2575050600154826bffffffffffffffffffffffff60a01b821617600155167f8be0079c531659141344cd1fd0a4f28419497f9722a3daafe3b4186f6b6457e0600080a380f35b51631e4fbdf760e01b8152908101849052602490fd5b8280fd5b50503461015357816003193601126101535760025490516001600160a01b039091168152602090f35b9050346101e857816003193601126101e857803591610232611b5b565b60ff6005541661060b57610244611b7e565b80516370a0823160e01b80825230828501526001600160a01b037f000000000000000000000000000000000000000000000000000000000000000081811695909360209392602491858184818c5afa908115610601578b916105d4575b5060025484908790841680156105cb578a516278744560e21b815292839182905afa9081156105c1578c91610594575b505b6003548590889085168e811561057d57508b516278744560e21b815292839182905afa908115610573578d91610542575b506103219261031b9261031691611696565b611696565b8a61188e565b9561032d8715156119d9565b8235871061050c5787516323b872dd60e01b87820152338482015230604482015260648082018c905281529060a0820167ffffffffffffffff8111838210176104f85789528b929161037e91611a32565b7f000000000000000000000000000000000000000000000000000000000000000016803b156101535787516340c10f1960e01b815233858201908152602081018990529091839183919082908490829060400103925af180156104ee579086949392916104d1575b50506127106103fe6103f66116b9565b84549061185b565b049387519889938492835230908301525afa80156104c7578790610475575b7f90890809c654f11d6e72a28fa60149770a0d11ec6c92319d6ceb2bb0a4ea1a15955081811161045c575b505082519485528401523392a26001815580f35b61046e9161046991611c3d565b611c4a565b3880610448565b508185813d83116104c0575b61048b8183611674565b810103126104bb577f90890809c654f11d6e72a28fa60149770a0d11ec6c92319d6ceb2bb0a4ea1a15945161041d565b600080fd5b503d610481565b84513d89823e3d90fd5b6104dd9192945061164a565b6104ea57839189386103e6565b8880fd5b88513d84823e3d90fd5b84604187634e487b7160e01b600052526000fd5b875162461bcd60e51b81528085018790526011818501527014db1a5c1c1859d948195e18d959591959607a1b6044820152606490fd5b9290508783813d831161056c575b61055a8183611674565b810103126104bb579151610316610304565b503d610550565b8a513d8f823e3d90fd5b610321959350610316925061031b94915092611696565b90508681813d83116105ba575b6105ab8183611674565b810103126104bb5751386102d1565b503d6105a1565b89513d8e823e3d90fd5b5050508a6102d3565b90508581813d83116105fa575b6105eb8183611674565b810103126104bb5751386102a1565b503d6105e1565b88513d8d823e3d90fd5b906020606492519162461bcd60e51b8352820152600d60248201526c15985d5b1d0e881c185d5cd959609a1b6044820152fd5b9291503461077057826003193601126107705761065961161e565b6002546001600160a01b0390849082168061070f575b505060035416806106b0575b83600160ff1960055416176005557fcc6a1a065ab514031862e10458cbf117148ff1f8a168cfacab350e6644c174f08180a180f35b6020918351809581936336cb886f60e21b83525af190811561070657506106db575b8080839261067b565b602090813d81116106ff575b6106f18183611674565b810103126104bb57386106d2565b503d6106e7565b513d84823e3d90fd5b602090848651809481936336cb886f60e21b83525af1801561076657610737575b849061066f565b6020809295503d811161075f575b61074f8183611674565b810103126104bb57839238610730565b503d610745565b84513d87823e3d90fd5b5050fd5b50503461015357816003193601126101535760035490516001600160a01b039091168152602090f35b9050346101e85760203660031901126101e8578035916107bb61161e565b61271083116107c957505580f35b906020606492519162461bcd60e51b835282015260126024820152715661756c743a20696e76616c69642062707360701b6044820152fd5b828434610831576020366003190112610831575061082a6020926108236116b9565b903561188e565b9051908152f35b80fd5b505034610153573660031901126108315761084d611608565b6024356001600160a01b0381811692918390036104bb5761086c61161e565b6bffffffffffffffffffffffff60a01b9116816002541617600255600354161760035580f35b50503461015357816003193601126101535760209060ff6005541690519015158152f35b50503461015357816003193601126101535760015490516001600160a01b039091168152602090f35b50503461015357816003193601126101535760209061082a611f6e565b919050346101e857826003193601126101e85761091761161e565b61091f611b7e565b61271061092d6103f66116b9565b82516370a0823160e01b815230858201526001600160a01b0392602092049082816024817f000000000000000000000000000000000000000000000000000000000000000088165afa908115610d83578791610d56575b5081811115610aea5761099a9161046991611c3d565b6002548490829084168015610ae05785516278744560e21b815292839182905afa908115610ad6578691610aa9575b50915b600354168015610a7e5781908451958680926278744560e21b82525afa8015610a74578590610a27575b7f0b33d39bbef101ecc4f5ef04e6d3a125c9fb745a418dac380e2a9460f8200dc89450905b8351928352820152a180f35b508084813d8311610a6d575b610a3d8183611674565b810103126104bb577f0b33d39bbef101ecc4f5ef04e6d3a125c9fb745a418dac380e2a9460f8200dc893516109f6565b503d610a33565b83513d87823e3d90fd5b507f0b33d39bbef101ecc4f5ef04e6d3a125c9fb745a418dac380e2a9460f8200dc893508490610a1b565b90508181813d8311610acf575b610ac08183611674565b810103126104bb5751386109c9565b503d610ab6565b84513d88823e3d90fd5b50505084916109cc565b818110610af9575b505061099a565b610b0291611c3d565b826002541680610c7c575b5080151580610c6f575b610b7c575b610b27573880610af2565b8360849184519162461bcd60e51b8352820152602a60248201527f5661756c743a20696e73756666696369656e74206c697175696469747920746f60448201526920726562616c616e636560b01b6064820152fd5b82600354168685516278744560e21b815284818981865afa908115610c65579085918391610c35575b5080851115610c2d57925b83610bbf575b50505050610b1c565b6024885180948193632e1a7d4d60e01b8352878d8401525af18015610c2357908491610bfa575b5050610bf191611c3d565b38868382610bb6565b813d8311610c1c575b610c0d8183611674565b810103126104bb578238610be6565b503d610c03565b86513d8a823e3d90fd5b508392610bb0565b92505081813d8311610c5e575b610c4c8183611674565b810103126104bb578388915138610ba5565b503d610c42565b87513d84823e3d90fd5b5082600354161515610b17565b84516278744560e21b8152879084818981865afa908115610c65579085918391610d26575b5080851115610d1e57925b83610cba575b505050610b0d565b6024885180948193632e1a7d4d60e01b8352878d8401525af18015610c2357908491610cf5575b5050610cec91611c3d565b38868382610cb2565b813d8311610d17575b610d088183611674565b810103126104bb578238610ce1565b503d610cfe565b508392610cac565b92505081813d8311610d4f575b610d3d8183611674565b810103126104bb578388915138610ca1565b503d610d33565b90508281813d8311610d7c575b610d6d8183611674565b810103126104bb575138610984565b503d610d63565b85513d89823e3d90fd5b83915034610153578160031936011261015357600254829182916001600160a01b0390811680610e3c575b506003541680610dd2575b50505082519182526020820152f35b85516351618ed360e01b8152929350602091839182905afa918215610e315791610e00575b50838080610dc3565b90506020813d8211610e29575b81610e1a60209383611674565b810103126104bb575183610df7565b3d9150610e0d565b8451903d90823e3d90fd5b86516351618ed360e01b81529195506020908290849082905afa908115610e9d578391610e6c575b509386610db8565b90506020813d8211610e95575b81610e8660209383611674565b810103126104bb575186610e64565b3d9150610e79565b86513d85823e3d90fd5b9050346101e857826003193601126101e85760209250549051908152f35b8334610831578060031936011261083157610ede61161e565b600180546001600160a01b031981169091556000906001600160a01b03167f8be0079c531659141344cd1fd0a4f28419497f9722a3daafe3b4186f6b6457e08280a380f35b505034610153578160031936011261015357517f00000000000000000000000000000000000000000000000000000000000000006001600160a01b03168152602090f35b505034610153578160031936011261015357517f00000000000000000000000000000000000000000000000000000000000000006001600160a01b03168152602090f35b5050346101535760203660031901126101535760209061082a610fcc611608565b61202d565b50503461015357816003193601126101535760209051611b588152f35b50503461015357816003193601126101535760209051610bb88152f35b919050346101e8576020806003193601126115905782359061102b611b5b565b611033611b7e565b61103e8215156119d9565b82516370a0823160e01b80825233868301526001600160a01b037f000000000000000000000000000000000000000000000000000000000000000081169691926024929190858185818c5afa90811561148f579087918b9161155f575b501061151e576110b26110ac6116b9565b8761185b565b87516318160ddd60e01b815290868285818d5afa908115611318578b916114e9575b6110de925061186e565b9788156114b057803b156114ac578751632770a7eb60e21b8152338482019081526020810189905290918b9183919082908490829060400103925af1801561148f57611499575b507f00000000000000000000000000000000000000000000000000000000000000009387519081523083820152858185818589165afa90811561148f57908995949392918b9161145e575b508581106111f2575b5050865163a9059cbb60e01b81870152339281019283526020830194909452507ff279e6a1f5e320cca91135676d9cb6e44ca8a08c0b88342bcdb1144f6511b568959493926111e09290916111db90839060400103601f198101845283611674565b611a32565b82519485528401523392a26001815580f35b6111ff9192939495611c3d565b816002541680611371575b509081151580611364575b611274575b5061122a57908180889493611179565b60216084928588519362461bcd60e51b85528401528201527f5661756c743a207374726174656779207769746864726177616c206661696c656044820152601960fa1b6064820152fd5b600354168988516278744560e21b815287818681865afa90811561135a57908891839161132a575b508085111561132257925b836112b5575b50505061121a565b868b5180948193632e1a7d4d60e01b8352878a8401525af18015611318579087916112ef575b50506112e691611c3d565b388986826112ad565b813d8311611311575b6113028183611674565b810103126104bb5785386112db565b503d6112f8565b89513d8d823e3d90fd5b5083926112a7565b92505081813d8311611353575b6113418183611674565b810103126104bb57868b91513861129c565b503d611337565b8a513d84823e3d90fd5b5080600354161515611215565b88516278744560e21b81528b9088818781865afa908115611454579089918391611424575b508085111561141c57925b836113af575b50505061120a565b878c5180948193632e1a7d4d60e01b8352878b8401525af18015611412579088916113e9575b50506113e091611c3d565b388a87826113a7565b813d831161140b575b6113fc8183611674565b810103126104bb5786386113d5565b503d6113f2565b8a513d8e823e3d90fd5b5083926113a1565b92505081813d831161144d575b61143b8183611674565b810103126104bb57878c915138611396565b503d611431565b8b513d84823e3d90fd5b809650878092503d8311611488575b6114778183611674565b810103126104bb5788945138611170565b503d61146d565b88513d8c823e3d90fd5b6114a59099919961164a565b9738611125565b8980fd5b875162461bcd60e51b8152808401879052601481860152735661756c743a207a65726f20776974686472617760601b6044820152606490fd5b90508682813d8311611517575b6115008183611674565b81010312611513576110de9151906110d4565b8a80fd5b503d6114f6565b50601a6064928588519362461bcd60e51b85528401528201527f5661756c743a20696e73756666696369656e74207368617265730000000000006044820152fd5b809250878092503d8311611589575b6115788183611674565b810103126114ac578690513861109b565b503d61156e565b8380fd5b8390346101535760203660031901126101535735801515809103610153576115ba61161e565b60ff80196005541691161760055580f35b828434610831576020366003190112610831575061082a6020923561193a565b50503461015357816003193601126101535760209061082a6116b9565b600435906001600160a01b03821682036104bb57565b6001546001600160a01b0316330361163257565b60405163118cdaa760e01b8152336004820152602490fd5b67ffffffffffffffff811161165e57604052565b634e487b7160e01b600052604160045260246000fd5b90601f8019910116810190811067ffffffffffffffff82111761165e57604052565b919082018092116116a357565b634e487b7160e01b600052601160045260246000fd5b604080516370a0823160e01b8152306004820152906001600160a01b0390602080846024817f000000000000000000000000000000000000000000000000000000000000000087165afa93841561185057600094611821575b506002546000908290851680156118195784516278744560e21b81529250829060049082905afa90811561180e576000916117e1575b50925b60035416600081156117cd575090806004928451938480926278744560e21b82525afa9283156117c35750600092611792575b505061178f92916103169192611696565b90565b81819392933d83116117bc575b6117a98183611674565b810103126108315750518161031661177e565b503d61179f565b513d6000823e3d90fd5b9050610316925061178f9493915092611696565b908282813d8311611807575b6117f78183611674565b8101031261083157505138611748565b503d6117ed565b83513d6000823e3d90fd5b50509261174b565b90938482813d8311611849575b6118388183611674565b810103126108315750519238611712565b503d61182e565b82513d6000823e3d90fd5b818102929181159184041417156116a357565b8115611878570490565b634e487b7160e01b600052601260045260246000fd5b6040516318160ddd60e01b81529091906020816004817f00000000000000000000000000000000000000000000000000000000000000006001600160a01b03165afa90811561192e576000916118fd575b5080156118f8576118f39061178f9361185b565b61186e565b505090565b906020823d8211611926575b8161191660209383611674565b81010312610831575051386118df565b3d9150611909565b6040513d6000823e3d90fd5b6040516318160ddd60e01b81526020816004817f00000000000000000000000000000000000000000000000000000000000000006001600160a01b03165afa90811561192e576000916119a8575b5080156119a4576118f361178f9261199e6116b9565b9061185b565b5090565b906020823d82116119d1575b816119c160209383611674565b8101031261083157505138611988565b3d91506119b4565b156119e057565b60405162461bcd60e51b81526020600482015260126024820152715661756c743a20736861726573207a65726f60701b6044820152606490fd5b908160209103126104bb575180151581036104bb5790565b60018060a01b031690600080826020829451910182865af13d15611aeb573d67ffffffffffffffff8111611ad757604051611a8e939291611a7d601f8201601f191660200183611674565b8152809260203d92013e5b83611af8565b8051908115159182611abc575b5050611aa45750565b60249060405190635274afe760e01b82526004820152fd5b611acf9250602080918301019101611a1a565b153880611a9b565b634e487b7160e01b83526041600452602483fd5b611a8e9150606090611a88565b90611b1f5750805115611b0d57805190602001fd5b604051630a12f52160e11b8152600490fd5b81511580611b52575b611b30575090565b604051639996b31560e01b81526001600160a01b039091166004820152602490fd5b50803b15611b28565b600260005414611b6c576002600055565b604051633ee5aeb560e01b8152600490fd5b6002546001600160a01b0390811680611bed575b506003541680611b9f5750565b602060009160046040518094819363059d9c7560e01b83525af1801561192e57611bc65750565b602090813d8111611be6575b611bdc8183611674565b810103126104bb57565b503d611bd2565b602060009160046040518094819363059d9c7560e01b83525af1801561192e5715611b9257602090813d8111611c36575b611c288183611674565b810103126104bb5738611b92565b503d611c1e565b919082039182116116a357565b611b588082029082820414821517156116a357612710611c6c91048092611c3d565b9080151580611f5a575b611e06575b5080151580611df2575b611c8c5750565b6003546040805163095ea7b360e01b8082526001600160a01b03938416600483015260006024830181905294602094909290917f000000000000000000000000000000000000000000000000000000000000000083169186816044818b875af18015610c23579287928692611d3395611dd5575b50600354885191825286166001600160a01b031660048201526024810192909252909283919082908a9082906044820190565b03925af18015610ad657859287959492602492611da8575b5060035416918451958693849263b6b55f2560e01b845260048401525af1908115611d9f5750611d7a57505050565b813d8311611d98575b611d8d8183611674565b810103126108315750565b503d611d83565b513d85823e3d90fd5b611dc790853d8711611dce575b611dbf8183611674565b810190611a1a565b5038611d4b565b503d611db5565b611deb90853d8711611dce57611dbf8183611674565b5038611d00565b506003546001600160a01b03161515611c85565b6002546040805163095ea7b360e01b8082526001600160a01b03938416600483015260006024830181905294602094909290917f000000000000000000000000000000000000000000000000000000000000000083169186816044818b875af18015610c23579287928692611ead95611f3d575b50600254885191825286166001600160a01b031660048201526024810192909252909283919082908a9082906044820190565b03925af18015610ad657859287959492602492611f20575b5060025416918451958693849263b6b55f2560e01b845260048401525af1908115611d9f5750611ef7575b5050611c7b565b813d8311611f19575b611f0a8183611674565b81010312610831578080611ef0565b503d611f00565b611f3690853d8711611dce57611dbf8183611674565b5038611ec5565b611f5390853d8711611dce57611dbf8183611674565b5038611e7a565b506002546001600160a01b03161515611c76565b6040516318160ddd60e01b81526020816004817f00000000000000000000000000000000000000000000000000000000000000006001600160a01b03165afa90811561192e57600091611ffc575b508015611fef57611fcb6116b9565b90670de0b6b3a7640000918281029281840414901517156116a35761178f9161186e565b50670de0b6b3a764000090565b906020823d8211612025575b8161201560209383611674565b8101031261083157505138611fbc565b3d9150612008565b6040516370a0823160e01b81526001600160a01b039182166004820152602092917f000000000000000000000000000000000000000000000000000000000000000016908381602481855afa90811561192e57600091612105575b5080156120fd578361209e60049261199e6116b9565b92604051928380926318160ddd60e01b82525afa93841561192e576000946120ce575b50509161178f919261186e565b81813d83116120f6575b6120e28183611674565b810103126115905751925061178f386120c1565b503d6120d8565b506000925050565b908482813d831161212b575b61211b8183611674565b8101031261083157505138612088565b503d61211156fea2646970667358221220e52d0af8e840e512b44da0cde7df0047a7155a53c0b16005650dc01b263e948164736f6c634300081400336080346200039b576001600160401b03601f601f1962000d95388190038381018316860185811187821017620003a0578692829160405283396020958691810103126200039b57516001600160a01b039485821694918590036200039b5762000067620003b6565b60098152685969656c64204c544360b81b8282015262000086620003b6565b9460049586815263794c544360e01b84820152825193858511620002a1576003948554946001958681811c9116801562000390575b848210146200037b5790818684931162000325575b508390868311600114620002c257600092620002b6575b505060001982881b1c191690851b1785555b8151958611620002a15787548481811c9116801562000296575b82821014620002815783811162000236575b5080928611600114620001ca575084955090849291600095620001be575b50501b92600019911b1c19161781555b8115620001a65750600580546001600160a01b03198116831790915560405192167f8be0079c531659141344cd1fd0a4f28419497f9722a3daafe3b4186f6b6457e0600080a36109be9081620003d78239f35b602490600060405191631e4fbdf760e01b8352820152fd5b01519350388062000143565b939295859081168860005285600020956000905b898383106200021b575050501062000200575b50505050811b01815562000153565b01519060f884600019921b161c1916905538808080620001f1565b858701518955909701969485019488935090810190620001de565b88600052816000208480890160051c820192848a1062000277575b0160051c019085905b8281106200026a57505062000125565b600081550185906200025a565b9250819262000251565b602289634e487b7160e01b6000525260246000fd5b90607f169062000113565b604188634e487b7160e01b6000525260246000fd5b015190503880620000e7565b908a8894169189600052856000209260005b878282106200030e5750508411620002f5575b505050811b018555620000f9565b0151600019838a1b60f8161c19169055388080620002e7565b8385015186558b97909501949384019301620002d4565b90915087600052836000208680850160051c82019286861062000371575b918991869594930160051c01915b82811062000361575050620000d0565b6000815585945089910162000351565b9250819262000343565b60228b634e487b7160e01b6000525260246000fd5b90607f1690620000bb565b600080fd5b634e487b7160e01b600052604160045260246000fd5b60408051919082016001600160401b03811183821017620003a05760405256fe6080604081815260048036101561001557600080fd5b600092833560e01c90816306fdde031461070f57508063095ea7b31461066657806318160ddd1461064757806323b872dd14610554578063313ce5671461053857806340c10f191461048957806370a0823114610452578063715018a6146103f25780638da5cb5b146103c957806395d89b41146102a95780639dc29fac146101cd578063a9059cbb1461019c578063dd62ed3e1461014f5763f2fde38b146100bd57600080fd5b3461014b57602036600319011261014b576100d661084d565b906100df61087e565b6001600160a01b03918216928315610135575050600554826bffffffffffffffffffffffff60a01b821617600555167f8be0079c531659141344cd1fd0a4f28419497f9722a3daafe3b4186f6b6457e08380a380f35b51631e4fbdf760e01b8152908101849052602490fd5b8280fd5b5050346101985780600319360112610198578060209261016d61084d565b610175610868565b6001600160a01b0391821683526001865283832091168252845220549051908152f35b5080fd5b5050346101985780600319360112610198576020906101c66101bc61084d565b60243590336108aa565b5160018152f35b508290346101985782600319360112610198576101e861084d565b90602435906101f561087e565b6001600160a01b0383169283156102925783855284602052858520549183831061025e5750508184957fddf252ad1be2c89b69c2b068fc378daa952ba7f163c4a11628f55a4df523b3ef936020938688528785520381872055816002540360025551908152a380f35b865163391434e360e21b81526001600160a01b03909216908201908152602081018390526040810184905281906060010390fd5b8551634b637e8f60e11b8152808301869052602490fd5b50919034610198578160031936011261019857805190828454600181811c908083169283156103bf575b60209384841081146103ac57838852908115610390575060011461033b575b505050829003601f01601f191682019267ffffffffffffffff8411838510176103285750829182610324925282610804565b0390f35b634e487b7160e01b815260418552602490fd5b8787529192508591837f8a35acfbc15ff81a39ae7d344fd709f28e8600b4aa8c65c6b64bfe7fe36bd19b5b83851061037c57505050508301013880806102f2565b805488860183015293019284908201610366565b60ff1916878501525050151560051b84010190503880806102f2565b634e487b7160e01b895260228a52602489fd5b91607f16916102d3565b50503461019857816003193601126101985760055490516001600160a01b039091168152602090f35b833461044f578060031936011261044f5761040b61087e565b600580546001600160a01b0319811690915581906001600160a01b03167f8be0079c531659141344cd1fd0a4f28419497f9722a3daafe3b4186f6b6457e08280a380f35b80fd5b5050346101985760203660031901126101985760209181906001600160a01b0361047a61084d565b16815280845220549051908152f35b50903461014b578060031936011261014b576104a361084d565b90602435916104b061087e565b6001600160a01b03169283156105235760025490838201809211610510575084927fddf252ad1be2c89b69c2b068fc378daa952ba7f163c4a11628f55a4df523b3ef9260209260025585855284835280852082815401905551908152a380f35b634e487b7160e01b865260119052602485fd5b84602492519163ec442f0560e01b8352820152fd5b5050346101985781600319360112610198576020905160128152f35b50823461044f57606036600319011261044f5761056f61084d565b610577610868565b916044359360018060a01b0383168083526001602052868320338452602052868320549160001983036105b3575b6020886101c68989896108aa565b86831061061b5781156106045733156105ed575082526001602090815286832033845281529186902090859003905582906101c6876105a5565b8751634a1406b160e11b8152908101849052602490fd5b875163e602df0560e01b8152908101849052602490fd5b8751637dc7a0d960e11b8152339181019182526020820193909352604081018790528291506060010390fd5b5050346101985781600319360112610198576020906002549051908152f35b503461014b578160031936011261014b5761067f61084d565b6024359033156106f8576001600160a01b03169182156106e157508083602095338152600187528181208582528752205582519081527f8c5be1e5ebec7d5bd14f71427d1e84f3dd0314c0f7b2291e5b200ac8c7c3b925843392a35160018152f35b8351634a1406b160e11b8152908101859052602490fd5b835163e602df0560e01b8152808401869052602490fd5b849150833461014b578260031936011261014b5782600354600181811c908083169283156107fa575b60209384841081146103ac578388529081156107de575060011461078857505050829003601f01601f191682019267ffffffffffffffff8411838510176103285750829182610324925282610804565b600387529192508591837fc2575a0e9e593c00f959f8c92f12db2869c3395a3b0502d05e2516446f71f85b5b8385106107ca57505050508301018580806102f2565b8054888601830152930192849082016107b4565b60ff1916878501525050151560051b84010190508580806102f2565b91607f1691610738565b6020808252825181830181905290939260005b82811061083957505060409293506000838284010152601f8019910116010190565b818101860151848201604001528501610817565b600435906001600160a01b038216820361086357565b600080fd5b602435906001600160a01b038216820361086357565b6005546001600160a01b0316330361089257565b60405163118cdaa760e01b8152336004820152602490fd5b916001600160a01b0380841692831561096f57169283156109565760009083825281602052604082205490838210610924575091604082827fddf252ad1be2c89b69c2b068fc378daa952ba7f163c4a11628f55a4df523b3ef958760209652828652038282205586815220818154019055604051908152a3565b60405163391434e360e21b81526001600160a01b03919091166004820152602481019190915260448101839052606490fd5b60405163ec442f0560e01b815260006004820152602490fd5b604051634b637e8f60e11b815260006004820152602490fdfea2646970667358221220d477d53004235012708f36030117a264e05ec095f5d051b49e3996b24186743c64736f6c63430008140033","opcodes":"PUSH1 0xC0 CALLVALUE PUSH3 0x1A1 JUMPI PUSH3 0x30CF SWAP1 PUSH1 0x1 PUSH1 0x1 PUSH1 0x40 SHL SUB SWAP1 PUSH1 0x1F CODESIZE DUP5 SWAP1 SUB SWAP1 DUP2 ADD PUSH1 0x1F NOT AND DUP3 ADD SWAP1 DUP4 DUP3 GT DUP4 DUP4 LT OR PUSH3 0x1A6 JUMPI DUP1 DUP4 SWAP2 PUSH1 0x40 SWAP7 DUP8 SWAP5 DUP6 MSTORE DUP4 CODECOPY DUP2 ADD SUB SLT PUSH3 0x1A1 JUMPI PUSH3 0x5F PUSH1 0x20 PUSH3 0x57 DUP4 PUSH3 0x1BC JUMP JUMPDEST SWAP3 ADD PUSH3 0x1BC JUMP JUMPDEST PUSH1 0x1 PUSH1 0x0 SWAP1 DUP2 SSTORE SWAP3 PUSH1 0x1 PUSH1 0x1 PUSH1 0xA0 SHL SUB SWAP2 DUP3 AND SWAP3 SWAP1 SWAP2 SWAP1 DUP4 ISZERO PUSH3 0x189 JUMPI PUSH1 0x1 DUP1 SLOAD PUSH1 0x1 PUSH1 0x1 PUSH1 0xA0 SHL SUB NOT DUP2 AND DUP7 OR SWAP1 SWAP2 SSTORE DUP7 MLOAD SWAP5 SWAP1 DUP4 AND PUSH32 0x8BE0079C531659141344CD1FD0A4F28419497F9722A3DAAFE3B4186F6B6457E0 DUP8 DUP1 LOG3 PUSH2 0x5DC PUSH1 0x4 SSTORE AND PUSH1 0x80 MSTORE PUSH2 0xD95 DUP3 DUP2 ADD SWAP2 DUP3 GT DUP4 DUP4 LT OR PUSH3 0x175 JUMPI PUSH1 0x20 SWAP2 DUP4 SWAP2 PUSH3 0x233A DUP4 CODECOPY ADDRESS DUP2 MSTORE SUB ADD SWAP1 DUP3 CREATE SWAP1 DUP2 ISZERO PUSH3 0x16A JUMPI POP PUSH1 0xA0 MSTORE MLOAD PUSH2 0x2168 SWAP1 DUP2 PUSH3 0x1D2 DUP3 CODECOPY PUSH1 0x80 MLOAD DUP2 DUP2 DUP2 PUSH2 0x260 ADD MSTORE DUP2 DUP2 PUSH2 0x953 ADD MSTORE DUP2 DUP2 PUSH2 0xF38 ADD MSTORE DUP2 DUP2 PUSH2 0x1128 ADD MSTORE DUP2 DUP2 PUSH2 0x16E0 ADD MSTORE DUP2 DUP2 PUSH2 0x1CC1 ADD MSTORE PUSH2 0x1E3B ADD MSTORE PUSH1 0xA0 MLOAD DUP2 DUP2 DUP2 PUSH2 0x380 ADD MSTORE DUP2 DUP2 PUSH2 0xF7C ADD MSTORE DUP2 DUP2 PUSH2 0x105A ADD MSTORE DUP2 DUP2 PUSH2 0x18A6 ADD MSTORE DUP2 DUP2 PUSH2 0x194F ADD MSTORE DUP2 DUP2 PUSH2 0x1F83 ADD MSTORE PUSH2 0x2050 ADD MSTORE RETURN JUMPDEST DUP3 MLOAD SWAP1 RETURNDATASIZE SWAP1 DUP3 RETURNDATACOPY RETURNDATASIZE SWAP1 REVERT JUMPDEST PUSH4 0x4E487B71 PUSH1 0xE0 SHL DUP5 MSTORE PUSH1 0x41 PUSH1 0x4 MSTORE PUSH1 0x24 DUP5 REVERT JUMPDEST DUP6 MLOAD PUSH4 0x1E4FBDF7 PUSH1 0xE0 SHL DUP2 MSTORE PUSH1 0x4 DUP2 ADD DUP7 SWAP1 MSTORE PUSH1 0x24 SWAP1 REVERT JUMPDEST PUSH1 0x0 DUP1 REVERT JUMPDEST PUSH4 0x4E487B71 PUSH1 0xE0 SHL PUSH1 0x0 MSTORE PUSH1 0x41 PUSH1 0x4 MSTORE PUSH1 0x24 PUSH1 0x0 REVERT JUMPDEST MLOAD SWAP1 PUSH1 0x1 PUSH1 0x1 PUSH1 0xA0 SHL SUB DUP3 AND DUP3 SUB PUSH3 0x1A1 JUMPI JUMP INVALID PUSH1 0x40 PUSH1 0x80 DUP2 MSTORE PUSH1 0x4 SWAP1 DUP2 CALLDATASIZE LT ISZERO PUSH2 0x15 JUMPI PUSH1 0x0 DUP1 REVERT JUMPDEST PUSH1 0x0 SWAP2 DUP3 CALLDATALOAD PUSH1 0xE0 SHR SWAP1 DUP2 PUSH4 0x1E1D114 EQ PUSH2 0x15EB JUMPI DUP2 PUSH4 0x7A2D13A EQ PUSH2 0x15CB JUMPI DUP2 PUSH4 0x16C38B3C EQ PUSH2 0x1594 JUMPI DUP2 PUSH4 0x2E1A7D4D EQ PUSH2 0x100B JUMPI DUP2 PUSH4 0x40F4520C EQ PUSH2 0xFEE JUMPI DUP2 PUSH4 0x5646B995 EQ PUSH2 0xFD1 JUMPI DUP2 PUSH4 0x5B7C2DAD EQ PUSH2 0xFAB JUMPI DUP2 PUSH4 0x6C9FA59E EQ PUSH2 0xF67 JUMPI DUP2 PUSH4 0x6F307DC3 EQ PUSH2 0xF23 JUMPI DUP2 PUSH4 0x715018A6 EQ PUSH2 0xEC5 JUMPI DUP2 PUSH4 0x715857B0 EQ PUSH2 0xEA7 JUMPI DUP2 PUSH4 0x79664776 EQ PUSH2 0xD8D JUMPI DUP2 PUSH4 0x7D7C2A1C EQ PUSH2 0x8FC JUMPI DUP2 PUSH4 0x87269729 EQ PUSH2 0x8DF JUMPI DUP2 PUSH4 0x8DA5CB5B EQ PUSH2 0x8B6 JUMPI DUP2 PUSH4 0xB187BD26 EQ PUSH2 0x892 JUMPI DUP2 PUSH4 0xC583214C EQ PUSH2 0x834 JUMPI DUP2 PUSH4 0xC6E6F592 EQ PUSH2 0x801 JUMPI DUP2 PUSH4 0xC82B929D EQ PUSH2 0x79D JUMPI DUP2 PUSH4 0xD7EBCE75 EQ PUSH2 0x774 JUMPI DUP4 DUP3 PUSH4 0xDD191719 EQ PUSH2 0x63E JUMPI POP DUP2 PUSH4 0xE2BBB158 EQ PUSH2 0x215 JUMPI DUP2 PUSH4 0xE504D975 EQ PUSH2 0x1EC JUMPI DUP2 PUSH4 0xF2FDE38B EQ PUSH2 0x157 JUMPI POP PUSH4 0xFD967F47 EQ PUSH2 0x138 JUMPI PUSH1 0x0 DUP1 REVERT JUMPDEST CALLVALUE PUSH2 0x153 JUMPI DUP2 PUSH1 0x3 NOT CALLDATASIZE ADD SLT PUSH2 0x153 JUMPI PUSH1 0x20 SWAP1 MLOAD PUSH2 0x2710 DUP2 MSTORE RETURN JUMPDEST POP DUP1 REVERT JUMPDEST SWAP1 POP CALLVALUE PUSH2 0x1E8 JUMPI PUSH1 0x20 CALLDATASIZE PUSH1 0x3 NOT ADD SLT PUSH2 0x1E8 JUMPI PUSH2 0x172 PUSH2 0x1608 JUMP JUMPDEST SWAP1 PUSH2 0x17B PUSH2 0x161E JUMP JUMPDEST PUSH1 0x1 PUSH1 0x1 PUSH1 0xA0 SHL SUB SWAP2 DUP3 AND SWAP3 DUP4 ISZERO PUSH2 0x1D2 JUMPI POP POP PUSH1 0x1 SLOAD DUP3 PUSH12 0xFFFFFFFFFFFFFFFFFFFFFFFF PUSH1 0xA0 SHL DUP3 AND OR PUSH1 0x1 SSTORE AND PUSH32 0x8BE0079C531659141344CD1FD0A4F28419497F9722A3DAAFE3B4186F6B6457E0 PUSH1 0x0 DUP1 LOG3 DUP1 RETURN JUMPDEST MLOAD PUSH4 0x1E4FBDF7 PUSH1 0xE0 SHL DUP2 MSTORE SWAP1 DUP2 ADD DUP5 SWAP1 MSTORE PUSH1 0x24 SWAP1 REVERT JUMPDEST DUP3 DUP1 REVERT JUMPDEST POP POP CALLVALUE PUSH2 0x153 JUMPI DUP2 PUSH1 0x3 NOT CALLDATASIZE ADD SLT PUSH2 0x153 JUMPI PUSH1 0x2 SLOAD SWAP1 MLOAD PUSH1 0x1 PUSH1 0x1 PUSH1 0xA0 SHL SUB SWAP1 SWAP2 AND DUP2 MSTORE PUSH1 0x20 SWAP1 RETURN JUMPDEST SWAP1 POP CALLVALUE PUSH2 0x1E8 JUMPI DUP2 PUSH1 0x3 NOT CALLDATASIZE ADD SLT PUSH2 0x1E8 JUMPI DUP1 CALLDATALOAD SWAP2 PUSH2 0x232 PUSH2 0x1B5B JUMP JUMPDEST PUSH1 0xFF PUSH1 0x5 SLOAD AND PUSH2 0x60B JUMPI PUSH2 0x244 PUSH2 0x1B7E JUMP JUMPDEST DUP1 MLOAD PUSH4 0x70A08231 PUSH1 0xE0 SHL DUP1 DUP3 MSTORE ADDRESS DUP3 DUP6 ADD MSTORE PUSH1 0x1 PUSH1 0x1 PUSH1 0xA0 SHL SUB PUSH32 0x0 DUP2 DUP2 AND SWAP6 SWAP1 SWAP4 PUSH1 0x20 SWAP4 SWAP3 PUSH1 0x24 SWAP2 DUP6 DUP2 DUP5 DUP2 DUP13 GAS STATICCALL SWAP1 DUP2 ISZERO PUSH2 0x601 JUMPI DUP12 SWAP2 PUSH2 0x5D4 JUMPI JUMPDEST POP PUSH1 0x2 SLOAD DUP5 SWAP1 DUP8 SWAP1 DUP5 AND DUP1 ISZERO PUSH2 0x5CB JUMPI DUP11 MLOAD PUSH3 0x787445 PUSH1 0xE2 SHL DUP2 MSTORE SWAP3 DUP4 SWAP2 DUP3 SWAP1 GAS STATICCALL SWAP1 DUP2 ISZERO PUSH2 0x5C1 JUMPI DUP13 SWAP2 PUSH2 0x594 JUMPI JUMPDEST POP JUMPDEST PUSH1 0x3 SLOAD DUP6 SWAP1 DUP9 SWAP1 DUP6 AND DUP15 DUP2 ISZERO PUSH2 0x57D JUMPI POP DUP12 MLOAD PUSH3 0x787445 PUSH1 0xE2 SHL DUP2 MSTORE SWAP3 DUP4 SWAP2 DUP3 SWAP1 GAS STATICCALL SWAP1 DUP2 ISZERO PUSH2 0x573 JUMPI DUP14 SWAP2 PUSH2 0x542 JUMPI JUMPDEST POP PUSH2 0x321 SWAP3 PUSH2 0x31B SWAP3 PUSH2 0x316 SWAP2 PUSH2 0x1696 JUMP JUMPDEST PUSH2 0x1696 JUMP JUMPDEST DUP11 PUSH2 0x188E JUMP JUMPDEST SWAP6 PUSH2 0x32D DUP8 ISZERO ISZERO PUSH2 0x19D9 JUMP JUMPDEST DUP3 CALLDATALOAD DUP8 LT PUSH2 0x50C JUMPI DUP8 MLOAD PUSH4 0x23B872DD PUSH1 0xE0 SHL DUP8 DUP3 ADD MSTORE CALLER DUP5 DUP3 ADD MSTORE ADDRESS PUSH1 0x44 DUP3 ADD MSTORE PUSH1 0x64 DUP1 DUP3 ADD DUP13 SWAP1 MSTORE DUP2 MSTORE SWAP1 PUSH1 0xA0 DUP3 ADD PUSH8 0xFFFFFFFFFFFFFFFF DUP2 GT DUP4 DUP3 LT OR PUSH2 0x4F8 JUMPI DUP10 MSTORE DUP12 SWAP3 SWAP2 PUSH2 0x37E SWAP2 PUSH2 0x1A32 JUMP JUMPDEST PUSH32 0x0 AND DUP1 EXTCODESIZE ISZERO PUSH2 0x153 JUMPI DUP8 MLOAD PUSH4 0x40C10F19 PUSH1 0xE0 SHL DUP2 MSTORE CALLER DUP6 DUP3 ADD SWAP1 DUP2 MSTORE PUSH1 0x20 DUP2 ADD DUP10 SWAP1 MSTORE SWAP1 SWAP2 DUP4 SWAP2 DUP4 SWAP2 SWAP1 DUP3 SWAP1 DUP5 SWAP1 DUP3 SWAP1 PUSH1 0x40 ADD SUB SWAP3 GAS CALL DUP1 ISZERO PUSH2 0x4EE JUMPI SWAP1 DUP7 SWAP5 SWAP4 SWAP3 SWAP2 PUSH2 0x4D1 JUMPI JUMPDEST POP POP PUSH2 0x2710 PUSH2 0x3FE PUSH2 0x3F6 PUSH2 0x16B9 JUMP JUMPDEST DUP5 SLOAD SWAP1 PUSH2 0x185B JUMP JUMPDEST DIV SWAP4 DUP8 MLOAD SWAP9 DUP10 SWAP4 DUP5 SWAP3 DUP4 MSTORE ADDRESS SWAP1 DUP4 ADD MSTORE GAS STATICCALL DUP1 ISZERO PUSH2 0x4C7 JUMPI DUP8 SWAP1 PUSH2 0x475 JUMPI JUMPDEST PUSH32 0x90890809C654F11D6E72A28FA60149770A0D11EC6C92319D6CEB2BB0A4EA1A15 SWAP6 POP DUP2 DUP2 GT PUSH2 0x45C JUMPI JUMPDEST POP POP DUP3 MLOAD SWAP5 DUP6 MSTORE DUP5 ADD MSTORE CALLER SWAP3 LOG2 PUSH1 0x1 DUP2 SSTORE DUP1 RETURN JUMPDEST PUSH2 0x46E SWAP2 PUSH2 0x469 SWAP2 PUSH2 0x1C3D JUMP JUMPDEST PUSH2 0x1C4A JUMP JUMPDEST CODESIZE DUP1 PUSH2 0x448 JUMP JUMPDEST POP DUP2 DUP6 DUP2 RETURNDATASIZE DUP4 GT PUSH2 0x4C0 JUMPI JUMPDEST PUSH2 0x48B DUP2 DUP4 PUSH2 0x1674 JUMP JUMPDEST DUP2 ADD SUB SLT PUSH2 0x4BB JUMPI PUSH32 0x90890809C654F11D6E72A28FA60149770A0D11EC6C92319D6CEB2BB0A4EA1A15 SWAP5 MLOAD PUSH2 0x41D JUMP JUMPDEST PUSH1 0x0 DUP1 REVERT JUMPDEST POP RETURNDATASIZE PUSH2 0x481 JUMP JUMPDEST DUP5 MLOAD RETURNDATASIZE DUP10 DUP3 RETURNDATACOPY RETURNDATASIZE SWAP1 REVERT JUMPDEST PUSH2 0x4DD SWAP2 SWAP3 SWAP5 POP PUSH2 0x164A JUMP JUMPDEST PUSH2 0x4EA JUMPI DUP4 SWAP2 DUP10 CODESIZE PUSH2 0x3E6 JUMP JUMPDEST DUP9 DUP1 REVERT JUMPDEST DUP9 MLOAD RETURNDATASIZE DUP5 DUP3 RETURNDATACOPY RETURNDATASIZE SWAP1 REVERT JUMPDEST DUP5 PUSH1 0x41 DUP8 PUSH4 0x4E487B71 PUSH1 0xE0 SHL PUSH1 0x0 MSTORE MSTORE PUSH1 0x0 REVERT JUMPDEST DUP8 MLOAD PUSH3 0x461BCD PUSH1 0xE5 SHL DUP2 MSTORE DUP1 DUP6 ADD DUP8 SWAP1 MSTORE PUSH1 0x11 DUP2 DUP6 ADD MSTORE PUSH17 0x14DB1A5C1C1859D948195E18D959591959 PUSH1 0x7A SHL PUSH1 0x44 DUP3 ADD MSTORE PUSH1 0x64 SWAP1 REVERT JUMPDEST SWAP3 SWAP1 POP DUP8 DUP4 DUP2 RETURNDATASIZE DUP4 GT PUSH2 0x56C JUMPI JUMPDEST PUSH2 0x55A DUP2 DUP4 PUSH2 0x1674 JUMP JUMPDEST DUP2 ADD SUB SLT PUSH2 0x4BB JUMPI SWAP2 MLOAD PUSH2 0x316 PUSH2 0x304 JUMP JUMPDEST POP RETURNDATASIZE PUSH2 0x550 JUMP JUMPDEST DUP11 MLOAD RETURNDATASIZE DUP16 DUP3 RETURNDATACOPY RETURNDATASIZE SWAP1 REVERT JUMPDEST PUSH2 0x321 SWAP6 SWAP4 POP PUSH2 0x316 SWAP3 POP PUSH2 0x31B SWAP5 SWAP2 POP SWAP3 PUSH2 0x1696 JUMP JUMPDEST SWAP1 POP DUP7 DUP2 DUP2 RETURNDATASIZE DUP4 GT PUSH2 0x5BA JUMPI JUMPDEST PUSH2 0x5AB DUP2 DUP4 PUSH2 0x1674 JUMP JUMPDEST DUP2 ADD SUB SLT PUSH2 0x4BB JUMPI MLOAD CODESIZE PUSH2 0x2D1 JUMP JUMPDEST POP RETURNDATASIZE PUSH2 0x5A1 JUMP JUMPDEST DUP10 MLOAD RETURNDATASIZE DUP15 DUP3 RETURNDATACOPY RETURNDATASIZE SWAP1 REVERT JUMPDEST POP POP POP DUP11 PUSH2 0x2D3 JUMP JUMPDEST SWAP1 POP DUP6 DUP2 DUP2 RETURNDATASIZE DUP4 GT PUSH2 0x5FA JUMPI JUMPDEST PUSH2 0x5EB DUP2 DUP4 PUSH2 0x1674 JUMP JUMPDEST DUP2 ADD SUB SLT PUSH2 0x4BB JUMPI MLOAD CODESIZE PUSH2 0x2A1 JUMP JUMPDEST POP RETURNDATASIZE PUSH2 0x5E1 JUMP JUMPDEST DUP9 MLOAD RETURNDATASIZE DUP14 DUP3 RETURNDATACOPY RETURNDATASIZE SWAP1 REVERT JUMPDEST SWAP1 PUSH1 0x20 PUSH1 0x64 SWAP3 MLOAD SWAP2 PUSH3 0x461BCD PUSH1 0xE5 SHL DUP4 MSTORE DUP3 ADD MSTORE PUSH1 0xD PUSH1 0x24 DUP3 ADD MSTORE PUSH13 0x15985D5B1D0E881C185D5CD959 PUSH1 0x9A SHL PUSH1 0x44 DUP3 ADD MSTORE REVERT JUMPDEST SWAP3 SWAP2 POP CALLVALUE PUSH2 0x770 JUMPI DUP3 PUSH1 0x3 NOT CALLDATASIZE ADD SLT PUSH2 0x770 JUMPI PUSH2 0x659 PUSH2 0x161E JUMP JUMPDEST PUSH1 0x2 SLOAD PUSH1 0x1 PUSH1 0x1 PUSH1 0xA0 SHL SUB SWAP1 DUP5 SWAP1 DUP3 AND DUP1 PUSH2 0x70F JUMPI JUMPDEST POP POP PUSH1 0x3 SLOAD AND DUP1 PUSH2 0x6B0 JUMPI JUMPDEST DUP4 PUSH1 0x1 PUSH1 0xFF NOT PUSH1 0x5 SLOAD AND OR PUSH1 0x5 SSTORE PUSH32 0xCC6A1A065AB514031862E10458CBF117148FF1F8A168CFACAB350E6644C174F0 DUP2 DUP1 LOG1 DUP1 RETURN JUMPDEST PUSH1 0x20 SWAP2 DUP4 MLOAD DUP1 SWAP6 DUP2 SWAP4 PUSH4 0x36CB886F PUSH1 0xE2 SHL DUP4 MSTORE GAS CALL SWAP1 DUP2 ISZERO PUSH2 0x706 JUMPI POP PUSH2 0x6DB JUMPI JUMPDEST DUP1 DUP1 DUP4 SWAP3 PUSH2 0x67B JUMP JUMPDEST PUSH1 0x20 SWAP1 DUP2 RETURNDATASIZE DUP2 GT PUSH2 0x6FF JUMPI JUMPDEST PUSH2 0x6F1 DUP2 DUP4 PUSH2 0x1674 JUMP JUMPDEST DUP2 ADD SUB SLT PUSH2 0x4BB JUMPI CODESIZE PUSH2 0x6D2 JUMP JUMPDEST POP RETURNDATASIZE PUSH2 0x6E7 JUMP JUMPDEST MLOAD RETURNDATASIZE DUP5 DUP3 RETURNDATACOPY RETURNDATASIZE SWAP1 REVERT JUMPDEST PUSH1 0x20 SWAP1 DUP5 DUP7 MLOAD DUP1 SWAP5 DUP2 SWAP4 PUSH4 0x36CB886F PUSH1 0xE2 SHL DUP4 MSTORE GAS CALL DUP1 ISZERO PUSH2 0x766 JUMPI PUSH2 0x737 JUMPI JUMPDEST DUP5 SWAP1 PUSH2 0x66F JUMP JUMPDEST PUSH1 0x20 DUP1 SWAP3 SWAP6 POP RETURNDATASIZE DUP2 GT PUSH2 0x75F JUMPI JUMPDEST PUSH2 0x74F DUP2 DUP4 PUSH2 0x1674 JUMP JUMPDEST DUP2 ADD SUB SLT PUSH2 0x4BB JUMPI DUP4 SWAP3 CODESIZE PUSH2 0x730 JUMP JUMPDEST POP RETURNDATASIZE PUSH2 0x745 JUMP JUMPDEST DUP5 MLOAD RETURNDATASIZE DUP8 DUP3 RETURNDATACOPY RETURNDATASIZE SWAP1 REVERT JUMPDEST POP POP REVERT JUMPDEST POP POP CALLVALUE PUSH2 0x153 JUMPI DUP2 PUSH1 0x3 NOT CALLDATASIZE ADD SLT PUSH2 0x153 JUMPI PUSH1 0x3 SLOAD SWAP1 MLOAD PUSH1 0x1 PUSH1 0x1 PUSH1 0xA0 SHL SUB SWAP1 SWAP2 AND DUP2 MSTORE PUSH1 0x20 SWAP1 RETURN JUMPDEST SWAP1 POP CALLVALUE PUSH2 0x1E8 JUMPI PUSH1 0x20 CALLDATASIZE PUSH1 0x3 NOT ADD SLT PUSH2 0x1E8 JUMPI DUP1 CALLDATALOAD SWAP2 PUSH2 0x7BB PUSH2 0x161E JUMP JUMPDEST PUSH2 0x2710 DUP4 GT PUSH2 0x7C9 JUMPI POP SSTORE DUP1 RETURN JUMPDEST SWAP1 PUSH1 0x20 PUSH1 0x64 SWAP3 MLOAD SWAP2 PUSH3 0x461BCD PUSH1 0xE5 SHL DUP4 MSTORE DUP3 ADD MSTORE PUSH1 0x12 PUSH1 0x24 DUP3 ADD MSTORE PUSH18 0x5661756C743A20696E76616C696420627073 PUSH1 0x70 SHL PUSH1 0x44 DUP3 ADD MSTORE REVERT JUMPDEST DUP3 DUP5 CALLVALUE PUSH2 0x831 JUMPI PUSH1 0x20 CALLDATASIZE PUSH1 0x3 NOT ADD SLT PUSH2 0x831 JUMPI POP PUSH2 0x82A PUSH1 0x20 SWAP3 PUSH2 0x823 PUSH2 0x16B9 JUMP JUMPDEST SWAP1 CALLDATALOAD PUSH2 0x188E JUMP JUMPDEST SWAP1 MLOAD SWAP1 DUP2 MSTORE RETURN JUMPDEST DUP1 REVERT JUMPDEST POP POP CALLVALUE PUSH2 0x153 JUMPI CALLDATASIZE PUSH1 0x3 NOT ADD SLT PUSH2 0x831 JUMPI PUSH2 0x84D PUSH2 0x1608 JUMP JUMPDEST PUSH1 0x24 CALLDATALOAD PUSH1 0x1 PUSH1 0x1 PUSH1 0xA0 SHL SUB DUP2 DUP2 AND SWAP3 SWAP2 DUP4 SWAP1 SUB PUSH2 0x4BB JUMPI PUSH2 0x86C PUSH2 0x161E JUMP JUMPDEST PUSH12 0xFFFFFFFFFFFFFFFFFFFFFFFF PUSH1 0xA0 SHL SWAP2 AND DUP2 PUSH1 0x2 SLOAD AND OR PUSH1 0x2 SSTORE PUSH1 0x3 SLOAD AND OR PUSH1 0x3 SSTORE DUP1 RETURN JUMPDEST POP POP CALLVALUE PUSH2 0x153 JUMPI DUP2 PUSH1 0x3 NOT CALLDATASIZE ADD SLT PUSH2 0x153 JUMPI PUSH1 0x20 SWAP1 PUSH1 0xFF PUSH1 0x5 SLOAD AND SWAP1 MLOAD SWAP1 ISZERO ISZERO DUP2 MSTORE RETURN JUMPDEST POP POP CALLVALUE PUSH2 0x153 JUMPI DUP2 PUSH1 0x3 NOT CALLDATASIZE ADD SLT PUSH2 0x153 JUMPI PUSH1 0x1 SLOAD SWAP1 MLOAD PUSH1 0x1 PUSH1 0x1 PUSH1 0xA0 SHL SUB SWAP1 SWAP2 AND DUP2 MSTORE PUSH1 0x20 SWAP1 RETURN JUMPDEST POP POP CALLVALUE PUSH2 0x153 JUMPI DUP2 PUSH1 0x3 NOT CALLDATASIZE ADD SLT PUSH2 0x153 JUMPI PUSH1 0x20 SWAP1 PUSH2 0x82A PUSH2 0x1F6E JUMP JUMPDEST SWAP2 SWAP1 POP CALLVALUE PUSH2 0x1E8 JUMPI DUP3 PUSH1 0x3 NOT CALLDATASIZE ADD SLT PUSH2 0x1E8 JUMPI PUSH2 0x917 PUSH2 0x161E JUMP JUMPDEST PUSH2 0x91F PUSH2 0x1B7E JUMP JUMPDEST PUSH2 0x2710 PUSH2 0x92D PUSH2 0x3F6 PUSH2 0x16B9 JUMP JUMPDEST DUP3 MLOAD PUSH4 0x70A08231 PUSH1 0xE0 SHL DUP2 MSTORE ADDRESS DUP6 DUP3 ADD MSTORE PUSH1 0x1 PUSH1 0x1 PUSH1 0xA0 SHL SUB SWAP3 PUSH1 0x20 SWAP3 DIV SWAP1 DUP3 DUP2 PUSH1 0x24 DUP2 PUSH32 0x0 DUP9 AND GAS STATICCALL SWAP1 DUP2 ISZERO PUSH2 0xD83 JUMPI DUP8 SWAP2 PUSH2 0xD56 JUMPI JUMPDEST POP DUP2 DUP2 GT ISZERO PUSH2 0xAEA JUMPI PUSH2 0x99A SWAP2 PUSH2 0x469 SWAP2 PUSH2 0x1C3D JUMP JUMPDEST PUSH1 0x2 SLOAD DUP5 SWAP1 DUP3 SWAP1 DUP5 AND DUP1 ISZERO PUSH2 0xAE0 JUMPI DUP6 MLOAD PUSH3 0x787445 PUSH1 0xE2 SHL DUP2 MSTORE SWAP3 DUP4 SWAP2 DUP3 SWAP1 GAS STATICCALL SWAP1 DUP2 ISZERO PUSH2 0xAD6 JUMPI DUP7 SWAP2 PUSH2 0xAA9 JUMPI JUMPDEST POP SWAP2 JUMPDEST PUSH1 0x3 SLOAD AND DUP1 ISZERO PUSH2 0xA7E JUMPI DUP2 SWAP1 DUP5 MLOAD SWAP6 DUP7 DUP1 SWAP3 PUSH3 0x787445 PUSH1 0xE2 SHL DUP3 MSTORE GAS STATICCALL DUP1 ISZERO PUSH2 0xA74 JUMPI DUP6 SWAP1 PUSH2 0xA27 JUMPI JUMPDEST PUSH32 0xB33D39BBEF101ECC4F5EF04E6D3A125C9FB745A418DAC380E2A9460F8200DC8 SWAP5 POP SWAP1 JUMPDEST DUP4 MLOAD SWAP3 DUP4 MSTORE DUP3 ADD MSTORE LOG1 DUP1 RETURN JUMPDEST POP DUP1 DUP5 DUP2 RETURNDATASIZE DUP4 GT PUSH2 0xA6D JUMPI JUMPDEST PUSH2 0xA3D DUP2 DUP4 PUSH2 0x1674 JUMP JUMPDEST DUP2 ADD SUB SLT PUSH2 0x4BB JUMPI PUSH32 0xB33D39BBEF101ECC4F5EF04E6D3A125C9FB745A418DAC380E2A9460F8200DC8 SWAP4 MLOAD PUSH2 0x9F6 JUMP JUMPDEST POP RETURNDATASIZE PUSH2 0xA33 JUMP JUMPDEST DUP4 MLOAD RETURNDATASIZE DUP8 DUP3 RETURNDATACOPY RETURNDATASIZE SWAP1 REVERT JUMPDEST POP PUSH32 0xB33D39BBEF101ECC4F5EF04E6D3A125C9FB745A418DAC380E2A9460F8200DC8 SWAP4 POP DUP5 SWAP1 PUSH2 0xA1B JUMP JUMPDEST SWAP1 POP DUP2 DUP2 DUP2 RETURNDATASIZE DUP4 GT PUSH2 0xACF JUMPI JUMPDEST PUSH2 0xAC0 DUP2 DUP4 PUSH2 0x1674 JUMP JUMPDEST DUP2 ADD SUB SLT PUSH2 0x4BB JUMPI MLOAD CODESIZE PUSH2 0x9C9 JUMP JUMPDEST POP RETURNDATASIZE PUSH2 0xAB6 JUMP JUMPDEST DUP5 MLOAD RETURNDATASIZE DUP9 DUP3 RETURNDATACOPY RETURNDATASIZE SWAP1 REVERT JUMPDEST POP POP POP DUP5 SWAP2 PUSH2 0x9CC JUMP JUMPDEST DUP2 DUP2 LT PUSH2 0xAF9 JUMPI JUMPDEST POP POP PUSH2 0x99A JUMP JUMPDEST PUSH2 0xB02 SWAP2 PUSH2 0x1C3D JUMP JUMPDEST DUP3 PUSH1 0x2 SLOAD AND DUP1 PUSH2 0xC7C JUMPI JUMPDEST POP DUP1 ISZERO ISZERO DUP1 PUSH2 0xC6F JUMPI JUMPDEST PUSH2 0xB7C JUMPI JUMPDEST PUSH2 0xB27 JUMPI CODESIZE DUP1 PUSH2 0xAF2 JUMP JUMPDEST DUP4 PUSH1 0x84 SWAP2 DUP5 MLOAD SWAP2 PUSH3 0x461BCD PUSH1 0xE5 SHL DUP4 MSTORE DUP3 ADD MSTORE PUSH1 0x2A PUSH1 0x24 DUP3 ADD MSTORE PUSH32 0x5661756C743A20696E73756666696369656E74206C697175696469747920746F PUSH1 0x44 DUP3 ADD MSTORE PUSH10 0x20726562616C616E6365 PUSH1 0xB0 SHL PUSH1 0x64 DUP3 ADD MSTORE REVERT JUMPDEST DUP3 PUSH1 0x3 SLOAD AND DUP7 DUP6 MLOAD PUSH3 0x787445 PUSH1 0xE2 SHL DUP2 MSTORE DUP5 DUP2 DUP10 DUP2 DUP7 GAS STATICCALL SWAP1 DUP2 ISZERO PUSH2 0xC65 JUMPI SWAP1 DUP6 SWAP2 DUP4 SWAP2 PUSH2 0xC35 JUMPI JUMPDEST POP DUP1 DUP6 GT ISZERO PUSH2 0xC2D JUMPI SWAP3 JUMPDEST DUP4 PUSH2 0xBBF JUMPI JUMPDEST POP POP POP POP PUSH2 0xB1C JUMP JUMPDEST PUSH1 0x24 DUP9 MLOAD DUP1 SWAP5 DUP2 SWAP4 PUSH4 0x2E1A7D4D PUSH1 0xE0 SHL DUP4 MSTORE DUP8 DUP14 DUP5 ADD MSTORE GAS CALL DUP1 ISZERO PUSH2 0xC23 JUMPI SWAP1 DUP5 SWAP2 PUSH2 0xBFA JUMPI JUMPDEST POP POP PUSH2 0xBF1 SWAP2 PUSH2 0x1C3D JUMP JUMPDEST CODESIZE DUP7 DUP4 DUP3 PUSH2 0xBB6 JUMP JUMPDEST DUP2 RETURNDATASIZE DUP4 GT PUSH2 0xC1C JUMPI JUMPDEST PUSH2 0xC0D DUP2 DUP4 PUSH2 0x1674 JUMP JUMPDEST DUP2 ADD SUB SLT PUSH2 0x4BB JUMPI DUP3 CODESIZE PUSH2 0xBE6 JUMP JUMPDEST POP RETURNDATASIZE PUSH2 0xC03 JUMP JUMPDEST DUP7 MLOAD RETURNDATASIZE DUP11 DUP3 RETURNDATACOPY RETURNDATASIZE SWAP1 REVERT JUMPDEST POP DUP4 SWAP3 PUSH2 0xBB0 JUMP JUMPDEST SWAP3 POP POP DUP2 DUP2 RETURNDATASIZE DUP4 GT PUSH2 0xC5E JUMPI JUMPDEST PUSH2 0xC4C DUP2 DUP4 PUSH2 0x1674 JUMP JUMPDEST DUP2 ADD SUB SLT PUSH2 0x4BB JUMPI DUP4 DUP9 SWAP2 MLOAD CODESIZE PUSH2 0xBA5 JUMP JUMPDEST POP RETURNDATASIZE PUSH2 0xC42 JUMP JUMPDEST DUP8 MLOAD RETURNDATASIZE DUP5 DUP3 RETURNDATACOPY RETURNDATASIZE SWAP1 REVERT JUMPDEST POP DUP3 PUSH1 0x3 SLOAD AND ISZERO ISZERO PUSH2 0xB17 JUMP JUMPDEST DUP5 MLOAD PUSH3 0x787445 PUSH1 0xE2 SHL DUP2 MSTORE DUP8 SWAP1 DUP5 DUP2 DUP10 DUP2 DUP7 GAS STATICCALL SWAP1 DUP2 ISZERO PUSH2 0xC65 JUMPI SWAP1 DUP6 SWAP2 DUP4 SWAP2 PUSH2 0xD26 JUMPI JUMPDEST POP DUP1 DUP6 GT ISZERO PUSH2 0xD1E JUMPI SWAP3 JUMPDEST DUP4 PUSH2 0xCBA JUMPI JUMPDEST POP POP POP PUSH2 0xB0D JUMP JUMPDEST PUSH1 0x24 DUP9 MLOAD DUP1 SWAP5 DUP2 SWAP4 PUSH4 0x2E1A7D4D PUSH1 0xE0 SHL DUP4 MSTORE DUP8 DUP14 DUP5 ADD MSTORE GAS CALL DUP1 ISZERO PUSH2 0xC23 JUMPI SWAP1 DUP5 SWAP2 PUSH2 0xCF5 JUMPI JUMPDEST POP POP PUSH2 0xCEC SWAP2 PUSH2 0x1C3D JUMP JUMPDEST CODESIZE DUP7 DUP4 DUP3 PUSH2 0xCB2 JUMP JUMPDEST DUP2 RETURNDATASIZE DUP4 GT PUSH2 0xD17 JUMPI JUMPDEST PUSH2 0xD08 DUP2 DUP4 PUSH2 0x1674 JUMP JUMPDEST DUP2 ADD SUB SLT PUSH2 0x4BB JUMPI DUP3 CODESIZE PUSH2 0xCE1 JUMP JUMPDEST POP RETURNDATASIZE PUSH2 0xCFE JUMP JUMPDEST POP DUP4 SWAP3 PUSH2 0xCAC JUMP JUMPDEST SWAP3 POP POP DUP2 DUP2 RETURNDATASIZE DUP4 GT PUSH2 0xD4F JUMPI JUMPDEST PUSH2 0xD3D DUP2 DUP4 PUSH2 0x1674 JUMP JUMPDEST DUP2 ADD SUB SLT PUSH2 0x4BB JUMPI DUP4 DUP9 SWAP2 MLOAD CODESIZE PUSH2 0xCA1 JUMP JUMPDEST POP RETURNDATASIZE PUSH2 0xD33 JUMP JUMPDEST SWAP1 POP DUP3 DUP2 DUP2 RETURNDATASIZE DUP4 GT PUSH2 0xD7C JUMPI JUMPDEST PUSH2 0xD6D DUP2 DUP4 PUSH2 0x1674 JUMP JUMPDEST DUP2 ADD SUB SLT PUSH2 0x4BB JUMPI MLOAD CODESIZE PUSH2 0x984 JUMP JUMPDEST POP RETURNDATASIZE PUSH2 0xD63 JUMP JUMPDEST DUP6 MLOAD RETURNDATASIZE DUP10 DUP3 RETURNDATACOPY RETURNDATASIZE SWAP1 REVERT JUMPDEST DUP4 SWAP2 POP CALLVALUE PUSH2 0x153 JUMPI DUP2 PUSH1 0x3 NOT CALLDATASIZE ADD SLT PUSH2 0x153 JUMPI PUSH1 0x2 SLOAD DUP3 SWAP2 DUP3 SWAP2 PUSH1 0x1 PUSH1 0x1 PUSH1 0xA0 SHL SUB SWAP1 DUP2 AND DUP1 PUSH2 0xE3C JUMPI JUMPDEST POP PUSH1 0x3 SLOAD AND DUP1 PUSH2 0xDD2 JUMPI JUMPDEST POP POP POP DUP3 MLOAD SWAP2 DUP3 MSTORE PUSH1 0x20 DUP3 ADD MSTORE RETURN JUMPDEST DUP6 MLOAD PUSH4 0x51618ED3 PUSH1 0xE0 SHL DUP2 MSTORE SWAP3 SWAP4 POP PUSH1 0x20 SWAP2 DUP4 SWAP2 DUP3 SWAP1 GAS STATICCALL SWAP2 DUP3 ISZERO PUSH2 0xE31 JUMPI SWAP2 PUSH2 0xE00 JUMPI JUMPDEST POP DUP4 DUP1 DUP1 PUSH2 0xDC3 JUMP JUMPDEST SWAP1 POP PUSH1 0x20 DUP2 RETURNDATASIZE DUP3 GT PUSH2 0xE29 JUMPI JUMPDEST DUP2 PUSH2 0xE1A PUSH1 0x20 SWAP4 DUP4 PUSH2 0x1674 JUMP JUMPDEST DUP2 ADD SUB SLT PUSH2 0x4BB JUMPI MLOAD DUP4 PUSH2 0xDF7 JUMP JUMPDEST RETURNDATASIZE SWAP2 POP PUSH2 0xE0D JUMP JUMPDEST DUP5 MLOAD SWAP1 RETURNDATASIZE SWAP1 DUP3 RETURNDATACOPY RETURNDATASIZE SWAP1 REVERT JUMPDEST DUP7 MLOAD PUSH4 0x51618ED3 PUSH1 0xE0 SHL DUP2 MSTORE SWAP2 SWAP6 POP PUSH1 0x20 SWAP1 DUP3 SWAP1 DUP5 SWAP1 DUP3 SWAP1 GAS STATICCALL SWAP1 DUP2 ISZERO PUSH2 0xE9D JUMPI DUP4 SWAP2 PUSH2 0xE6C JUMPI JUMPDEST POP SWAP4 DUP7 PUSH2 0xDB8 JUMP JUMPDEST SWAP1 POP PUSH1 0x20 DUP2 RETURNDATASIZE DUP3 GT PUSH2 0xE95 JUMPI JUMPDEST DUP2 PUSH2 0xE86 PUSH1 0x20 SWAP4 DUP4 PUSH2 0x1674 JUMP JUMPDEST DUP2 ADD SUB SLT PUSH2 0x4BB JUMPI MLOAD DUP7 PUSH2 0xE64 JUMP JUMPDEST RETURNDATASIZE SWAP2 POP PUSH2 0xE79 JUMP JUMPDEST DUP7 MLOAD RETURNDATASIZE DUP6 DUP3 RETURNDATACOPY RETURNDATASIZE SWAP1 REVERT JUMPDEST SWAP1 POP CALLVALUE PUSH2 0x1E8 JUMPI DUP3 PUSH1 0x3 NOT CALLDATASIZE ADD SLT PUSH2 0x1E8 JUMPI PUSH1 0x20 SWAP3 POP SLOAD SWAP1 MLOAD SWAP1 DUP2 MSTORE RETURN JUMPDEST DUP4 CALLVALUE PUSH2 0x831 JUMPI DUP1 PUSH1 0x3 NOT CALLDATASIZE ADD SLT PUSH2 0x831 JUMPI PUSH2 0xEDE PUSH2 0x161E JUMP JUMPDEST PUSH1 0x1 DUP1 SLOAD PUSH1 0x1 PUSH1 0x1 PUSH1 0xA0 SHL SUB NOT DUP2 AND SWAP1 SWAP2 SSTORE PUSH1 0x0 SWAP1 PUSH1 0x1 PUSH1 0x1 PUSH1 0xA0 SHL SUB AND PUSH32 0x8BE0079C531659141344CD1FD0A4F28419497F9722A3DAAFE3B4186F6B6457E0 DUP3 DUP1 LOG3 DUP1 RETURN JUMPDEST POP POP CALLVALUE PUSH2 0x153 JUMPI DUP2 PUSH1 0x3 NOT CALLDATASIZE ADD SLT PUSH2 0x153 JUMPI MLOAD PUSH32 0x0 PUSH1 0x1 PUSH1 0x1 PUSH1 0xA0 SHL SUB AND DUP2 MSTORE PUSH1 0x20 SWAP1 RETURN JUMPDEST POP POP CALLVALUE PUSH2 0x153 JUMPI DUP2 PUSH1 0x3 NOT CALLDATASIZE ADD SLT PUSH2 0x153 JUMPI MLOAD PUSH32 0x0 PUSH1 0x1 PUSH1 0x1 PUSH1 0xA0 SHL SUB AND DUP2 MSTORE PUSH1 0x20 SWAP1 RETURN JUMPDEST POP POP CALLVALUE PUSH2 0x153 JUMPI PUSH1 0x20 CALLDATASIZE PUSH1 0x3 NOT ADD SLT PUSH2 0x153 JUMPI PUSH1 0x20 SWAP1 PUSH2 0x82A PUSH2 0xFCC PUSH2 0x1608 JUMP JUMPDEST PUSH2 0x202D JUMP JUMPDEST POP POP CALLVALUE PUSH2 0x153 JUMPI DUP2 PUSH1 0x3 NOT CALLDATASIZE ADD SLT PUSH2 0x153 JUMPI PUSH1 0x20 SWAP1 MLOAD PUSH2 0x1B58 DUP2 MSTORE RETURN JUMPDEST POP POP CALLVALUE PUSH2 0x153 JUMPI DUP2 PUSH1 0x3 NOT CALLDATASIZE ADD SLT PUSH2 0x153 JUMPI PUSH1 0x20 SWAP1 MLOAD PUSH2 0xBB8 DUP2 MSTORE RETURN JUMPDEST SWAP2 SWAP1 POP CALLVALUE PUSH2 0x1E8 JUMPI PUSH1 0x20 DUP1 PUSH1 0x3 NOT CALLDATASIZE ADD SLT PUSH2 0x1590 JUMPI DUP3 CALLDATALOAD SWAP1 PUSH2 0x102B PUSH2 0x1B5B JUMP JUMPDEST PUSH2 0x1033 PUSH2 0x1B7E JUMP JUMPDEST PUSH2 0x103E DUP3 ISZERO ISZERO PUSH2 0x19D9 JUMP JUMPDEST DUP3 MLOAD PUSH4 0x70A08231 PUSH1 0xE0 SHL DUP1 DUP3 MSTORE CALLER DUP7 DUP4 ADD MSTORE PUSH1 0x1 PUSH1 0x1 PUSH1 0xA0 SHL SUB PUSH32 0x0 DUP2 AND SWAP7 SWAP2 SWAP3 PUSH1 0x24 SWAP3 SWAP2 SWAP1 DUP6 DUP2 DUP6 DUP2 DUP13 GAS STATICCALL SWAP1 DUP2 ISZERO PUSH2 0x148F JUMPI SWAP1 DUP8 SWAP2 DUP12 SWAP2 PUSH2 0x155F JUMPI JUMPDEST POP LT PUSH2 0x151E JUMPI PUSH2 0x10B2 PUSH2 0x10AC PUSH2 0x16B9 JUMP JUMPDEST DUP8 PUSH2 0x185B JUMP JUMPDEST DUP8 MLOAD PUSH4 0x18160DDD PUSH1 0xE0 SHL DUP2 MSTORE SWAP1 DUP7 DUP3 DUP6 DUP2 DUP14 GAS STATICCALL SWAP1 DUP2 ISZERO PUSH2 0x1318 JUMPI DUP12 SWAP2 PUSH2 0x14E9 JUMPI JUMPDEST PUSH2 0x10DE SWAP3 POP PUSH2 0x186E JUMP JUMPDEST SWAP8 DUP9 ISZERO PUSH2 0x14B0 JUMPI DUP1 EXTCODESIZE ISZERO PUSH2 0x14AC JUMPI DUP8 MLOAD PUSH4 0x2770A7EB PUSH1 0xE2 SHL DUP2 MSTORE CALLER DUP5 DUP3 ADD SWAP1 DUP2 MSTORE PUSH1 0x20 DUP2 ADD DUP10 SWAP1 MSTORE SWAP1 SWAP2 DUP12 SWAP2 DUP4 SWAP2 SWAP1 DUP3 SWAP1 DUP5 SWAP1 DUP3 SWAP1 PUSH1 0x40 ADD SUB SWAP3 GAS CALL DUP1 ISZERO PUSH2 0x148F JUMPI PUSH2 0x1499 JUMPI JUMPDEST POP PUSH32 0x0 SWAP4 DUP8 MLOAD SWAP1 DUP2 MSTORE ADDRESS DUP4 DUP3 ADD MSTORE DUP6 DUP2 DUP6 DUP2 DUP6 DUP10 AND GAS STATICCALL SWAP1 DUP2 ISZERO PUSH2 0x148F JUMPI SWAP1 DUP10 SWAP6 SWAP5 SWAP4 SWAP3 SWAP2 DUP12 SWAP2 PUSH2 0x145E JUMPI JUMPDEST POP DUP6 DUP2 LT PUSH2 0x11F2 JUMPI JUMPDEST POP POP DUP7 MLOAD PUSH4 0xA9059CBB PUSH1 0xE0 SHL DUP2 DUP8 ADD MSTORE CALLER SWAP3 DUP2 ADD SWAP3 DUP4 MSTORE PUSH1 0x20 DUP4 ADD SWAP5 SWAP1 SWAP5 MSTORE POP PUSH32 0xF279E6A1F5E320CCA91135676D9CB6E44CA8A08C0B88342BCDB1144F6511B568 SWAP6 SWAP5 SWAP4 SWAP3 PUSH2 0x11E0 SWAP3 SWAP1 SWAP2 PUSH2 0x11DB SWAP1 DUP4 SWAP1 PUSH1 0x40 ADD SUB PUSH1 0x1F NOT DUP2 ADD DUP5 MSTORE DUP4 PUSH2 0x1674 JUMP JUMPDEST PUSH2 0x1A32 JUMP JUMPDEST DUP3 MLOAD SWAP5 DUP6 MSTORE DUP5 ADD MSTORE CALLER SWAP3 LOG2 PUSH1 0x1 DUP2 SSTORE DUP1 RETURN JUMPDEST PUSH2 0x11FF SWAP2 SWAP3 SWAP4 SWAP5 SWAP6 PUSH2 0x1C3D JUMP JUMPDEST DUP2 PUSH1 0x2 SLOAD AND DUP1 PUSH2 0x1371 JUMPI JUMPDEST POP SWAP1 DUP2 ISZERO ISZERO DUP1 PUSH2 0x1364 JUMPI JUMPDEST PUSH2 0x1274 JUMPI JUMPDEST POP PUSH2 0x122A JUMPI SWAP1 DUP2 DUP1 DUP9 SWAP5 SWAP4 PUSH2 0x1179 JUMP JUMPDEST PUSH1 0x21 PUSH1 0x84 SWAP3 DUP6 DUP9 MLOAD SWAP4 PUSH3 0x461BCD PUSH1 0xE5 SHL DUP6 MSTORE DUP5 ADD MSTORE DUP3 ADD MSTORE PUSH32 0x5661756C743A207374726174656779207769746864726177616C206661696C65 PUSH1 0x44 DUP3 ADD MSTORE PUSH1 0x19 PUSH1 0xFA SHL PUSH1 0x64 DUP3 ADD MSTORE REVERT JUMPDEST PUSH1 0x3 SLOAD AND DUP10 DUP9 MLOAD PUSH3 0x787445 PUSH1 0xE2 SHL DUP2 MSTORE DUP8 DUP2 DUP7 DUP2 DUP7 GAS STATICCALL SWAP1 DUP2 ISZERO PUSH2 0x135A JUMPI SWAP1 DUP9 SWAP2 DUP4 SWAP2 PUSH2 0x132A JUMPI JUMPDEST POP DUP1 DUP6 GT ISZERO PUSH2 0x1322 JUMPI SWAP3 JUMPDEST DUP4 PUSH2 0x12B5 JUMPI JUMPDEST POP POP POP PUSH2 0x121A JUMP JUMPDEST DUP7 DUP12 MLOAD DUP1 SWAP5 DUP2 SWAP4 PUSH4 0x2E1A7D4D PUSH1 0xE0 SHL DUP4 MSTORE DUP8 DUP11 DUP5 ADD MSTORE GAS CALL DUP1 ISZERO PUSH2 0x1318 JUMPI SWAP1 DUP8 SWAP2 PUSH2 0x12EF JUMPI JUMPDEST POP POP PUSH2 0x12E6 SWAP2 PUSH2 0x1C3D JUMP JUMPDEST CODESIZE DUP10 DUP7 DUP3 PUSH2 0x12AD JUMP JUMPDEST DUP2 RETURNDATASIZE DUP4 GT PUSH2 0x1311 JUMPI JUMPDEST PUSH2 0x1302 DUP2 DUP4 PUSH2 0x1674 JUMP JUMPDEST DUP2 ADD SUB SLT PUSH2 0x4BB JUMPI DUP6 CODESIZE PUSH2 0x12DB JUMP JUMPDEST POP RETURNDATASIZE PUSH2 0x12F8 JUMP JUMPDEST DUP10 MLOAD RETURNDATASIZE DUP14 DUP3 RETURNDATACOPY RETURNDATASIZE SWAP1 REVERT JUMPDEST POP DUP4 SWAP3 PUSH2 0x12A7 JUMP JUMPDEST SWAP3 POP POP DUP2 DUP2 RETURNDATASIZE DUP4 GT PUSH2 0x1353 JUMPI JUMPDEST PUSH2 0x1341 DUP2 DUP4 PUSH2 0x1674 JUMP JUMPDEST DUP2 ADD SUB SLT PUSH2 0x4BB JUMPI DUP7 DUP12 SWAP2 MLOAD CODESIZE PUSH2 0x129C JUMP JUMPDEST POP RETURNDATASIZE PUSH2 0x1337 JUMP JUMPDEST DUP11 MLOAD RETURNDATASIZE DUP5 DUP3 RETURNDATACOPY RETURNDATASIZE SWAP1 REVERT JUMPDEST POP DUP1 PUSH1 0x3 SLOAD AND ISZERO ISZERO PUSH2 0x1215 JUMP JUMPDEST DUP9 MLOAD PUSH3 0x787445 PUSH1 0xE2 SHL DUP2 MSTORE DUP12 SWAP1 DUP9 DUP2 DUP8 DUP2 DUP7 GAS STATICCALL SWAP1 DUP2 ISZERO PUSH2 0x1454 JUMPI SWAP1 DUP10 SWAP2 DUP4 SWAP2 PUSH2 0x1424 JUMPI JUMPDEST POP DUP1 DUP6 GT ISZERO PUSH2 0x141C JUMPI SWAP3 JUMPDEST DUP4 PUSH2 0x13AF JUMPI JUMPDEST POP POP POP PUSH2 0x120A JUMP JUMPDEST DUP8 DUP13 MLOAD DUP1 SWAP5 DUP2 SWAP4 PUSH4 0x2E1A7D4D PUSH1 0xE0 SHL DUP4 MSTORE DUP8 DUP12 DUP5 ADD MSTORE GAS CALL DUP1 ISZERO PUSH2 0x1412 JUMPI SWAP1 DUP9 SWAP2 PUSH2 0x13E9 JUMPI JUMPDEST POP POP PUSH2 0x13E0 SWAP2 PUSH2 0x1C3D JUMP JUMPDEST CODESIZE DUP11 DUP8 DUP3 PUSH2 0x13A7 JUMP JUMPDEST DUP2 RETURNDATASIZE DUP4 GT PUSH2 0x140B JUMPI JUMPDEST PUSH2 0x13FC DUP2 DUP4 PUSH2 0x1674 JUMP JUMPDEST DUP2 ADD SUB SLT PUSH2 0x4BB JUMPI DUP7 CODESIZE PUSH2 0x13D5 JUMP JUMPDEST POP RETURNDATASIZE PUSH2 0x13F2 JUMP JUMPDEST DUP11 MLOAD RETURNDATASIZE DUP15 DUP3 RETURNDATACOPY RETURNDATASIZE SWAP1 REVERT JUMPDEST POP DUP4 SWAP3 PUSH2 0x13A1 JUMP JUMPDEST SWAP3 POP POP DUP2 DUP2 RETURNDATASIZE DUP4 GT PUSH2 0x144D JUMPI JUMPDEST PUSH2 0x143B DUP2 DUP4 PUSH2 0x1674 JUMP JUMPDEST DUP2 ADD SUB SLT PUSH2 0x4BB JUMPI DUP8 DUP13 SWAP2 MLOAD CODESIZE PUSH2 0x1396 JUMP JUMPDEST POP RETURNDATASIZE PUSH2 0x1431 JUMP JUMPDEST DUP12 MLOAD RETURNDATASIZE DUP5 DUP3 RETURNDATACOPY RETURNDATASIZE SWAP1 REVERT JUMPDEST DUP1 SWAP7 POP DUP8 DUP1 SWAP3 POP RETURNDATASIZE DUP4 GT PUSH2 0x1488 JUMPI JUMPDEST PUSH2 0x1477 DUP2 DUP4 PUSH2 0x1674 JUMP JUMPDEST DUP2 ADD SUB SLT PUSH2 0x4BB JUMPI DUP9 SWAP5 MLOAD CODESIZE PUSH2 0x1170 JUMP JUMPDEST POP RETURNDATASIZE PUSH2 0x146D JUMP JUMPDEST DUP9 MLOAD RETURNDATASIZE DUP13 DUP3 RETURNDATACOPY RETURNDATASIZE SWAP1 REVERT JUMPDEST PUSH2 0x14A5 SWAP1 SWAP10 SWAP2 SWAP10 PUSH2 0x164A JUMP JUMPDEST SWAP8 CODESIZE PUSH2 0x1125 JUMP JUMPDEST DUP10 DUP1 REVERT JUMPDEST DUP8 MLOAD PUSH3 0x461BCD PUSH1 0xE5 SHL DUP2 MSTORE DUP1 DUP5 ADD DUP8 SWAP1 MSTORE PUSH1 0x14 DUP2 DUP7 ADD MSTORE PUSH20 0x5661756C743A207A65726F207769746864726177 PUSH1 0x60 SHL PUSH1 0x44 DUP3 ADD MSTORE PUSH1 0x64 SWAP1 REVERT JUMPDEST SWAP1 POP DUP7 DUP3 DUP2 RETURNDATASIZE DUP4 GT PUSH2 0x1517 JUMPI JUMPDEST PUSH2 0x1500 DUP2 DUP4 PUSH2 0x1674 JUMP JUMPDEST DUP2 ADD SUB SLT PUSH2 0x1513 JUMPI PUSH2 0x10DE SWAP2 MLOAD SWAP1 PUSH2 0x10D4 JUMP JUMPDEST DUP11 DUP1 REVERT JUMPDEST POP RETURNDATASIZE PUSH2 0x14F6 JUMP JUMPDEST POP PUSH1 0x1A PUSH1 0x64 SWAP3 DUP6 DUP9 MLOAD SWAP4 PUSH3 0x461BCD PUSH1 0xE5 SHL DUP6 MSTORE DUP5 ADD MSTORE DUP3 ADD MSTORE PUSH32 0x5661756C743A20696E73756666696369656E7420736861726573000000000000 PUSH1 0x44 DUP3 ADD MSTORE REVERT JUMPDEST DUP1 SWAP3 POP DUP8 DUP1 SWAP3 POP RETURNDATASIZE DUP4 GT PUSH2 0x1589 JUMPI JUMPDEST PUSH2 0x1578 DUP2 DUP4 PUSH2 0x1674 JUMP JUMPDEST DUP2 ADD SUB SLT PUSH2 0x14AC JUMPI DUP7 SWAP1 MLOAD CODESIZE PUSH2 0x109B JUMP JUMPDEST POP RETURNDATASIZE PUSH2 0x156E JUMP JUMPDEST DUP4 DUP1 REVERT JUMPDEST DUP4 SWAP1 CALLVALUE PUSH2 0x153 JUMPI PUSH1 0x20 CALLDATASIZE PUSH1 0x3 NOT ADD SLT PUSH2 0x153 JUMPI CALLDATALOAD DUP1 ISZERO ISZERO DUP1 SWAP2 SUB PUSH2 0x153 JUMPI PUSH2 0x15BA PUSH2 0x161E JUMP JUMPDEST PUSH1 0xFF DUP1 NOT PUSH1 0x5 SLOAD AND SWAP2 AND OR PUSH1 0x5 SSTORE DUP1 RETURN JUMPDEST DUP3 DUP5 CALLVALUE PUSH2 0x831 JUMPI PUSH1 0x20 CALLDATASIZE PUSH1 0x3 NOT ADD SLT PUSH2 0x831 JUMPI POP PUSH2 0x82A PUSH1 0x20 SWAP3 CALLDATALOAD PUSH2 0x193A JUMP JUMPDEST POP POP CALLVALUE PUSH2 0x153 JUMPI DUP2 PUSH1 0x3 NOT CALLDATASIZE ADD SLT PUSH2 0x153 JUMPI PUSH1 0x20 SWAP1 PUSH2 0x82A PUSH2 0x16B9 JUMP JUMPDEST PUSH1 0x4 CALLDATALOAD SWAP1 PUSH1 0x1 PUSH1 0x1 PUSH1 0xA0 SHL SUB DUP3 AND DUP3 SUB PUSH2 0x4BB JUMPI JUMP JUMPDEST PUSH1 0x1 SLOAD PUSH1 0x1 PUSH1 0x1 PUSH1 0xA0 SHL SUB AND CALLER SUB PUSH2 0x1632 JUMPI JUMP JUMPDEST PUSH1 0x40 MLOAD PUSH4 0x118CDAA7 PUSH1 0xE0 SHL DUP2 MSTORE CALLER PUSH1 0x4 DUP3 ADD MSTORE PUSH1 0x24 SWAP1 REVERT JUMPDEST PUSH8 0xFFFFFFFFFFFFFFFF DUP2 GT PUSH2 0x165E JUMPI PUSH1 0x40 MSTORE JUMP JUMPDEST PUSH4 0x4E487B71 PUSH1 0xE0 SHL PUSH1 0x0 MSTORE PUSH1 0x41 PUSH1 0x4 MSTORE PUSH1 0x24 PUSH1 0x0 REVERT JUMPDEST SWAP1 PUSH1 0x1F DUP1 NOT SWAP2 ADD AND DUP2 ADD SWAP1 DUP2 LT PUSH8 0xFFFFFFFFFFFFFFFF DUP3 GT OR PUSH2 0x165E JUMPI PUSH1 0x40 MSTORE JUMP JUMPDEST SWAP2 SWAP1 DUP3 ADD DUP1 SWAP3 GT PUSH2 0x16A3 JUMPI JUMP JUMPDEST PUSH4 0x4E487B71 PUSH1 0xE0 SHL PUSH1 0x0 MSTORE PUSH1 0x11 PUSH1 0x4 MSTORE PUSH1 0x24 PUSH1 0x0 REVERT JUMPDEST PUSH1 0x40 DUP1 MLOAD PUSH4 0x70A08231 PUSH1 0xE0 SHL DUP2 MSTORE ADDRESS PUSH1 0x4 DUP3 ADD MSTORE SWAP1 PUSH1 0x1 PUSH1 0x1 PUSH1 0xA0 SHL SUB SWAP1 PUSH1 0x20 DUP1 DUP5 PUSH1 0x24 DUP2 PUSH32 0x0 DUP8 AND GAS STATICCALL SWAP4 DUP5 ISZERO PUSH2 0x1850 JUMPI PUSH1 0x0 SWAP5 PUSH2 0x1821 JUMPI JUMPDEST POP PUSH1 0x2 SLOAD PUSH1 0x0 SWAP1 DUP3 SWAP1 DUP6 AND DUP1 ISZERO PUSH2 0x1819 JUMPI DUP5 MLOAD PUSH3 0x787445 PUSH1 0xE2 SHL DUP2 MSTORE SWAP3 POP DUP3 SWAP1 PUSH1 0x4 SWAP1 DUP3 SWAP1 GAS STATICCALL SWAP1 DUP2 ISZERO PUSH2 0x180E JUMPI PUSH1 0x0 SWAP2 PUSH2 0x17E1 JUMPI JUMPDEST POP SWAP3 JUMPDEST PUSH1 0x3 SLOAD AND PUSH1 0x0 DUP2 ISZERO PUSH2 0x17CD JUMPI POP SWAP1 DUP1 PUSH1 0x4 SWAP3 DUP5 MLOAD SWAP4 DUP5 DUP1 SWAP3 PUSH3 0x787445 PUSH1 0xE2 SHL DUP3 MSTORE GAS STATICCALL SWAP3 DUP4 ISZERO PUSH2 0x17C3 JUMPI POP PUSH1 0x0 SWAP3 PUSH2 0x1792 JUMPI JUMPDEST POP POP PUSH2 0x178F SWAP3 SWAP2 PUSH2 0x316 SWAP2 SWAP3 PUSH2 0x1696 JUMP JUMPDEST SWAP1 JUMP JUMPDEST DUP2 DUP2 SWAP4 SWAP3 SWAP4 RETURNDATASIZE DUP4 GT PUSH2 0x17BC JUMPI JUMPDEST PUSH2 0x17A9 DUP2 DUP4 PUSH2 0x1674 JUMP JUMPDEST DUP2 ADD SUB SLT PUSH2 0x831 JUMPI POP MLOAD DUP2 PUSH2 0x316 PUSH2 0x177E JUMP JUMPDEST POP RETURNDATASIZE PUSH2 0x179F JUMP JUMPDEST MLOAD RETURNDATASIZE PUSH1 0x0 DUP3 RETURNDATACOPY RETURNDATASIZE SWAP1 REVERT JUMPDEST SWAP1 POP PUSH2 0x316 SWAP3 POP PUSH2 0x178F SWAP5 SWAP4 SWAP2 POP SWAP3 PUSH2 0x1696 JUMP JUMPDEST SWAP1 DUP3 DUP3 DUP2 RETURNDATASIZE DUP4 GT PUSH2 0x1807 JUMPI JUMPDEST PUSH2 0x17F7 DUP2 DUP4 PUSH2 0x1674 JUMP JUMPDEST DUP2 ADD SUB SLT PUSH2 0x831 JUMPI POP MLOAD CODESIZE PUSH2 0x1748 JUMP JUMPDEST POP RETURNDATASIZE PUSH2 0x17ED JUMP JUMPDEST DUP4 MLOAD RETURNDATASIZE PUSH1 0x0 DUP3 RETURNDATACOPY RETURNDATASIZE SWAP1 REVERT JUMPDEST POP POP SWAP3 PUSH2 0x174B JUMP JUMPDEST SWAP1 SWAP4 DUP5 DUP3 DUP2 RETURNDATASIZE DUP4 GT PUSH2 0x1849 JUMPI JUMPDEST PUSH2 0x1838 DUP2 DUP4 PUSH2 0x1674 JUMP JUMPDEST DUP2 ADD SUB SLT PUSH2 0x831 JUMPI POP MLOAD SWAP3 CODESIZE PUSH2 0x1712 JUMP JUMPDEST POP RETURNDATASIZE PUSH2 0x182E JUMP JUMPDEST DUP3 MLOAD RETURNDATASIZE PUSH1 0x0 DUP3 RETURNDATACOPY RETURNDATASIZE SWAP1 REVERT JUMPDEST DUP2 DUP2 MUL SWAP3 SWAP2 DUP2 ISZERO SWAP2 DUP5 DIV EQ OR ISZERO PUSH2 0x16A3 JUMPI JUMP JUMPDEST DUP2 ISZERO PUSH2 0x1878 JUMPI DIV SWAP1 JUMP JUMPDEST PUSH4 0x4E487B71 PUSH1 0xE0 SHL PUSH1 0x0 MSTORE PUSH1 0x12 PUSH1 0x4 MSTORE PUSH1 0x24 PUSH1 0x0 REVERT JUMPDEST PUSH1 0x40 MLOAD PUSH4 0x18160DDD PUSH1 0xE0 SHL DUP2 MSTORE SWAP1 SWAP2 SWAP1 PUSH1 0x20 DUP2 PUSH1 0x4 DUP2 PUSH32 0x0 PUSH1 0x1 PUSH1 0x1 PUSH1 0xA0 SHL SUB AND GAS STATICCALL SWAP1 DUP2 ISZERO PUSH2 0x192E JUMPI PUSH1 0x0 SWAP2 PUSH2 0x18FD JUMPI JUMPDEST POP DUP1 ISZERO PUSH2 0x18F8 JUMPI PUSH2 0x18F3 SWAP1 PUSH2 0x178F SWAP4 PUSH2 0x185B JUMP JUMPDEST PUSH2 0x186E JUMP JUMPDEST POP POP SWAP1 JUMP JUMPDEST SWAP1 PUSH1 0x20 DUP3 RETURNDATASIZE DUP3 GT PUSH2 0x1926 JUMPI JUMPDEST DUP2 PUSH2 0x1916 PUSH1 0x20 SWAP4 DUP4 PUSH2 0x1674 JUMP JUMPDEST DUP2 ADD SUB SLT PUSH2 0x831 JUMPI POP MLOAD CODESIZE PUSH2 0x18DF JUMP JUMPDEST RETURNDATASIZE SWAP2 POP PUSH2 0x1909 JUMP JUMPDEST PUSH1 0x40 MLOAD RETURNDATASIZE PUSH1 0x0 DUP3 RETURNDATACOPY RETURNDATASIZE SWAP1 REVERT JUMPDEST PUSH1 0x40 MLOAD PUSH4 0x18160DDD PUSH1 0xE0 SHL DUP2 MSTORE PUSH1 0x20 DUP2 PUSH1 0x4 DUP2 PUSH32 0x0 PUSH1 0x1 PUSH1 0x1 PUSH1 0xA0 SHL SUB AND GAS STATICCALL SWAP1 DUP2 ISZERO PUSH2 0x192E JUMPI PUSH1 0x0 SWAP2 PUSH2 0x19A8 JUMPI JUMPDEST POP DUP1 ISZERO PUSH2 0x19A4 JUMPI PUSH2 0x18F3 PUSH2 0x178F SWAP3 PUSH2 0x199E PUSH2 0x16B9 JUMP JUMPDEST SWAP1 PUSH2 0x185B JUMP JUMPDEST POP SWAP1 JUMP JUMPDEST SWAP1 PUSH1 0x20 DUP3 RETURNDATASIZE DUP3 GT PUSH2 0x19D1 JUMPI JUMPDEST DUP2 PUSH2 0x19C1 PUSH1 0x20 SWAP4 DUP4 PUSH2 0x1674 JUMP JUMPDEST DUP2 ADD SUB SLT PUSH2 0x831 JUMPI POP MLOAD CODESIZE PUSH2 0x1988 JUMP JUMPDEST RETURNDATASIZE SWAP2 POP PUSH2 0x19B4 JUMP JUMPDEST ISZERO PUSH2 0x19E0 JUMPI JUMP JUMPDEST PUSH1 0x40 MLOAD PUSH3 0x461BCD PUSH1 0xE5 SHL DUP2 MSTORE PUSH1 0x20 PUSH1 0x4 DUP3 ADD MSTORE PUSH1 0x12 PUSH1 0x24 DUP3 ADD MSTORE PUSH18 0x5661756C743A20736861726573207A65726F PUSH1 0x70 SHL PUSH1 0x44 DUP3 ADD MSTORE PUSH1 0x64 SWAP1 REVERT JUMPDEST SWAP1 DUP2 PUSH1 0x20 SWAP2 SUB SLT PUSH2 0x4BB JUMPI MLOAD DUP1 ISZERO ISZERO DUP2 SUB PUSH2 0x4BB JUMPI SWAP1 JUMP JUMPDEST PUSH1 0x1 DUP1 PUSH1 0xA0 SHL SUB AND SWAP1 PUSH1 0x0 DUP1 DUP3 PUSH1 0x20 DUP3 SWAP5 MLOAD SWAP2 ADD DUP3 DUP7 GAS CALL RETURNDATASIZE ISZERO PUSH2 0x1AEB JUMPI RETURNDATASIZE PUSH8 0xFFFFFFFFFFFFFFFF DUP2 GT PUSH2 0x1AD7 JUMPI PUSH1 0x40 MLOAD PUSH2 0x1A8E SWAP4 SWAP3 SWAP2 PUSH2 0x1A7D PUSH1 0x1F DUP3 ADD PUSH1 0x1F NOT AND PUSH1 0x20 ADD DUP4 PUSH2 0x1674 JUMP JUMPDEST DUP2 MSTORE DUP1 SWAP3 PUSH1 0x20 RETURNDATASIZE SWAP3 ADD RETURNDATACOPY JUMPDEST DUP4 PUSH2 0x1AF8 JUMP JUMPDEST DUP1 MLOAD SWAP1 DUP2 ISZERO ISZERO SWAP2 DUP3 PUSH2 0x1ABC JUMPI JUMPDEST POP POP PUSH2 0x1AA4 JUMPI POP JUMP JUMPDEST PUSH1 0x24 SWAP1 PUSH1 0x40 MLOAD SWAP1 PUSH4 0x5274AFE7 PUSH1 0xE0 SHL DUP3 MSTORE PUSH1 0x4 DUP3 ADD MSTORE REVERT JUMPDEST PUSH2 0x1ACF SWAP3 POP PUSH1 0x20 DUP1 SWAP2 DUP4 ADD ADD SWAP2 ADD PUSH2 0x1A1A JUMP JUMPDEST ISZERO CODESIZE DUP1 PUSH2 0x1A9B JUMP JUMPDEST PUSH4 0x4E487B71 PUSH1 0xE0 SHL DUP4 MSTORE PUSH1 0x41 PUSH1 0x4 MSTORE PUSH1 0x24 DUP4 REVERT JUMPDEST PUSH2 0x1A8E SWAP2 POP PUSH1 0x60 SWAP1 PUSH2 0x1A88 JUMP JUMPDEST SWAP1 PUSH2 0x1B1F JUMPI POP DUP1 MLOAD ISZERO PUSH2 0x1B0D JUMPI DUP1 MLOAD SWAP1 PUSH1 0x20 ADD REVERT JUMPDEST PUSH1 0x40 MLOAD PUSH4 0xA12F521 PUSH1 0xE1 SHL DUP2 MSTORE PUSH1 0x4 SWAP1 REVERT JUMPDEST DUP2 MLOAD ISZERO DUP1 PUSH2 0x1B52 JUMPI JUMPDEST PUSH2 0x1B30 JUMPI POP SWAP1 JUMP JUMPDEST PUSH1 0x40 MLOAD PUSH4 0x9996B315 PUSH1 0xE0 SHL DUP2 MSTORE PUSH1 0x1 PUSH1 0x1 PUSH1 0xA0 SHL SUB SWAP1 SWAP2 AND PUSH1 0x4 DUP3 ADD MSTORE PUSH1 0x24 SWAP1 REVERT JUMPDEST POP DUP1 EXTCODESIZE ISZERO PUSH2 0x1B28 JUMP JUMPDEST PUSH1 0x2 PUSH1 0x0 SLOAD EQ PUSH2 0x1B6C JUMPI PUSH1 0x2 PUSH1 0x0 SSTORE JUMP JUMPDEST PUSH1 0x40 MLOAD PUSH4 0x3EE5AEB5 PUSH1 0xE0 SHL DUP2 MSTORE PUSH1 0x4 SWAP1 REVERT JUMPDEST PUSH1 0x2 SLOAD PUSH1 0x1 PUSH1 0x1 PUSH1 0xA0 SHL SUB SWAP1 DUP2 AND DUP1 PUSH2 0x1BED JUMPI JUMPDEST POP PUSH1 0x3 SLOAD AND DUP1 PUSH2 0x1B9F JUMPI POP JUMP JUMPDEST PUSH1 0x20 PUSH1 0x0 SWAP2 PUSH1 0x4 PUSH1 0x40 MLOAD DUP1 SWAP5 DUP2 SWAP4 PUSH4 0x59D9C75 PUSH1 0xE0 SHL DUP4 MSTORE GAS CALL DUP1 ISZERO PUSH2 0x192E JUMPI PUSH2 0x1BC6 JUMPI POP JUMP JUMPDEST PUSH1 0x20 SWAP1 DUP2 RETURNDATASIZE DUP2 GT PUSH2 0x1BE6 JUMPI JUMPDEST PUSH2 0x1BDC DUP2 DUP4 PUSH2 0x1674 JUMP JUMPDEST DUP2 ADD SUB SLT PUSH2 0x4BB JUMPI JUMP JUMPDEST POP RETURNDATASIZE PUSH2 0x1BD2 JUMP JUMPDEST PUSH1 0x20 PUSH1 0x0 SWAP2 PUSH1 0x4 PUSH1 0x40 MLOAD DUP1 SWAP5 DUP2 SWAP4 PUSH4 0x59D9C75 PUSH1 0xE0 SHL DUP4 MSTORE GAS CALL DUP1 ISZERO PUSH2 0x192E JUMPI ISZERO PUSH2 0x1B92 JUMPI PUSH1 0x20 SWAP1 DUP2 RETURNDATASIZE DUP2 GT PUSH2 0x1C36 JUMPI JUMPDEST PUSH2 0x1C28 DUP2 DUP4 PUSH2 0x1674 JUMP JUMPDEST DUP2 ADD SUB SLT PUSH2 0x4BB JUMPI CODESIZE PUSH2 0x1B92 JUMP JUMPDEST POP RETURNDATASIZE PUSH2 0x1C1E JUMP JUMPDEST SWAP2 SWAP1 DUP3 SUB SWAP2 DUP3 GT PUSH2 0x16A3 JUMPI JUMP JUMPDEST PUSH2 0x1B58 DUP1 DUP3 MUL SWAP1 DUP3 DUP3 DIV EQ DUP3 ISZERO OR ISZERO PUSH2 0x16A3 JUMPI PUSH2 0x2710 PUSH2 0x1C6C SWAP2 DIV DUP1 SWAP3 PUSH2 0x1C3D JUMP JUMPDEST SWAP1 DUP1 ISZERO ISZERO DUP1 PUSH2 0x1F5A JUMPI JUMPDEST PUSH2 0x1E06 JUMPI JUMPDEST POP DUP1 ISZERO ISZERO DUP1 PUSH2 0x1DF2 JUMPI JUMPDEST PUSH2 0x1C8C JUMPI POP JUMP JUMPDEST PUSH1 0x3 SLOAD PUSH1 0x40 DUP1 MLOAD PUSH4 0x95EA7B3 PUSH1 0xE0 SHL DUP1 DUP3 MSTORE PUSH1 0x1 PUSH1 0x1 PUSH1 0xA0 SHL SUB SWAP4 DUP5 AND PUSH1 0x4 DUP4 ADD MSTORE PUSH1 0x0 PUSH1 0x24 DUP4 ADD DUP2 SWAP1 MSTORE SWAP5 PUSH1 0x20 SWAP5 SWAP1 SWAP3 SWAP1 SWAP2 PUSH32 0x0 DUP4 AND SWAP2 DUP7 DUP2 PUSH1 0x44 DUP2 DUP12 DUP8 GAS CALL DUP1 ISZERO PUSH2 0xC23 JUMPI SWAP3 DUP8 SWAP3 DUP7 SWAP3 PUSH2 0x1D33 SWAP6 PUSH2 0x1DD5 JUMPI JUMPDEST POP PUSH1 0x3 SLOAD DUP9 MLOAD SWAP2 DUP3 MSTORE DUP7 AND PUSH1 0x1 PUSH1 0x1 PUSH1 0xA0 SHL SUB AND PUSH1 0x4 DUP3 ADD MSTORE PUSH1 0x24 DUP2 ADD SWAP3 SWAP1 SWAP3 MSTORE SWAP1 SWAP3 DUP4 SWAP2 SWAP1 DUP3 SWAP1 DUP11 SWAP1 DUP3 SWAP1 PUSH1 0x44 DUP3 ADD SWAP1 JUMP JUMPDEST SUB SWAP3 GAS CALL DUP1 ISZERO PUSH2 0xAD6 JUMPI DUP6 SWAP3 DUP8 SWAP6 SWAP5 SWAP3 PUSH1 0x24 SWAP3 PUSH2 0x1DA8 JUMPI JUMPDEST POP PUSH1 0x3 SLOAD AND SWAP2 DUP5 MLOAD SWAP6 DUP7 SWAP4 DUP5 SWAP3 PUSH4 0xB6B55F25 PUSH1 0xE0 SHL DUP5 MSTORE PUSH1 0x4 DUP5 ADD MSTORE GAS CALL SWAP1 DUP2 ISZERO PUSH2 0x1D9F JUMPI POP PUSH2 0x1D7A JUMPI POP POP POP JUMP JUMPDEST DUP2 RETURNDATASIZE DUP4 GT PUSH2 0x1D98 JUMPI JUMPDEST PUSH2 0x1D8D DUP2 DUP4 PUSH2 0x1674 JUMP JUMPDEST DUP2 ADD SUB SLT PUSH2 0x831 JUMPI POP JUMP JUMPDEST POP RETURNDATASIZE PUSH2 0x1D83 JUMP JUMPDEST MLOAD RETURNDATASIZE DUP6 DUP3 RETURNDATACOPY RETURNDATASIZE SWAP1 REVERT JUMPDEST PUSH2 0x1DC7 SWAP1 DUP6 RETURNDATASIZE DUP8 GT PUSH2 0x1DCE JUMPI JUMPDEST PUSH2 0x1DBF DUP2 DUP4 PUSH2 0x1674 JUMP JUMPDEST DUP2 ADD SWAP1 PUSH2 0x1A1A JUMP JUMPDEST POP CODESIZE PUSH2 0x1D4B JUMP JUMPDEST POP RETURNDATASIZE PUSH2 0x1DB5 JUMP JUMPDEST PUSH2 0x1DEB SWAP1 DUP6 RETURNDATASIZE DUP8 GT PUSH2 0x1DCE JUMPI PUSH2 0x1DBF DUP2 DUP4 PUSH2 0x1674 JUMP JUMPDEST POP CODESIZE PUSH2 0x1D00 JUMP JUMPDEST POP PUSH1 0x3 SLOAD PUSH1 0x1 PUSH1 0x1 PUSH1 0xA0 SHL SUB AND ISZERO ISZERO PUSH2 0x1C85 JUMP JUMPDEST PUSH1 0x2 SLOAD PUSH1 0x40 DUP1 MLOAD PUSH4 0x95EA7B3 PUSH1 0xE0 SHL DUP1 DUP3 MSTORE PUSH1 0x1 PUSH1 0x1 PUSH1 0xA0 SHL SUB SWAP4 DUP5 AND PUSH1 0x4 DUP4 ADD MSTORE PUSH1 0x0 PUSH1 0x24 DUP4 ADD DUP2 SWAP1 MSTORE SWAP5 PUSH1 0x20 SWAP5 SWAP1 SWAP3 SWAP1 SWAP2 PUSH32 0x0 DUP4 AND SWAP2 DUP7 DUP2 PUSH1 0x44 DUP2 DUP12 DUP8 GAS CALL DUP1 ISZERO PUSH2 0xC23 JUMPI SWAP3 DUP8 SWAP3 DUP7 SWAP3 PUSH2 0x1EAD SWAP6 PUSH2 0x1F3D JUMPI JUMPDEST POP PUSH1 0x2 SLOAD DUP9 MLOAD SWAP2 DUP3 MSTORE DUP7 AND PUSH1 0x1 PUSH1 0x1 PUSH1 0xA0 SHL SUB AND PUSH1 0x4 DUP3 ADD MSTORE PUSH1 0x24 DUP2 ADD SWAP3 SWAP1 SWAP3 MSTORE SWAP1 SWAP3 DUP4 SWAP2 SWAP1 DUP3 SWAP1 DUP11 SWAP1 DUP3 SWAP1 PUSH1 0x44 DUP3 ADD SWAP1 JUMP JUMPDEST SUB SWAP3 GAS CALL DUP1 ISZERO PUSH2 0xAD6 JUMPI DUP6 SWAP3 DUP8 SWAP6 SWAP5 SWAP3 PUSH1 0x24 SWAP3 PUSH2 0x1F20 JUMPI JUMPDEST POP PUSH1 0x2 SLOAD AND SWAP2 DUP5 MLOAD SWAP6 DUP7 SWAP4 DUP5 SWAP3 PUSH4 0xB6B55F25 PUSH1 0xE0 SHL DUP5 MSTORE PUSH1 0x4 DUP5 ADD MSTORE GAS CALL SWAP1 DUP2 ISZERO PUSH2 0x1D9F JUMPI POP PUSH2 0x1EF7 JUMPI JUMPDEST POP POP PUSH2 0x1C7B JUMP JUMPDEST DUP2 RETURNDATASIZE DUP4 GT PUSH2 0x1F19 JUMPI JUMPDEST PUSH2 0x1F0A DUP2 DUP4 PUSH2 0x1674 JUMP JUMPDEST DUP2 ADD SUB SLT PUSH2 0x831 JUMPI DUP1 DUP1 PUSH2 0x1EF0 JUMP JUMPDEST POP RETURNDATASIZE PUSH2 0x1F00 JUMP JUMPDEST PUSH2 0x1F36 SWAP1 DUP6 RETURNDATASIZE DUP8 GT PUSH2 0x1DCE JUMPI PUSH2 0x1DBF DUP2 DUP4 PUSH2 0x1674 JUMP JUMPDEST POP CODESIZE PUSH2 0x1EC5 JUMP JUMPDEST PUSH2 0x1F53 SWAP1 DUP6 RETURNDATASIZE DUP8 GT PUSH2 0x1DCE JUMPI PUSH2 0x1DBF DUP2 DUP4 PUSH2 0x1674 JUMP JUMPDEST POP CODESIZE PUSH2 0x1E7A JUMP JUMPDEST POP PUSH1 0x2 SLOAD PUSH1 0x1 PUSH1 0x1 PUSH1 0xA0 SHL SUB AND ISZERO ISZERO PUSH2 0x1C76 JUMP JUMPDEST PUSH1 0x40 MLOAD PUSH4 0x18160DDD PUSH1 0xE0 SHL DUP2 MSTORE PUSH1 0x20 DUP2 PUSH1 0x4 DUP2 PUSH32 0x0 PUSH1 0x1 PUSH1 0x1 PUSH1 0xA0 SHL SUB AND GAS STATICCALL SWAP1 DUP2 ISZERO PUSH2 0x192E JUMPI PUSH1 0x0 SWAP2 PUSH2 0x1FFC JUMPI JUMPDEST POP DUP1 ISZERO PUSH2 0x1FEF JUMPI PUSH2 0x1FCB PUSH2 0x16B9 JUMP JUMPDEST SWAP1 PUSH8 0xDE0B6B3A7640000 SWAP2 DUP3 DUP2 MUL SWAP3 DUP2 DUP5 DIV EQ SWAP1 ISZERO OR ISZERO PUSH2 0x16A3 JUMPI PUSH2 0x178F SWAP2 PUSH2 0x186E JUMP JUMPDEST POP PUSH8 0xDE0B6B3A7640000 SWAP1 JUMP JUMPDEST SWAP1 PUSH1 0x20 DUP3 RETURNDATASIZE DUP3 GT PUSH2 0x2025 JUMPI JUMPDEST DUP2 PUSH2 0x2015 PUSH1 0x20 SWAP4 DUP4 PUSH2 0x1674 JUMP JUMPDEST DUP2 ADD SUB SLT PUSH2 0x831 JUMPI POP MLOAD CODESIZE PUSH2 0x1FBC JUMP JUMPDEST RETURNDATASIZE SWAP2 POP PUSH2 0x2008 JUMP JUMPDEST PUSH1 0x40 MLOAD PUSH4 0x70A08231 PUSH1 0xE0 SHL DUP2 MSTORE PUSH1 0x1 PUSH1 0x1 PUSH1 0xA0 SHL SUB SWAP2 DUP3 AND PUSH1 0x4 DUP3 ADD MSTORE PUSH1 0x20 SWAP3 SWAP2 PUSH32 0x0 AND SWAP1 DUP4 DUP2 PUSH1 0x24 DUP2 DUP6 GAS STATICCALL SWAP1 DUP2 ISZERO PUSH2 0x192E JUMPI PUSH1 0x0 SWAP2 PUSH2 0x2105 JUMPI JUMPDEST POP DUP1 ISZERO PUSH2 0x20FD JUMPI DUP4 PUSH2 0x209E PUSH1 0x4 SWAP3 PUSH2 0x199E PUSH2 0x16B9 JUMP JUMPDEST SWAP3 PUSH1 0x40 MLOAD SWAP3 DUP4 DUP1 SWAP3 PUSH4 0x18160DDD PUSH1 0xE0 SHL DUP3 MSTORE GAS STATICCALL SWAP4 DUP5 ISZERO PUSH2 0x192E JUMPI PUSH1 0x0 SWAP5 PUSH2 0x20CE JUMPI JUMPDEST POP POP SWAP2 PUSH2 0x178F SWAP2 SWAP3 PUSH2 0x186E JUMP JUMPDEST DUP2 DUP2 RETURNDATASIZE DUP4 GT PUSH2 0x20F6 JUMPI JUMPDEST PUSH2 0x20E2 DUP2 DUP4 PUSH2 0x1674 JUMP JUMPDEST DUP2 ADD SUB SLT PUSH2 0x1590 JUMPI MLOAD SWAP3 POP PUSH2 0x178F CODESIZE PUSH2 0x20C1 JUMP JUMPDEST POP RETURNDATASIZE PUSH2 0x20D8 JUMP JUMPDEST POP PUSH1 0x0 SWAP3 POP POP JUMP JUMPDEST SWAP1 DUP5 DUP3 DUP2 RETURNDATASIZE DUP4 GT PUSH2 0x212B JUMPI JUMPDEST PUSH2 0x211B DUP2 DUP4 PUSH2 0x1674 JUMP JUMPDEST DUP2 ADD SUB SLT PUSH2 0x831 JUMPI POP MLOAD CODESIZE PUSH2 0x2088 JUMP JUMPDEST POP RETURNDATASIZE PUSH2 0x2111 JUMP INVALID LOG2 PUSH5 0x6970667358 0x22 SLT KECCAK256 0xE5 0x2D EXP 0xF8 0xE8 BLOCKHASH 0xE5 SLT 0xB4 0x4D LOG0 0xCD 0xE7 0xDF STOP SELFBALANCE 0xA7 ISZERO GAS MSTORE8 0xC0 0xB1 PUSH1 0x5 PUSH6 0xDC01B263E94 DUP2 PUSH5 0x736F6C6343 STOP ADDMOD EQ STOP CALLER PUSH1 0x80 CALLVALUE PUSH3 0x39B JUMPI PUSH1 0x1 PUSH1 0x1 PUSH1 0x40 SHL SUB PUSH1 0x1F PUSH1 0x1F NOT PUSH3 0xD95 CODESIZE DUP2 SWAP1 SUB DUP4 DUP2 ADD DUP4 AND DUP7 ADD DUP6 DUP2 GT DUP8 DUP3 LT OR PUSH3 0x3A0 JUMPI DUP7 SWAP3 DUP3 SWAP2 PUSH1 0x40 MSTORE DUP4 CODECOPY PUSH1 0x20 SWAP6 DUP7 SWAP2 DUP2 ADD SUB SLT PUSH3 0x39B JUMPI MLOAD PUSH1 0x1 PUSH1 0x1 PUSH1 0xA0 SHL SUB SWAP5 DUP6 DUP3 AND SWAP5 SWAP2 DUP6 SWAP1 SUB PUSH3 0x39B JUMPI PUSH3 0x67 PUSH3 0x3B6 JUMP JUMPDEST PUSH1 0x9 DUP2 MSTORE PUSH9 0x5969656C64204C5443 PUSH1 0xB8 SHL DUP3 DUP3 ADD MSTORE PUSH3 0x86 PUSH3 0x3B6 JUMP JUMPDEST SWAP5 PUSH1 0x4 SWAP6 DUP7 DUP2 MSTORE PUSH4 0x794C5443 PUSH1 0xE0 SHL DUP5 DUP3 ADD MSTORE DUP3 MLOAD SWAP4 DUP6 DUP6 GT PUSH3 0x2A1 JUMPI PUSH1 0x3 SWAP5 DUP6 SLOAD SWAP5 PUSH1 0x1 SWAP6 DUP7 DUP2 DUP2 SHR SWAP2 AND DUP1 ISZERO PUSH3 0x390 JUMPI JUMPDEST DUP5 DUP3 LT EQ PUSH3 0x37B JUMPI SWAP1 DUP2 DUP7 DUP5 SWAP4 GT PUSH3 0x325 JUMPI JUMPDEST POP DUP4 SWAP1 DUP7 DUP4 GT PUSH1 0x1 EQ PUSH3 0x2C2 JUMPI PUSH1 0x0 SWAP3 PUSH3 0x2B6 JUMPI JUMPDEST POP POP PUSH1 0x0 NOT DUP3 DUP9 SHL SHR NOT AND SWAP1 DUP6 SHL OR DUP6 SSTORE JUMPDEST DUP2 MLOAD SWAP6 DUP7 GT PUSH3 0x2A1 JUMPI DUP8 SLOAD DUP5 DUP2 DUP2 SHR SWAP2 AND DUP1 ISZERO PUSH3 0x296 JUMPI JUMPDEST DUP3 DUP3 LT EQ PUSH3 0x281 JUMPI DUP4 DUP2 GT PUSH3 0x236 JUMPI JUMPDEST POP DUP1 SWAP3 DUP7 GT PUSH1 0x1 EQ PUSH3 0x1CA JUMPI POP DUP5 SWAP6 POP SWAP1 DUP5 SWAP3 SWAP2 PUSH1 0x0 SWAP6 PUSH3 0x1BE JUMPI JUMPDEST POP POP SHL SWAP3 PUSH1 0x0 NOT SWAP2 SHL SHR NOT AND OR DUP2 SSTORE JUMPDEST DUP2 ISZERO PUSH3 0x1A6 JUMPI POP PUSH1 0x5 DUP1 SLOAD PUSH1 0x1 PUSH1 0x1 PUSH1 0xA0 SHL SUB NOT DUP2 AND DUP4 OR SWAP1 SWAP2 SSTORE PUSH1 0x40 MLOAD SWAP3 AND PUSH32 0x8BE0079C531659141344CD1FD0A4F28419497F9722A3DAAFE3B4186F6B6457E0 PUSH1 0x0 DUP1 LOG3 PUSH2 0x9BE SWAP1 DUP2 PUSH3 0x3D7 DUP3 CODECOPY RETURN JUMPDEST PUSH1 0x24 SWAP1 PUSH1 0x0 PUSH1 0x40 MLOAD SWAP2 PUSH4 0x1E4FBDF7 PUSH1 0xE0 SHL DUP4 MSTORE DUP3 ADD MSTORE REVERT JUMPDEST ADD MLOAD SWAP4 POP CODESIZE DUP1 PUSH3 0x143 JUMP JUMPDEST SWAP4 SWAP3 SWAP6 DUP6 SWAP1 DUP2 AND DUP9 PUSH1 0x0 MSTORE DUP6 PUSH1 0x0 KECCAK256 SWAP6 PUSH1 0x0 SWAP1 JUMPDEST DUP10 DUP4 DUP4 LT PUSH3 0x21B JUMPI POP POP POP LT PUSH3 0x200 JUMPI JUMPDEST POP POP POP POP DUP2 SHL ADD DUP2 SSTORE PUSH3 0x153 JUMP JUMPDEST ADD MLOAD SWAP1 PUSH1 0xF8 DUP5 PUSH1 0x0 NOT SWAP3 SHL AND SHR NOT AND SWAP1 SSTORE CODESIZE DUP1 DUP1 DUP1 PUSH3 0x1F1 JUMP JUMPDEST DUP6 DUP8 ADD MLOAD DUP10 SSTORE SWAP1 SWAP8 ADD SWAP7 SWAP5 DUP6 ADD SWAP5 DUP9 SWAP4 POP SWAP1 DUP2 ADD SWAP1 PUSH3 0x1DE JUMP JUMPDEST DUP9 PUSH1 0x0 MSTORE DUP2 PUSH1 0x0 KECCAK256 DUP5 DUP1 DUP10 ADD PUSH1 0x5 SHR DUP3 ADD SWAP3 DUP5 DUP11 LT PUSH3 0x277 JUMPI JUMPDEST ADD PUSH1 0x5 SHR ADD SWAP1 DUP6 SWAP1 JUMPDEST DUP3 DUP2 LT PUSH3 0x26A JUMPI POP POP PUSH3 0x125 JUMP JUMPDEST PUSH1 0x0 DUP2 SSTORE ADD DUP6 SWAP1 PUSH3 0x25A JUMP JUMPDEST SWAP3 POP DUP2 SWAP3 PUSH3 0x251 JUMP JUMPDEST PUSH1 0x22 DUP10 PUSH4 0x4E487B71 PUSH1 0xE0 SHL PUSH1 0x0 MSTORE MSTORE PUSH1 0x24 PUSH1 0x0 REVERT JUMPDEST SWAP1 PUSH1 0x7F AND SWAP1 PUSH3 0x113 JUMP JUMPDEST PUSH1 0x41 DUP9 PUSH4 0x4E487B71 PUSH1 0xE0 SHL PUSH1 0x0 MSTORE MSTORE PUSH1 0x24 PUSH1 0x0 REVERT JUMPDEST ADD MLOAD SWAP1 POP CODESIZE DUP1 PUSH3 0xE7 JUMP JUMPDEST SWAP1 DUP11 DUP9 SWAP5 AND SWAP2 DUP10 PUSH1 0x0 MSTORE DUP6 PUSH1 0x0 KECCAK256 SWAP3 PUSH1 0x0 JUMPDEST DUP8 DUP3 DUP3 LT PUSH3 0x30E JUMPI POP POP DUP5 GT PUSH3 0x2F5 JUMPI JUMPDEST POP POP POP DUP2 SHL ADD DUP6 SSTORE PUSH3 0xF9 JUMP JUMPDEST ADD MLOAD PUSH1 0x0 NOT DUP4 DUP11 SHL PUSH1 0xF8 AND SHR NOT AND SWAP1 SSTORE CODESIZE DUP1 DUP1 PUSH3 0x2E7 JUMP JUMPDEST DUP4 DUP6 ADD MLOAD DUP7 SSTORE DUP12 SWAP8 SWAP1 SWAP6 ADD SWAP5 SWAP4 DUP5 ADD SWAP4 ADD PUSH3 0x2D4 JUMP JUMPDEST SWAP1 SWAP2 POP DUP8 PUSH1 0x0 MSTORE DUP4 PUSH1 0x0 KECCAK256 DUP7 DUP1 DUP6 ADD PUSH1 0x5 SHR DUP3 ADD SWAP3 DUP7 DUP7 LT PUSH3 0x371 JUMPI JUMPDEST SWAP2 DUP10 SWAP2 DUP7 SWAP6 SWAP5 SWAP4 ADD PUSH1 0x5 SHR ADD SWAP2 JUMPDEST DUP3 DUP2 LT PUSH3 0x361 JUMPI POP POP PUSH3 0xD0 JUMP JUMPDEST PUSH1 0x0 DUP2 SSTORE DUP6 SWAP5 POP DUP10 SWAP2 ADD PUSH3 0x351 JUMP JUMPDEST SWAP3 POP DUP2 SWAP3 PUSH3 0x343 JUMP JUMPDEST PUSH1 0x22 DUP12 PUSH4 0x4E487B71 PUSH1 0xE0 SHL PUSH1 0x0 MSTORE MSTORE PUSH1 0x24 PUSH1 0x0 REVERT JUMPDEST SWAP1 PUSH1 0x7F AND SWAP1 PUSH3 0xBB JUMP JUMPDEST PUSH1 0x0 DUP1 REVERT JUMPDEST PUSH4 0x4E487B71 PUSH1 0xE0 SHL PUSH1 0x0 MSTORE PUSH1 0x41 PUSH1 0x4 MSTORE PUSH1 0x24 PUSH1 0x0 REVERT JUMPDEST PUSH1 0x40 DUP1 MLOAD SWAP2 SWAP1 DUP3 ADD PUSH1 0x1 PUSH1 0x1 PUSH1 0x40 SHL SUB DUP2 GT DUP4 DUP3 LT OR PUSH3 0x3A0 JUMPI PUSH1 0x40 MSTORE JUMP INVALID PUSH1 0x80 PUSH1 0x40 DUP2 DUP2 MSTORE PUSH1 0x4 DUP1 CALLDATASIZE LT ISZERO PUSH2 0x15 JUMPI PUSH1 0x0 DUP1 REVERT JUMPDEST PUSH1 0x0 SWAP3 DUP4 CALLDATALOAD PUSH1 0xE0 SHR SWAP1 DUP2 PUSH4 0x6FDDE03 EQ PUSH2 0x70F JUMPI POP DUP1 PUSH4 0x95EA7B3 EQ PUSH2 0x666 JUMPI DUP1 PUSH4 0x18160DDD EQ PUSH2 0x647 JUMPI DUP1 PUSH4 0x23B872DD EQ PUSH2 0x554 JUMPI DUP1 PUSH4 0x313CE567 EQ PUSH2 0x538 JUMPI DUP1 PUSH4 0x40C10F19 EQ PUSH2 0x489 JUMPI DUP1 PUSH4 0x70A08231 EQ PUSH2 0x452 JUMPI DUP1 PUSH4 0x715018A6 EQ PUSH2 0x3F2 JUMPI DUP1 PUSH4 0x8DA5CB5B EQ PUSH2 0x3C9 JUMPI DUP1 PUSH4 0x95D89B41 EQ PUSH2 0x2A9 JUMPI DUP1 PUSH4 0x9DC29FAC EQ PUSH2 0x1CD JUMPI DUP1 PUSH4 0xA9059CBB EQ PUSH2 0x19C JUMPI DUP1 PUSH4 0xDD62ED3E EQ PUSH2 0x14F JUMPI PUSH4 0xF2FDE38B EQ PUSH2 0xBD JUMPI PUSH1 0x0 DUP1 REVERT JUMPDEST CALLVALUE PUSH2 0x14B JUMPI PUSH1 0x20 CALLDATASIZE PUSH1 0x3 NOT ADD SLT PUSH2 0x14B JUMPI PUSH2 0xD6 PUSH2 0x84D JUMP JUMPDEST SWAP1 PUSH2 0xDF PUSH2 0x87E JUMP JUMPDEST PUSH1 0x1 PUSH1 0x1 PUSH1 0xA0 SHL SUB SWAP2 DUP3 AND SWAP3 DUP4 ISZERO PUSH2 0x135 JUMPI POP POP PUSH1 0x5 SLOAD DUP3 PUSH12 0xFFFFFFFFFFFFFFFFFFFFFFFF PUSH1 0xA0 SHL DUP3 AND OR PUSH1 0x5 SSTORE AND PUSH32 0x8BE0079C531659141344CD1FD0A4F28419497F9722A3DAAFE3B4186F6B6457E0 DUP4 DUP1 LOG3 DUP1 RETURN JUMPDEST MLOAD PUSH4 0x1E4FBDF7 PUSH1 0xE0 SHL DUP2 MSTORE SWAP1 DUP2 ADD DUP5 SWAP1 MSTORE PUSH1 0x24 SWAP1 REVERT JUMPDEST DUP3 DUP1 REVERT JUMPDEST POP POP CALLVALUE PUSH2 0x198 JUMPI DUP1 PUSH1 0x3 NOT CALLDATASIZE ADD SLT PUSH2 0x198 JUMPI DUP1 PUSH1 0x20 SWAP3 PUSH2 0x16D PUSH2 0x84D JUMP JUMPDEST PUSH2 0x175 PUSH2 0x868 JUMP JUMPDEST PUSH1 0x1 PUSH1 0x1 PUSH1 0xA0 SHL SUB SWAP2 DUP3 AND DUP4 MSTORE PUSH1 0x1 DUP7 MSTORE DUP4 DUP4 KECCAK256 SWAP2 AND DUP3 MSTORE DUP5 MSTORE KECCAK256 SLOAD SWAP1 MLOAD SWAP1 DUP2 MSTORE RETURN JUMPDEST POP DUP1 REVERT JUMPDEST POP POP CALLVALUE PUSH2 0x198 JUMPI DUP1 PUSH1 0x3 NOT CALLDATASIZE ADD SLT PUSH2 0x198 JUMPI PUSH1 0x20 SWAP1 PUSH2 0x1C6 PUSH2 0x1BC PUSH2 0x84D JUMP JUMPDEST PUSH1 0x24 CALLDATALOAD SWAP1 CALLER PUSH2 0x8AA JUMP JUMPDEST MLOAD PUSH1 0x1 DUP2 MSTORE RETURN JUMPDEST POP DUP3 SWAP1 CALLVALUE PUSH2 0x198 JUMPI DUP3 PUSH1 0x3 NOT CALLDATASIZE ADD SLT PUSH2 0x198 JUMPI PUSH2 0x1E8 PUSH2 0x84D JUMP JUMPDEST SWAP1 PUSH1 0x24 CALLDATALOAD SWAP1 PUSH2 0x1F5 PUSH2 0x87E JUMP JUMPDEST PUSH1 0x1 PUSH1 0x1 PUSH1 0xA0 SHL SUB DUP4 AND SWAP3 DUP4 ISZERO PUSH2 0x292 JUMPI DUP4 DUP6 MSTORE DUP5 PUSH1 0x20 MSTORE DUP6 DUP6 KECCAK256 SLOAD SWAP2 DUP4 DUP4 LT PUSH2 0x25E JUMPI POP POP DUP2 DUP5 SWAP6 PUSH32 0xDDF252AD1BE2C89B69C2B068FC378DAA952BA7F163C4A11628F55A4DF523B3EF SWAP4 PUSH1 0x20 SWAP4 DUP7 DUP9 MSTORE DUP8 DUP6 MSTORE SUB DUP2 DUP8 KECCAK256 SSTORE DUP2 PUSH1 0x2 SLOAD SUB PUSH1 0x2 SSTORE MLOAD SWAP1 DUP2 MSTORE LOG3 DUP1 RETURN JUMPDEST DUP7 MLOAD PUSH4 0x391434E3 PUSH1 0xE2 SHL DUP2 MSTORE PUSH1 0x1 PUSH1 0x1 PUSH1 0xA0 SHL SUB SWAP1 SWAP3 AND SWAP1 DUP3 ADD SWAP1 DUP2 MSTORE PUSH1 0x20 DUP2 ADD DUP4 SWAP1 MSTORE PUSH1 0x40 DUP2 ADD DUP5 SWAP1 MSTORE DUP2 SWAP1 PUSH1 0x60 ADD SUB SWAP1 REVERT JUMPDEST DUP6 MLOAD PUSH4 0x4B637E8F PUSH1 0xE1 SHL DUP2 MSTORE DUP1 DUP4 ADD DUP7 SWAP1 MSTORE PUSH1 0x24 SWAP1 REVERT JUMPDEST POP SWAP2 SWAP1 CALLVALUE PUSH2 0x198 JUMPI DUP2 PUSH1 0x3 NOT CALLDATASIZE ADD SLT PUSH2 0x198 JUMPI DUP1 MLOAD SWAP1 DUP3 DUP5 SLOAD PUSH1 0x1 DUP2 DUP2 SHR SWAP1 DUP1 DUP4 AND SWAP3 DUP4 ISZERO PUSH2 0x3BF JUMPI JUMPDEST PUSH1 0x20 SWAP4 DUP5 DUP5 LT DUP2 EQ PUSH2 0x3AC JUMPI DUP4 DUP9 MSTORE SWAP1 DUP2 ISZERO PUSH2 0x390 JUMPI POP PUSH1 0x1 EQ PUSH2 0x33B JUMPI JUMPDEST POP POP POP DUP3 SWAP1 SUB PUSH1 0x1F ADD PUSH1 0x1F NOT AND DUP3 ADD SWAP3 PUSH8 0xFFFFFFFFFFFFFFFF DUP5 GT DUP4 DUP6 LT OR PUSH2 0x328 JUMPI POP DUP3 SWAP2 DUP3 PUSH2 0x324 SWAP3 MSTORE DUP3 PUSH2 0x804 JUMP JUMPDEST SUB SWAP1 RETURN JUMPDEST PUSH4 0x4E487B71 PUSH1 0xE0 SHL DUP2 MSTORE PUSH1 0x41 DUP6 MSTORE PUSH1 0x24 SWAP1 REVERT JUMPDEST DUP8 DUP8 MSTORE SWAP2 SWAP3 POP DUP6 SWAP2 DUP4 PUSH32 0x8A35ACFBC15FF81A39AE7D344FD709F28E8600B4AA8C65C6B64BFE7FE36BD19B JUMPDEST DUP4 DUP6 LT PUSH2 0x37C JUMPI POP POP POP POP DUP4 ADD ADD CODESIZE DUP1 DUP1 PUSH2 0x2F2 JUMP JUMPDEST DUP1 SLOAD DUP9 DUP7 ADD DUP4 ADD MSTORE SWAP4 ADD SWAP3 DUP5 SWAP1 DUP3 ADD PUSH2 0x366 JUMP JUMPDEST PUSH1 0xFF NOT AND DUP8 DUP6 ADD MSTORE POP POP ISZERO ISZERO PUSH1 0x5 SHL DUP5 ADD ADD SWAP1 POP CODESIZE DUP1 DUP1 PUSH2 0x2F2 JUMP JUMPDEST PUSH4 0x4E487B71 PUSH1 0xE0 SHL DUP10 MSTORE PUSH1 0x22 DUP11 MSTORE PUSH1 0x24 DUP10 REVERT JUMPDEST SWAP2 PUSH1 0x7F AND SWAP2 PUSH2 0x2D3 JUMP JUMPDEST POP POP CALLVALUE PUSH2 0x198 JUMPI DUP2 PUSH1 0x3 NOT CALLDATASIZE ADD SLT PUSH2 0x198 JUMPI PUSH1 0x5 SLOAD SWAP1 MLOAD PUSH1 0x1 PUSH1 0x1 PUSH1 0xA0 SHL SUB SWAP1 SWAP2 AND DUP2 MSTORE PUSH1 0x20 SWAP1 RETURN JUMPDEST DUP4 CALLVALUE PUSH2 0x44F JUMPI DUP1 PUSH1 0x3 NOT CALLDATASIZE ADD SLT PUSH2 0x44F JUMPI PUSH2 0x40B PUSH2 0x87E JUMP JUMPDEST PUSH1 0x5 DUP1 SLOAD PUSH1 0x1 PUSH1 0x1 PUSH1 0xA0 SHL SUB NOT DUP2 AND SWAP1 SWAP2 SSTORE DUP2 SWAP1 PUSH1 0x1 PUSH1 0x1 PUSH1 0xA0 SHL SUB AND PUSH32 0x8BE0079C531659141344CD1FD0A4F28419497F9722A3DAAFE3B4186F6B6457E0 DUP3 DUP1 LOG3 DUP1 RETURN JUMPDEST DUP1 REVERT JUMPDEST POP POP CALLVALUE PUSH2 0x198 JUMPI PUSH1 0x20 CALLDATASIZE PUSH1 0x3 NOT ADD SLT PUSH2 0x198 JUMPI PUSH1 0x20 SWAP2 DUP2 SWAP1 PUSH1 0x1 PUSH1 0x1 PUSH1 0xA0 SHL SUB PUSH2 0x47A PUSH2 0x84D JUMP JUMPDEST AND DUP2 MSTORE DUP1 DUP5 MSTORE KECCAK256 SLOAD SWAP1 MLOAD SWAP1 DUP2 MSTORE RETURN JUMPDEST POP SWAP1 CALLVALUE PUSH2 0x14B JUMPI DUP1 PUSH1 0x3 NOT CALLDATASIZE ADD SLT PUSH2 0x14B JUMPI PUSH2 0x4A3 PUSH2 0x84D JUMP JUMPDEST SWAP1 PUSH1 0x24 CALLDATALOAD SWAP2 PUSH2 0x4B0 PUSH2 0x87E JUMP JUMPDEST PUSH1 0x1 PUSH1 0x1 PUSH1 0xA0 SHL SUB AND SWAP3 DUP4 ISZERO PUSH2 0x523 JUMPI PUSH1 0x2 SLOAD SWAP1 DUP4 DUP3 ADD DUP1 SWAP3 GT PUSH2 0x510 JUMPI POP DUP5 SWAP3 PUSH32 0xDDF252AD1BE2C89B69C2B068FC378DAA952BA7F163C4A11628F55A4DF523B3EF SWAP3 PUSH1 0x20 SWAP3 PUSH1 0x2 SSTORE DUP6 DUP6 MSTORE DUP5 DUP4 MSTORE DUP1 DUP6 KECCAK256 DUP3 DUP2 SLOAD ADD SWAP1 SSTORE MLOAD SWAP1 DUP2 MSTORE LOG3 DUP1 RETURN JUMPDEST PUSH4 0x4E487B71 PUSH1 0xE0 SHL DUP7 MSTORE PUSH1 0x11 SWAP1 MSTORE PUSH1 0x24 DUP6 REVERT JUMPDEST DUP5 PUSH1 0x24 SWAP3 MLOAD SWAP2 PUSH4 0xEC442F05 PUSH1 0xE0 SHL DUP4 MSTORE DUP3 ADD MSTORE REVERT JUMPDEST POP POP CALLVALUE PUSH2 0x198 JUMPI DUP2 PUSH1 0x3 NOT CALLDATASIZE ADD SLT PUSH2 0x198 JUMPI PUSH1 0x20 SWAP1 MLOAD PUSH1 0x12 DUP2 MSTORE RETURN JUMPDEST POP DUP3 CALLVALUE PUSH2 0x44F JUMPI PUSH1 0x60 CALLDATASIZE PUSH1 0x3 NOT ADD SLT PUSH2 0x44F JUMPI PUSH2 0x56F PUSH2 0x84D JUMP JUMPDEST PUSH2 0x577 PUSH2 0x868 JUMP JUMPDEST SWAP2 PUSH1 0x44 CALLDATALOAD SWAP4 PUSH1 0x1 DUP1 PUSH1 0xA0 SHL SUB DUP4 AND DUP1 DUP4 MSTORE PUSH1 0x1 PUSH1 0x20 MSTORE DUP7 DUP4 KECCAK256 CALLER DUP5 MSTORE PUSH1 0x20 MSTORE DUP7 DUP4 KECCAK256 SLOAD SWAP2 PUSH1 0x0 NOT DUP4 SUB PUSH2 0x5B3 JUMPI JUMPDEST PUSH1 0x20 DUP9 PUSH2 0x1C6 DUP10 DUP10 DUP10 PUSH2 0x8AA JUMP JUMPDEST DUP7 DUP4 LT PUSH2 0x61B JUMPI DUP2 ISZERO PUSH2 0x604 JUMPI CALLER ISZERO PUSH2 0x5ED JUMPI POP DUP3 MSTORE PUSH1 0x1 PUSH1 0x20 SWAP1 DUP2 MSTORE DUP7 DUP4 KECCAK256 CALLER DUP5 MSTORE DUP2 MSTORE SWAP2 DUP7 SWAP1 KECCAK256 SWAP1 DUP6 SWAP1 SUB SWAP1 SSTORE DUP3 SWAP1 PUSH2 0x1C6 DUP8 PUSH2 0x5A5 JUMP JUMPDEST DUP8 MLOAD PUSH4 0x4A1406B1 PUSH1 0xE1 SHL DUP2 MSTORE SWAP1 DUP2 ADD DUP5 SWAP1 MSTORE PUSH1 0x24 SWAP1 REVERT JUMPDEST DUP8 MLOAD PUSH4 0xE602DF05 PUSH1 0xE0 SHL DUP2 MSTORE SWAP1 DUP2 ADD DUP5 SWAP1 MSTORE PUSH1 0x24 SWAP1 REVERT JUMPDEST DUP8 MLOAD PUSH4 0x7DC7A0D9 PUSH1 0xE1 SHL DUP2 MSTORE CALLER SWAP2 DUP2 ADD SWAP2 DUP3 MSTORE PUSH1 0x20 DUP3 ADD SWAP4 SWAP1 SWAP4 MSTORE PUSH1 0x40 DUP2 ADD DUP8 SWAP1 MSTORE DUP3 SWAP2 POP PUSH1 0x60 ADD SUB SWAP1 REVERT JUMPDEST POP POP CALLVALUE PUSH2 0x198 JUMPI DUP2 PUSH1 0x3 NOT CALLDATASIZE ADD SLT PUSH2 0x198 JUMPI PUSH1 0x20 SWAP1 PUSH1 0x2 SLOAD SWAP1 MLOAD SWAP1 DUP2 MSTORE RETURN JUMPDEST POP CALLVALUE PUSH2 0x14B JUMPI DUP2 PUSH1 0x3 NOT CALLDATASIZE ADD SLT PUSH2 0x14B JUMPI PUSH2 0x67F PUSH2 0x84D JUMP JUMPDEST PUSH1 0x24 CALLDATALOAD SWAP1 CALLER ISZERO PUSH2 0x6F8 JUMPI PUSH1 0x1 PUSH1 0x1 PUSH1 0xA0 SHL SUB AND SWAP2 DUP3 ISZERO PUSH2 0x6E1 JUMPI POP DUP1 DUP4 PUSH1 0x20 SWAP6 CALLER DUP2 MSTORE PUSH1 0x1 DUP8 MSTORE DUP2 DUP2 KECCAK256 DUP6 DUP3 MSTORE DUP8 MSTORE KECCAK256 SSTORE DUP3 MLOAD SWAP1 DUP2 MSTORE PUSH32 0x8C5BE1E5EBEC7D5BD14F71427D1E84F3DD0314C0F7B2291E5B200AC8C7C3B925 DUP5 CALLER SWAP3 LOG3 MLOAD PUSH1 0x1 DUP2 MSTORE RETURN JUMPDEST DUP4 MLOAD PUSH4 0x4A1406B1 PUSH1 0xE1 SHL DUP2 MSTORE SWAP1 DUP2 ADD DUP6 SWAP1 MSTORE PUSH1 0x24 SWAP1 REVERT JUMPDEST DUP4 MLOAD PUSH4 0xE602DF05 PUSH1 0xE0 SHL DUP2 MSTORE DUP1 DUP5 ADD DUP7 SWAP1 MSTORE PUSH1 0x24 SWAP1 REVERT JUMPDEST DUP5 SWAP2 POP DUP4 CALLVALUE PUSH2 0x14B JUMPI DUP3 PUSH1 0x3 NOT CALLDATASIZE ADD SLT PUSH2 0x14B JUMPI DUP3 PUSH1 0x3 SLOAD PUSH1 0x1 DUP2 DUP2 SHR SWAP1 DUP1 DUP4 AND SWAP3 DUP4 ISZERO PUSH2 0x7FA JUMPI JUMPDEST PUSH1 0x20 SWAP4 DUP5 DUP5 LT DUP2 EQ PUSH2 0x3AC JUMPI DUP4 DUP9 MSTORE SWAP1 DUP2 ISZERO PUSH2 0x7DE JUMPI POP PUSH1 0x1 EQ PUSH2 0x788 JUMPI POP POP POP DUP3 SWAP1 SUB PUSH1 0x1F ADD PUSH1 0x1F NOT AND DUP3 ADD SWAP3 PUSH8 0xFFFFFFFFFFFFFFFF DUP5 GT DUP4 DUP6 LT OR PUSH2 0x328 JUMPI POP DUP3 SWAP2 DUP3 PUSH2 0x324 SWAP3 MSTORE DUP3 PUSH2 0x804 JUMP JUMPDEST PUSH1 0x3 DUP8 MSTORE SWAP2 SWAP3 POP DUP6 SWAP2 DUP4 PUSH32 0xC2575A0E9E593C00F959F8C92F12DB2869C3395A3B0502D05E2516446F71F85B JUMPDEST DUP4 DUP6 LT PUSH2 0x7CA JUMPI POP POP POP POP DUP4 ADD ADD DUP6 DUP1 DUP1 PUSH2 0x2F2 JUMP JUMPDEST DUP1 SLOAD DUP9 DUP7 ADD DUP4 ADD MSTORE SWAP4 ADD SWAP3 DUP5 SWAP1 DUP3 ADD PUSH2 0x7B4 JUMP JUMPDEST PUSH1 0xFF NOT AND DUP8 DUP6 ADD MSTORE POP POP ISZERO ISZERO PUSH1 0x5 SHL DUP5 ADD ADD SWAP1 POP DUP6 DUP1 DUP1 PUSH2 0x2F2 JUMP JUMPDEST SWAP2 PUSH1 0x7F AND SWAP2 PUSH2 0x738 JUMP JUMPDEST PUSH1 0x20 DUP1 DUP3 MSTORE DUP3 MLOAD DUP2 DUP4 ADD DUP2 SWAP1 MSTORE SWAP1 SWAP4 SWAP3 PUSH1 0x0 JUMPDEST DUP3 DUP2 LT PUSH2 0x839 JUMPI POP POP PUSH1 0x40 SWAP3 SWAP4 POP PUSH1 0x0 DUP4 DUP3 DUP5 ADD ADD MSTORE PUSH1 0x1F DUP1 NOT SWAP2 ADD AND ADD ADD SWAP1 JUMP JUMPDEST DUP2 DUP2 ADD DUP7 ADD MLOAD DUP5 DUP3 ADD PUSH1 0x40 ADD MSTORE DUP6 ADD PUSH2 0x817 JUMP JUMPDEST PUSH1 0x4 CALLDATALOAD SWAP1 PUSH1 0x1 PUSH1 0x1 PUSH1 0xA0 SHL SUB DUP3 AND DUP3 SUB PUSH2 0x863 JUMPI JUMP JUMPDEST PUSH1 0x0 DUP1 REVERT JUMPDEST PUSH1 0x24 CALLDATALOAD SWAP1 PUSH1 0x1 PUSH1 0x1 PUSH1 0xA0 SHL SUB DUP3 AND DUP3 SUB PUSH2 0x863 JUMPI JUMP JUMPDEST PUSH1 0x5 SLOAD PUSH1 0x1 PUSH1 0x1 PUSH1 0xA0 SHL SUB AND CALLER SUB PUSH2 0x892 JUMPI JUMP JUMPDEST PUSH1 0x40 MLOAD PUSH4 0x118CDAA7 PUSH1 0xE0 SHL DUP2 MSTORE CALLER PUSH1 0x4 DUP3 ADD MSTORE PUSH1 0x24 SWAP1 REVERT JUMPDEST SWAP2 PUSH1 0x1 PUSH1 0x1 PUSH1 0xA0 SHL SUB DUP1 DUP5 AND SWAP3 DUP4 ISZERO PUSH2 0x96F JUMPI AND SWAP3 DUP4 ISZERO PUSH2 0x956 JUMPI PUSH1 0x0 SWAP1 DUP4 DUP3 MSTORE DUP2 PUSH1 0x20 MSTORE PUSH1 0x40 DUP3 KECCAK256 SLOAD SWAP1 DUP4 DUP3 LT PUSH2 0x924 JUMPI POP SWAP2 PUSH1 0x40 DUP3 DUP3 PUSH32 0xDDF252AD1BE2C89B69C2B068FC378DAA952BA7F163C4A11628F55A4DF523B3EF SWAP6 DUP8 PUSH1 0x20 SWAP7 MSTORE DUP3 DUP7 MSTORE SUB DUP3 DUP3 KECCAK256 SSTORE DUP7 DUP2 MSTORE KECCAK256 DUP2 DUP2 SLOAD ADD SWAP1 SSTORE PUSH1 0x40 MLOAD SWAP1 DUP2 MSTORE LOG3 JUMP JUMPDEST PUSH1 0x40 MLOAD PUSH4 0x391434E3 PUSH1 0xE2 SHL DUP2 MSTORE PUSH1 0x1 PUSH1 0x1 PUSH1 0xA0 SHL SUB SWAP2 SWAP1 SWAP2 AND PUSH1 0x4 DUP3 ADD MSTORE PUSH1 0x24 DUP2 ADD SWAP2 SWAP1 SWAP2 MSTORE PUSH1 0x44 DUP2 ADD DUP4 SWAP1 MSTORE PUSH1 0x64 SWAP1 REVERT JUMPDEST PUSH1 0x40 MLOAD PUSH4 0xEC442F05 PUSH1 0xE0 SHL DUP2 MSTORE PUSH1 0x0 PUSH1 0x4 DUP3 ADD MSTORE PUSH1 0x24 SWAP1 REVERT JUMPDEST PUSH1 0x40 MLOAD PUSH4 0x4B637E8F PUSH1 0xE1 SHL DUP2 MSTORE PUSH1 0x0 PUSH1 0x4 DUP3 ADD MSTORE PUSH1 0x24 SWAP1 REVERT INVALID LOG2 PUSH5 0x6970667358 0x22 SLT KECCAK256 0xD4 PUSH24 0xD53004235012708F36030117A264E05EC095F5D051B49E39 SWAP7 0xB2 COINBASE DUP7 PUSH21 0x3C64736F6C63430008140033000000000000000000 "},"methodIdentifiers":{"MAX_BPS()":"fd967f47","STRAT_A_WEIGHT()":"5646b995","STRAT_B_WEIGHT()":"40f4520c","convertToAssets(uint256)":"07a2d13a","convertToShares(uint256)":"c6e6f592","deposit(uint256,uint256)":"e2bbb158","emergencyWithdrawAll()":"dd191719","getStrategyAPYs()":"79664776","getUserPosition(address)":"5b7c2dad","isPaused()":"b187bd26","owner()":"8da5cb5b","rebalance()":"7d7c2a1c","renounceOwnership()":"715018a6","setPaused(bool)":"16c38b3c","setStrategies(address,address)":"c583214c","setTargetBuffer(uint256)":"c82b929d","sharePrice()":"87269729","shareToken()":"6c9fa59e","strategyA()":"e504d975","strategyB()":"d7ebce75","targetBufferBps()":"715857b0","totalAssets()":"01e1d114","transferOwnership(address)":"f2fde38b","underlying()":"6f307dc3","withdraw(uint256)":"2e1a7d4d"}}}}}