{"contracts/LiteVault.sol":{"LiteVault":{"abi":[{"inputs":[{"internalType":"address","name":"_underlying","type":"address"},{"internalType":"address","name":"_initialOwner","type":"address"}],"stateMutability":"nonpayable","type":"constructor"},{"inputs":[{"internalType":"address","name":"owner","type":"address"}],"name":"OwnableInvalidOwner","type":"error"},{"inputs":[{"internalType":"address","name":"account","type":"address"}],"name":"OwnableUnauthorizedAccount","type":"error"},{"inputs":[],"name":"ReentrancyGuardReentrantCall","type":"error"},{"inputs":[{"internalType":"address","name":"token","type":"address"}],"name":"SafeERC20FailedOperation","type":"error"},{"anonymous":false,"inputs":[{"indexed":true,"internalType":"address","name":"user","type":"address"},{"indexed":false,"internalType":"uint256","name":"amount","type":"uint256"},{"indexed":false,"internalType":"uint256","name":"shares","type":"uint256"}],"name":"Deposit","type":"event"},{"anonymous":false,"inputs":[],"name":"EmergencyWithdraw","type":"event"},{"anonymous":false,"inputs":[{"indexed":true,"internalType":"address","name":"previousOwner","type":"address"},{"indexed":true,"internalType":"address","name":"newOwner","type":"address"}],"name":"OwnershipTransferred","type":"event"},{"anonymous":false,"inputs":[{"indexed":false,"internalType":"uint256","name":"stratAAssets","type":"uint256"},{"indexed":false,"internalType":"uint256","name":"stratBAssets","type":"uint256"}],"name":"Rebalance","type":"event"},{"anonymous":false,"inputs":[{"indexed":true,"internalType":"address","name":"user","type":"address"},{"indexed":false,"internalType":"uint256","name":"amount","type":"uint256"},{"indexed":false,"internalType":"uint256","name":"shares","type":"uint256"}],"name":"Withdraw","type":"event"},{"inputs":[],"name":"MAX_BPS","outputs":[{"internalType":"uint256","name":"","type":"uint256"}],"stateMutability":"view","type":"function"},{"inputs":[],"name":"STRAT_A_WEIGHT","outputs":[{"internalType":"uint256","name":"","type":"uint256"}],"stateMutability":"view","type":"function"},{"inputs":[],"name":"STRAT_B_WEIGHT","outputs":[{"internalType":"uint256","name":"","type":"uint256"}],"stateMutability":"view","type":"function"},{"inputs":[{"internalType":"uint256","name":"shares","type":"uint256"}],"name":"convertToAssets","outputs":[{"internalType":"uint256","name":"","type":"uint256"}],"stateMutability":"view","type":"function"},{"inputs":[{"internalType":"uint256","name":"assets","type":"uint256"}],"name":"convertToShares","outputs":[{"internalType":"uint256","name":"","type":"uint256"}],"stateMutability":"view","type":"function"},{"inputs":[{"internalType":"uint256","name":"amount","type":"uint256"},{"internalType":"uint256","name":"minShares","type":"uint256"}],"name":"deposit","outputs":[],"stateMutability":"nonpayable","type":"function"},{"inputs":[],"name":"emergencyWithdrawAll","outputs":[],"stateMutability":"nonpayable","type":"function"},{"inputs":[],"name":"getStrategyAPYs","outputs":[{"internalType":"uint256","name":"apyA","type":"uint256"},{"internalType":"uint256","name":"apyB","type":"uint256"}],"stateMutability":"view","type":"function"},{"inputs":[{"internalType":"address","name":"user","type":"address"}],"name":"getUserPosition","outputs":[{"internalType":"uint256","name":"","type":"uint256"}],"stateMutability":"view","type":"function"},{"inputs":[],"name":"isPaused","outputs":[{"internalType":"bool","name":"","type":"bool"}],"stateMutability":"view","type":"function"},{"inputs":[],"name":"owner","outputs":[{"internalType":"address","name":"","type":"address"}],"stateMutability":"view","type":"function"},{"inputs":[],"name":"rebalance","outputs":[],"stateMutability":"nonpayable","type":"function"},{"inputs":[],"name":"renounceOwnership","outputs":[],"stateMutability":"nonpayable","type":"function"},{"inputs":[{"internalType":"bool","name":"_paused","type":"bool"}],"name":"setPaused","outputs":[],"stateMutability":"nonpayable","type":"function"},{"inputs":[{"internalType":"address","name":"_stratA","type":"address"},{"internalType":"address","name":"_stratB","type":"address"}],"name":"setStrategies","outputs":[],"stateMutability":"nonpayable","type":"function"},{"inputs":[{"internalType":"uint256","name":"_bps","type":"uint256"}],"name":"setTargetBuffer","outputs":[],"stateMutability":"nonpayable","type":"function"},{"inputs":[],"name":"sharePrice","outputs":[{"internalType":"uint256","name":"","type":"uint256"}],"stateMutability":"view","type":"function"},{"inputs":[],"name":"shareToken","outputs":[{"internalType":"contract YLTC","name":"","type":"address"}],"stateMutability":"view","type":"function"},{"inputs":[],"name":"strategyA","outputs":[{"internalType":"contract IStrategy","name":"","type":"address"}],"stateMutability":"view","type":"function"},{"inputs":[],"name":"strategyB","outputs":[{"internalType":"contract IStrategy","name":"","type":"address"}],"stateMutability":"view","type":"function"},{"inputs":[],"name":"targetBufferBps","outputs":[{"internalType":"uint256","name":"","type":"uint256"}],"stateMutability":"view","type":"function"},{"inputs":[],"name":"totalAssets","outputs":[{"internalType":"uint256","name":"","type":"uint256"}],"stateMutability":"view","type":"function"},{"inputs":[{"internalType":"address","name":"newOwner","type":"address"}],"name":"transferOwnership","outputs":[],"stateMutability":"nonpayable","type":"function"},{"inputs":[],"name":"underlying","outputs":[{"internalType":"contract IERC20","name":"","type":"address"}],"stateMutability":"view","type":"function"},{"inputs":[{"internalType":"uint256","name":"shares","type":"uint256"}],"name":"withdraw","outputs":[],"stateMutability":"nonpayable","type":"function"}],"evm":{"bytecode":{"linkReferences":{},"object":"60c034620001bc5762003035906001600160401b03601f38849003908101601f191683019082821184831017620001c15780849160409687948552833981010312620001bc576200005e60206200005684620001d7565b9301620001d7565b60017f9b779b17422d0df92223018b32b4d1fa46e071723d6817e2486d003becc55f00556001600160a01b0390811691908215620001a457600080546001600160a01b03198116851782558651919591949083167f8be0079c531659141344cd1fd0a4f28419497f9722a3daafe3b4186f6b6457e08780a36105dc60035516608052610d958281019182118383101762000190576020918391620022a0833930815203019082f090811562000185575060a052516120b39081620001ed823960805181818161025f0152818161098801528181610f6a015281816111590152818161173a01528181611c110152611d82015260a05181818161037501528181610fae0152818161108e01528181611900015281816119a901528181611eca0152611f970152f35b8251903d90823e3d90fd5b634e487b7160e01b84526041600452602484fd5b8451631e4fbdf760e01b815260006004820152602490fd5b600080fd5b634e487b7160e01b600052604160045260246000fd5b51906001600160a01b0382168203620001bc5756fe6040608081526004908136101561001557600080fd5b600091823560e01c90816301e1d1141461164557816307a2d13a1461162557816316c38b3c146115ef5781632e1a7d4d1461103d57816340f4520c146110205781635646b995146110035781635b7c2dad14610fdd5781636c9fa59e14610f995781636f307dc314610f55578163715018a614610efb578163715857b014610edc5781637966477614610dc25781637d7c2a1c1461093157816387269729146109145781638da5cb5b146108ec578163b187bd26146108c9578163c583214c1461086b578163c6e6f59214610838578163c82b929d146107d1578163d7ebce75146107a857838263dd1917191461067357508163e2bbb15814610215578163e504d975146101ec578163f2fde38b14610157575063fd967f471461013857600080fd5b34610153578160031936011261015357602090516127108152f35b5080fd5b9050346101e85760203660031901126101e857610172611662565b9061017b611678565b6001600160a01b039182169283156101d2575050600054826bffffffffffffffffffffffff60a01b821617600055167f8be0079c531659141344cd1fd0a4f28419497f9722a3daafe3b4186f6b6457e0600080a380f35b51631e4fbdf760e01b8152908101849052602490fd5b8280fd5b50503461015357816003193601126101535760015490516001600160a01b039091168152602090f35b9050346101e857816003193601126101e857803591610232611a74565b60ff82541661064057610243611ab6565b80516370a0823160e01b80825230828501526001600160a01b037f000000000000000000000000000000000000000000000000000000000000000081811695909360209392602491858184818c5afa908115610636578b91610609575b506001548490879084168015610600578a516278744560e21b815292839182905afa9081156105f6578c916105c9575b505b6002548590889085168e81156105b257508b516278744560e21b815292839182905afa9081156105a8578d91610577575b506103209261031a92610315916116f0565b6116f0565b8a6118e8565b9561032c871515611a33565b823587106105415787516323b872dd60e01b8c5233855230845260448b905290868c60648180855af19060018d5114821615610522575b508189528b6060521561050e575089907f000000000000000000000000000000000000000000000000000000000000000016803b156101535787516340c10f1960e01b815233858201908152602081018990529091839183919082908490829060400103925af18015610504579086949392916104e7575b50506127106103f46103eb611713565b600354906118b5565b049387519889938492835230908301525afa80156104dd57879061048b575b7f90890809c654f11d6e72a28fa60149770a0d11ec6c92319d6ceb2bb0a4ea1a159550818111610472575b505082519485528401523392a260017f9b779b17422d0df92223018b32b4d1fa46e071723d6817e2486d003becc55f005580f35b6104849161047f91611b75565b611b9a565b388061043e565b508185813d83116104d6575b6104a181836116ce565b810103126104d1577f90890809c654f11d6e72a28fa60149770a0d11ec6c92319d6ceb2bb0a4ea1a159451610413565b600080fd5b503d610497565b84513d89823e3d90fd5b6104f3919294506116a4565b61050057839189386103db565b8880fd5b88513d84823e3d90fd5b635274afe760e01b81528381018990529050fd5b6001821516610538573b15153d15161638610363565b823d8e823e3d90fd5b875162461bcd60e51b81528085018790526011818501527014db1a5c1c1859d948195e18d959591959607a1b6044820152606490fd5b9290508783813d83116105a1575b61058f81836116ce565b810103126104d1579151610315610303565b503d610585565b8a513d8f823e3d90fd5b610320959350610315925061031a949150926116f0565b90508681813d83116105ef575b6105e081836116ce565b810103126104d15751386102d0565b503d6105d6565b89513d8e823e3d90fd5b5050508a6102d2565b90508581813d831161062f575b61062081836116ce565b810103126104d15751386102a0565b503d610616565b88513d8d823e3d90fd5b906020606492519162461bcd60e51b8352820152600d60248201526c15985d5b1d0e881c185d5cd959609a1b6044820152fd5b9150913461015357816003193601126101535761068e611678565b6001546001600160a01b03908390821680610744575b505060025416806106e5575b505050600160ff198254161790557fcc6a1a065ab514031862e10458cbf117148ff1f8a168cfacab350e6644c174f08180a180f35b602090848351809581936336cb886f60e21b83525af190811561073b5750610710575b8083916106b0565b602090813d8111610734575b61072681836116ce565b810103126104d15738610708565b503d61071c565b513d85823e3d90fd5b602090868551809481936336cb886f60e21b83525af1801561079b5761076c575b83906106a4565b6020809294503d8111610794575b61078481836116ce565b810103126104d157839138610765565b503d61077a565b50505051903d90823e3d90fd5b50503461015357816003193601126101535760025490516001600160a01b039091168152602090f35b9050346101e85760203660031901126101e8578035916107ef611678565b612710831161080057505060035580f35b906020606492519162461bcd60e51b835282015260126024820152715661756c743a20696e76616c69642062707360701b6044820152fd5b828434610868576020366003190112610868575061086160209261085a611713565b90356118e8565b9051908152f35b80fd5b5050346101535736600319011261086857610884611662565b6024356001600160a01b0381811692918390036104d1576108a3611678565b6bffffffffffffffffffffffff60a01b9116816001541617600155600254161760025580f35b8284346108685780600319360112610868575060ff602092541690519015158152f35b505034610153578160031936011261015357905490516001600160a01b039091168152602090f35b505034610153578160031936011261015357602090610861611eb5565b919050346101e857826003193601126101e85761094c611678565b610954611ab6565b6127106109626103eb611713565b82516370a0823160e01b815230858201526001600160a01b0392602092049082816024817f000000000000000000000000000000000000000000000000000000000000000088165afa908115610db8578791610d8b575b5081811115610b1f576109cf9161047f91611b75565b6001548490829084168015610b155785516278744560e21b815292839182905afa908115610b0b578691610ade575b50915b600254168015610ab35781908451958680926278744560e21b82525afa8015610aa9578590610a5c575b7f0b33d39bbef101ecc4f5ef04e6d3a125c9fb745a418dac380e2a9460f8200dc89450905b8351928352820152a180f35b508084813d8311610aa2575b610a7281836116ce565b810103126104d1577f0b33d39bbef101ecc4f5ef04e6d3a125c9fb745a418dac380e2a9460f8200dc89351610a2b565b503d610a68565b83513d87823e3d90fd5b507f0b33d39bbef101ecc4f5ef04e6d3a125c9fb745a418dac380e2a9460f8200dc893508490610a50565b90508181813d8311610b04575b610af581836116ce565b810103126104d15751386109fe565b503d610aeb565b84513d88823e3d90fd5b5050508491610a01565b818110610b2e575b50506109cf565b610b3791611b75565b826001541680610cb1575b5080151580610ca4575b610bb1575b610b5c573880610b27565b8360849184519162461bcd60e51b8352820152602a60248201527f5661756c743a20696e73756666696369656e74206c697175696469747920746f60448201526920726562616c616e636560b01b6064820152fd5b82600254168685516278744560e21b815284818981865afa908115610c9a579085918391610c6a575b5080851115610c6257925b83610bf4575b50505050610b51565b6024885180948193632e1a7d4d60e01b8352878d8401525af18015610c5857908491610c2f575b5050610c2691611b75565b38868382610beb565b813d8311610c51575b610c4281836116ce565b810103126104d1578238610c1b565b503d610c38565b86513d8a823e3d90fd5b508392610be5565b92505081813d8311610c93575b610c8181836116ce565b810103126104d1578388915138610bda565b503d610c77565b87513d84823e3d90fd5b5082600254161515610b4c565b84516278744560e21b8152879084818981865afa908115610c9a579085918391610d5b575b5080851115610d5357925b83610cef575b505050610b42565b6024885180948193632e1a7d4d60e01b8352878d8401525af18015610c5857908491610d2a575b5050610d2191611b75565b38868382610ce7565b813d8311610d4c575b610d3d81836116ce565b810103126104d1578238610d16565b503d610d33565b508392610ce1565b92505081813d8311610d84575b610d7281836116ce565b810103126104d1578388915138610cd6565b503d610d68565b90508281813d8311610db1575b610da281836116ce565b810103126104d15751386109b9565b503d610d98565b85513d89823e3d90fd5b83915034610153578160031936011261015357600154829182916001600160a01b0390811680610e71575b506002541680610e07575b50505082519182526020820152f35b85516351618ed360e01b8152929350602091839182905afa918215610e665791610e35575b50838080610df8565b90506020813d8211610e5e575b81610e4f602093836116ce565b810103126104d1575183610e2c565b3d9150610e42565b8451903d90823e3d90fd5b86516351618ed360e01b81529195506020908290849082905afa908115610ed2578391610ea1575b509386610ded565b90506020813d8211610eca575b81610ebb602093836116ce565b810103126104d1575186610e99565b3d9150610eae565b86513d85823e3d90fd5b5050346101535781600319360112610153576020906003549051908152f35b8334610868578060031936011261086857610f14611678565b600080546001600160a01b0319811682556001600160a01b03167f8be0079c531659141344cd1fd0a4f28419497f9722a3daafe3b4186f6b6457e08280a380f35b505034610153578160031936011261015357517f00000000000000000000000000000000000000000000000000000000000000006001600160a01b03168152602090f35b505034610153578160031936011261015357517f00000000000000000000000000000000000000000000000000000000000000006001600160a01b03168152602090f35b50503461015357602036600319011261015357602090610861610ffe611662565b611f74565b50503461015357816003193601126101535760209051611b588152f35b50503461015357816003193601126101535760209051610bb88152f35b83833461015357602090816003193601126101e857833561105c611a74565b611064611ab6565b61106f811515611a33565b81516370a0823160e01b80825233878301526024966001600160a01b037f0000000000000000000000000000000000000000000000000000000000000000811696939092919084818b818b5afa908115611506579086918a916115be575b501061157c576110e46110de611713565b866118b5565b86516318160ddd60e01b8152858184818c5afa9081156114e9578a91611549575b5061110f916118c8565b96871561151057803b15610500578651632770a7eb60e21b8152338382019081526020810188905290918a9183919082908490829060400103925af18015611506576114f3575b507f000000000000000000000000000000000000000000000000000000000000000092808416928751908152308382015285818c81875afa9081156114e9578a916114bc575b50888110611263575b5050855163a9059cbb60e01b8952338252878a5292848960448180855af19060018a5114821615611244575b508387521561123257505083519485525083015233917ff279e6a1f5e320cca91135676d9cb6e44ca8a08c0b88342bcdb1144f6511b5689190a260017f9b779b17422d0df92223018b32b4d1fa46e071723d6817e2486d003becc55f005580f35b635274afe760e01b8352820152869150fd5b600182151661125a573b15153d1516168a6111d1565b843d8b823e3d90fd5b61126d9089611b75565b8160015416806113d3575b5090811515806113c6575b6112e0575b506112945789806111a5565b855162461bcd60e51b81529081018490526021818a01527f5661756c743a207374726174656779207769746864726177616c206661696c656044820152601960fa1b6064820152608490fd5b6002541687516278744560e21b815286818581855afa908115611384578b9188918391611396575b508085111561138e57925b83611321575b505050611288565b8d8b5180948193632e1a7d4d60e01b8352878a8401525af180156113845790879161135b575b505061135291611b75565b8a898682611319565b813d831161137d575b61136e81836116ce565b810103126104d157858c611347565b503d611364565b89513d8d823e3d90fd5b508392611313565b92505081813d83116113bf575b6113ad81836116ce565b810103126104d157868b91518e611308565b503d6113a3565b5080600254161515611283565b88516278744560e21b815287818681855afa908115611476578d928d928a928491611488575b508086111561148057935b84611413575b50505050611278565b8c5180948193632e1a7d4d60e01b8352878b8401525af180156114765790889161144d575b505061144391611b75565b8b8a87828e61140a565b813d831161146f575b61146081836116ce565b810103126104d157868d611438565b503d611456565b8a513d8e823e3d90fd5b508493611404565b945050915082813d83116114b5575b6114a181836116ce565b810103126104d157878c918e9351386113f9565b503d611497565b90508581813d83116114e2575b6114d381836116ce565b810103126104d157518b61119c565b503d6114c9565b88513d8c823e3d90fd5b6114ff909891986116a4565b9689611156565b87513d8b823e3d90fd5b865162461bcd60e51b81528083018690526014818c0152735661756c743a207a65726f20776974686472617760601b6044820152606490fd5b90508581813d8311611575575b61156081836116ce565b81010312611571575161110f611105565b8980fd5b503d611556565b855162461bcd60e51b8152908101849052601a818a01527f5661756c743a20696e73756666696369656e74207368617265730000000000006044820152606490fd5b809250868092503d83116115e8575b6115d781836116ce565b81010312610500578590518b6110cd565b503d6115cd565b8390346101535760203660031901126101535780358015158091036101e857611616611678565b60ff8019835416911617905580f35b828434610868576020366003190112610868575061086160209235611994565b505034610153578160031936011261015357602090610861611713565b600435906001600160a01b03821682036104d157565b6000546001600160a01b0316330361168c57565b60405163118cdaa760e01b8152336004820152602490fd5b67ffffffffffffffff81116116b857604052565b634e487b7160e01b600052604160045260246000fd5b90601f8019910116810190811067ffffffffffffffff8211176116b857604052565b919082018092116116fd57565b634e487b7160e01b600052601160045260246000fd5b604080516370a0823160e01b8152306004820152906001600160a01b0390602080846024817f000000000000000000000000000000000000000000000000000000000000000087165afa9384156118aa5760009461187b575b506001546000908290851680156118735784516278744560e21b81529250829060049082905afa9081156118685760009161183b575b50925b6002541660008115611827575090806004928451938480926278744560e21b82525afa92831561181d57506000926117ec575b50506117e9929161031591926116f0565b90565b81819392933d8311611816575b61180381836116ce565b81010312610868575051816103156117d8565b503d6117f9565b513d6000823e3d90fd5b905061031592506117e994939150926116f0565b908282813d8311611861575b61185181836116ce565b81010312610868575051386117a2565b503d611847565b83513d6000823e3d90fd5b5050926117a5565b90938482813d83116118a3575b61189281836116ce565b81010312610868575051923861176c565b503d611888565b82513d6000823e3d90fd5b818102929181159184041417156116fd57565b81156118d2570490565b634e487b7160e01b600052601260045260246000fd5b6040516318160ddd60e01b81529091906020816004817f00000000000000000000000000000000000000000000000000000000000000006001600160a01b03165afa90811561198857600091611957575b5080156119525761194d906117e9936118b5565b6118c8565b505090565b906020823d8211611980575b81611970602093836116ce565b8101031261086857505138611939565b3d9150611963565b6040513d6000823e3d90fd5b6040516318160ddd60e01b81526020816004817f00000000000000000000000000000000000000000000000000000000000000006001600160a01b03165afa90811561198857600091611a02575b5080156119fe5761194d6117e9926119f8611713565b906118b5565b5090565b906020823d8211611a2b575b81611a1b602093836116ce565b81010312610868575051386119e2565b3d9150611a0e565b15611a3a57565b60405162461bcd60e51b81526020600482015260126024820152715661756c743a20736861726573207a65726f60701b6044820152606490fd5b7f9b779b17422d0df92223018b32b4d1fa46e071723d6817e2486d003becc55f006002815414611aa45760029055565b604051633ee5aeb560e01b8152600490fd5b6001546001600160a01b0390811680611b25575b506002541680611ad75750565b602060009160046040518094819363059d9c7560e01b83525af1801561198857611afe5750565b602090813d8111611b1e575b611b1481836116ce565b810103126104d157565b503d611b0a565b602060009160046040518094819363059d9c7560e01b83525af180156119885715611aca57602090813d8111611b6e575b611b6081836116ce565b810103126104d15738611aca565b503d611b56565b919082039182116116fd57565b908160209103126104d1575180151581036104d15790565b611b588082029082820414821517156116fd57612710611bbc91048092611b75565b9080151580611ea1575b611d4d575b5080151580611d39575b611bdc5750565b6002546040805163095ea7b360e01b8082526001600160a01b03938416600483015260006024830181905294602094909290917f000000000000000000000000000000000000000000000000000000000000000083169186816044818b875af18015610c58579287928692611c8395611d1c575b50600254885191825286166001600160a01b031660048201526024810192909252909283919082908a9082906044820190565b03925af18015610b0b57859287959492602492611cef575b5060025416918451958693849263b6b55f2560e01b845260048401525af190811561073b5750611cca57505050565b813d8311611ce8575b611cdd81836116ce565b810103126108685750565b503d611cd3565b611d0e90853d8711611d15575b611d0681836116ce565b810190611b82565b5038611c9b565b503d611cfc565b611d3290853d8711611d1557611d0681836116ce565b5038611c50565b506002546001600160a01b03161515611bd5565b6001546040805163095ea7b360e01b8082526001600160a01b03938416600483015260006024830181905294602094909290917f000000000000000000000000000000000000000000000000000000000000000083169186816044818b875af18015610c58579287928692611df495611e84575b50600154885191825286166001600160a01b031660048201526024810192909252909283919082908a9082906044820190565b03925af18015610b0b57859287959492602492611e67575b5060015416918451958693849263b6b55f2560e01b845260048401525af190811561073b5750611e3e575b5050611bcb565b813d8311611e60575b611e5181836116ce565b81010312610868578080611e37565b503d611e47565b611e7d90853d8711611d1557611d0681836116ce565b5038611e0c565b611e9a90853d8711611d1557611d0681836116ce565b5038611dc1565b506001546001600160a01b03161515611bc6565b6040516318160ddd60e01b81526020816004817f00000000000000000000000000000000000000000000000000000000000000006001600160a01b03165afa90811561198857600091611f43575b508015611f3657611f12611713565b90670de0b6b3a7640000918281029281840414901517156116fd576117e9916118c8565b50670de0b6b3a764000090565b906020823d8211611f6c575b81611f5c602093836116ce565b8101031261086857505138611f03565b3d9150611f4f565b6040516370a0823160e01b81526001600160a01b039182166004820152602092917f000000000000000000000000000000000000000000000000000000000000000016908381602481855afa90811561198857600091612050575b5080156120485783611fe56004926119f8611713565b92604051928380926318160ddd60e01b82525afa93841561198857600094612015575b5050916117e991926118c8565b81813d8311612041575b61202981836116ce565b8101031261203d575192506117e938612008565b8380fd5b503d61201f565b506000925050565b908482813d8311612076575b61206681836116ce565b8101031261086857505138611fcf565b503d61205c56fea2646970667358221220f949046ac3d69dac7d53e666d897d99b4f42014a3e6463380f5d0bf598e20c1f64736f6c634300081400336080346200039b576001600160401b03601f601f1962000d95388190038381018316860185811187821017620003a0578692829160405283396020958691810103126200039b57516001600160a01b039485821694918590036200039b5762000067620003b6565b60098152685969656c64204c544360b81b8282015262000086620003b6565b9460049586815263794c544360e01b84820152825193858511620002a1576003948554946001958681811c9116801562000390575b848210146200037b5790818684931162000325575b508390868311600114620002c257600092620002b6575b505060001982881b1c191690851b1785555b8151958611620002a15787548481811c9116801562000296575b82821014620002815783811162000236575b5080928611600114620001ca575084955090849291600095620001be575b50501b92600019911b1c19161781555b8115620001a65750600580546001600160a01b03198116831790915560405192167f8be0079c531659141344cd1fd0a4f28419497f9722a3daafe3b4186f6b6457e0600080a36109be9081620003d78239f35b602490600060405191631e4fbdf760e01b8352820152fd5b01519350388062000143565b939295859081168860005285600020956000905b898383106200021b575050501062000200575b50505050811b01815562000153565b01519060f884600019921b161c1916905538808080620001f1565b858701518955909701969485019488935090810190620001de565b88600052816000208480890160051c820192848a1062000277575b0160051c019085905b8281106200026a57505062000125565b600081550185906200025a565b9250819262000251565b602289634e487b7160e01b6000525260246000fd5b90607f169062000113565b604188634e487b7160e01b6000525260246000fd5b015190503880620000e7565b908a8894169189600052856000209260005b878282106200030e5750508411620002f5575b505050811b018555620000f9565b0151600019838a1b60f8161c19169055388080620002e7565b8385015186558b97909501949384019301620002d4565b90915087600052836000208680850160051c82019286861062000371575b918991869594930160051c01915b82811062000361575050620000d0565b6000815585945089910162000351565b9250819262000343565b60228b634e487b7160e01b6000525260246000fd5b90607f1690620000bb565b600080fd5b634e487b7160e01b600052604160045260246000fd5b60408051919082016001600160401b03811183821017620003a05760405256fe6080604081815260048036101561001557600080fd5b600092833560e01c90816306fdde031461070f57508063095ea7b31461066657806318160ddd1461064757806323b872dd14610554578063313ce5671461053857806340c10f191461048957806370a0823114610452578063715018a6146103f25780638da5cb5b146103c957806395d89b41146102a95780639dc29fac146101cd578063a9059cbb1461019c578063dd62ed3e1461014f5763f2fde38b146100bd57600080fd5b3461014b57602036600319011261014b576100d661084d565b906100df61087e565b6001600160a01b03918216928315610135575050600554826bffffffffffffffffffffffff60a01b821617600555167f8be0079c531659141344cd1fd0a4f28419497f9722a3daafe3b4186f6b6457e08380a380f35b51631e4fbdf760e01b8152908101849052602490fd5b8280fd5b5050346101985780600319360112610198578060209261016d61084d565b610175610868565b6001600160a01b0391821683526001865283832091168252845220549051908152f35b5080fd5b5050346101985780600319360112610198576020906101c66101bc61084d565b60243590336108aa565b5160018152f35b508290346101985782600319360112610198576101e861084d565b90602435906101f561087e565b6001600160a01b0383169283156102925783855284602052858520549183831061025e5750508184957fddf252ad1be2c89b69c2b068fc378daa952ba7f163c4a11628f55a4df523b3ef936020938688528785520381872055816002540360025551908152a380f35b865163391434e360e21b81526001600160a01b03909216908201908152602081018390526040810184905281906060010390fd5b8551634b637e8f60e11b8152808301869052602490fd5b50919034610198578160031936011261019857805190828454600181811c908083169283156103bf575b60209384841081146103ac57838852908115610390575060011461033b575b505050829003601f01601f191682019267ffffffffffffffff8411838510176103285750829182610324925282610804565b0390f35b634e487b7160e01b815260418552602490fd5b8787529192508591837f8a35acfbc15ff81a39ae7d344fd709f28e8600b4aa8c65c6b64bfe7fe36bd19b5b83851061037c57505050508301013880806102f2565b805488860183015293019284908201610366565b60ff1916878501525050151560051b84010190503880806102f2565b634e487b7160e01b895260228a52602489fd5b91607f16916102d3565b50503461019857816003193601126101985760055490516001600160a01b039091168152602090f35b833461044f578060031936011261044f5761040b61087e565b600580546001600160a01b0319811690915581906001600160a01b03167f8be0079c531659141344cd1fd0a4f28419497f9722a3daafe3b4186f6b6457e08280a380f35b80fd5b5050346101985760203660031901126101985760209181906001600160a01b0361047a61084d565b16815280845220549051908152f35b50903461014b578060031936011261014b576104a361084d565b90602435916104b061087e565b6001600160a01b03169283156105235760025490838201809211610510575084927fddf252ad1be2c89b69c2b068fc378daa952ba7f163c4a11628f55a4df523b3ef9260209260025585855284835280852082815401905551908152a380f35b634e487b7160e01b865260119052602485fd5b84602492519163ec442f0560e01b8352820152fd5b5050346101985781600319360112610198576020905160128152f35b50823461044f57606036600319011261044f5761056f61084d565b610577610868565b916044359360018060a01b0383168083526001602052868320338452602052868320549160001983106105b3575b6020886101c68989896108aa565b86831061061b5781156106045733156105ed575082526001602090815286832033845281529186902090859003905582906101c6876105a5565b8751634a1406b160e11b8152908101849052602490fd5b875163e602df0560e01b8152908101849052602490fd5b8751637dc7a0d960e11b8152339181019182526020820193909352604081018790528291506060010390fd5b5050346101985781600319360112610198576020906002549051908152f35b503461014b578160031936011261014b5761067f61084d565b6024359033156106f8576001600160a01b03169182156106e157508083602095338152600187528181208582528752205582519081527f8c5be1e5ebec7d5bd14f71427d1e84f3dd0314c0f7b2291e5b200ac8c7c3b925843392a35160018152f35b8351634a1406b160e11b8152908101859052602490fd5b835163e602df0560e01b8152808401869052602490fd5b849150833461014b578260031936011261014b5782600354600181811c908083169283156107fa575b60209384841081146103ac578388529081156107de575060011461078857505050829003601f01601f191682019267ffffffffffffffff8411838510176103285750829182610324925282610804565b600387529192508591837fc2575a0e9e593c00f959f8c92f12db2869c3395a3b0502d05e2516446f71f85b5b8385106107ca57505050508301018580806102f2565b8054888601830152930192849082016107b4565b60ff1916878501525050151560051b84010190508580806102f2565b91607f1691610738565b6020808252825181830181905290939260005b82811061083957505060409293506000838284010152601f8019910116010190565b818101860151848201604001528501610817565b600435906001600160a01b038216820361086357565b600080fd5b602435906001600160a01b038216820361086357565b6005546001600160a01b0316330361089257565b60405163118cdaa760e01b8152336004820152602490fd5b916001600160a01b0380841692831561096f57169283156109565760009083825281602052604082205490838210610924575091604082827fddf252ad1be2c89b69c2b068fc378daa952ba7f163c4a11628f55a4df523b3ef958760209652828652038282205586815220818154019055604051908152a3565b60405163391434e360e21b81526001600160a01b03919091166004820152602481019190915260448101839052606490fd5b60405163ec442f0560e01b815260006004820152602490fd5b604051634b637e8f60e11b815260006004820152602490fdfea26469706673582212202c32b4275f5a34190ee31b1f0cebda3879a9850d554eb97448dd98a7e47a47f964736f6c63430008140033","opcodes":"PUSH1 0xC0 CALLVALUE PUSH3 0x1BC JUMPI PUSH3 0x3035 SWAP1 PUSH1 0x1 PUSH1 0x1 PUSH1 0x40 SHL SUB PUSH1 0x1F CODESIZE DUP5 SWAP1 SUB SWAP1 DUP2 ADD PUSH1 0x1F NOT AND DUP4 ADD SWAP1 DUP3 DUP3 GT DUP5 DUP4 LT OR PUSH3 0x1C1 JUMPI DUP1 DUP5 SWAP2 PUSH1 0x40 SWAP7 DUP8 SWAP5 DUP6 MSTORE DUP4 CODECOPY DUP2 ADD SUB SLT PUSH3 0x1BC JUMPI PUSH3 0x5E PUSH1 0x20 PUSH3 0x56 DUP5 PUSH3 0x1D7 JUMP JUMPDEST SWAP4 ADD PUSH3 0x1D7 JUMP JUMPDEST PUSH1 0x1 PUSH32 0x9B779B17422D0DF92223018B32B4D1FA46E071723D6817E2486D003BECC55F00 SSTORE PUSH1 0x1 PUSH1 0x1 PUSH1 0xA0 SHL SUB SWAP1 DUP2 AND SWAP2 SWAP1 DUP3 ISZERO PUSH3 0x1A4 JUMPI PUSH1 0x0 DUP1 SLOAD PUSH1 0x1 PUSH1 0x1 PUSH1 0xA0 SHL SUB NOT DUP2 AND DUP6 OR DUP3 SSTORE DUP7 MLOAD SWAP2 SWAP6 SWAP2 SWAP5 SWAP1 DUP4 AND PUSH32 0x8BE0079C531659141344CD1FD0A4F28419497F9722A3DAAFE3B4186F6B6457E0 DUP8 DUP1 LOG3 PUSH2 0x5DC PUSH1 0x3 SSTORE AND PUSH1 0x80 MSTORE PUSH2 0xD95 DUP3 DUP2 ADD SWAP2 DUP3 GT DUP4 DUP4 LT OR PUSH3 0x190 JUMPI PUSH1 0x20 SWAP2 DUP4 SWAP2 PUSH3 0x22A0 DUP4 CODECOPY ADDRESS DUP2 MSTORE SUB ADD SWAP1 DUP3 CREATE SWAP1 DUP2 ISZERO PUSH3 0x185 JUMPI POP PUSH1 0xA0 MSTORE MLOAD PUSH2 0x20B3 SWAP1 DUP2 PUSH3 0x1ED DUP3 CODECOPY PUSH1 0x80 MLOAD DUP2 DUP2 DUP2 PUSH2 0x25F ADD MSTORE DUP2 DUP2 PUSH2 0x988 ADD MSTORE DUP2 DUP2 PUSH2 0xF6A ADD MSTORE DUP2 DUP2 PUSH2 0x1159 ADD MSTORE DUP2 DUP2 PUSH2 0x173A ADD MSTORE DUP2 DUP2 PUSH2 0x1C11 ADD MSTORE PUSH2 0x1D82 ADD MSTORE PUSH1 0xA0 MLOAD DUP2 DUP2 DUP2 PUSH2 0x375 ADD MSTORE DUP2 DUP2 PUSH2 0xFAE ADD MSTORE DUP2 DUP2 PUSH2 0x108E ADD MSTORE DUP2 DUP2 PUSH2 0x1900 ADD MSTORE DUP2 DUP2 PUSH2 0x19A9 ADD MSTORE DUP2 DUP2 PUSH2 0x1ECA ADD MSTORE PUSH2 0x1F97 ADD MSTORE RETURN JUMPDEST DUP3 MLOAD SWAP1 RETURNDATASIZE SWAP1 DUP3 RETURNDATACOPY RETURNDATASIZE SWAP1 REVERT JUMPDEST PUSH4 0x4E487B71 PUSH1 0xE0 SHL DUP5 MSTORE PUSH1 0x41 PUSH1 0x4 MSTORE PUSH1 0x24 DUP5 REVERT JUMPDEST DUP5 MLOAD PUSH4 0x1E4FBDF7 PUSH1 0xE0 SHL DUP2 MSTORE PUSH1 0x0 PUSH1 0x4 DUP3 ADD MSTORE PUSH1 0x24 SWAP1 REVERT JUMPDEST PUSH1 0x0 DUP1 REVERT JUMPDEST PUSH4 0x4E487B71 PUSH1 0xE0 SHL PUSH1 0x0 MSTORE PUSH1 0x41 PUSH1 0x4 MSTORE PUSH1 0x24 PUSH1 0x0 REVERT JUMPDEST MLOAD SWAP1 PUSH1 0x1 PUSH1 0x1 PUSH1 0xA0 SHL SUB DUP3 AND DUP3 SUB PUSH3 0x1BC JUMPI JUMP INVALID PUSH1 0x40 PUSH1 0x80 DUP2 MSTORE PUSH1 0x4 SWAP1 DUP2 CALLDATASIZE LT ISZERO PUSH2 0x15 JUMPI PUSH1 0x0 DUP1 REVERT JUMPDEST PUSH1 0x0 SWAP2 DUP3 CALLDATALOAD PUSH1 0xE0 SHR SWAP1 DUP2 PUSH4 0x1E1D114 EQ PUSH2 0x1645 JUMPI DUP2 PUSH4 0x7A2D13A EQ PUSH2 0x1625 JUMPI DUP2 PUSH4 0x16C38B3C EQ PUSH2 0x15EF JUMPI DUP2 PUSH4 0x2E1A7D4D EQ PUSH2 0x103D JUMPI DUP2 PUSH4 0x40F4520C EQ PUSH2 0x1020 JUMPI DUP2 PUSH4 0x5646B995 EQ PUSH2 0x1003 JUMPI DUP2 PUSH4 0x5B7C2DAD EQ PUSH2 0xFDD JUMPI DUP2 PUSH4 0x6C9FA59E EQ PUSH2 0xF99 JUMPI DUP2 PUSH4 0x6F307DC3 EQ PUSH2 0xF55 JUMPI DUP2 PUSH4 0x715018A6 EQ PUSH2 0xEFB JUMPI DUP2 PUSH4 0x715857B0 EQ PUSH2 0xEDC JUMPI DUP2 PUSH4 0x79664776 EQ PUSH2 0xDC2 JUMPI DUP2 PUSH4 0x7D7C2A1C EQ PUSH2 0x931 JUMPI DUP2 PUSH4 0x87269729 EQ PUSH2 0x914 JUMPI DUP2 PUSH4 0x8DA5CB5B EQ PUSH2 0x8EC JUMPI DUP2 PUSH4 0xB187BD26 EQ PUSH2 0x8C9 JUMPI DUP2 PUSH4 0xC583214C EQ PUSH2 0x86B JUMPI DUP2 PUSH4 0xC6E6F592 EQ PUSH2 0x838 JUMPI DUP2 PUSH4 0xC82B929D EQ PUSH2 0x7D1 JUMPI DUP2 PUSH4 0xD7EBCE75 EQ PUSH2 0x7A8 JUMPI DUP4 DUP3 PUSH4 0xDD191719 EQ PUSH2 0x673 JUMPI POP DUP2 PUSH4 0xE2BBB158 EQ PUSH2 0x215 JUMPI DUP2 PUSH4 0xE504D975 EQ PUSH2 0x1EC JUMPI DUP2 PUSH4 0xF2FDE38B EQ PUSH2 0x157 JUMPI POP PUSH4 0xFD967F47 EQ PUSH2 0x138 JUMPI PUSH1 0x0 DUP1 REVERT JUMPDEST CALLVALUE PUSH2 0x153 JUMPI DUP2 PUSH1 0x3 NOT CALLDATASIZE ADD SLT PUSH2 0x153 JUMPI PUSH1 0x20 SWAP1 MLOAD PUSH2 0x2710 DUP2 MSTORE RETURN JUMPDEST POP DUP1 REVERT JUMPDEST SWAP1 POP CALLVALUE PUSH2 0x1E8 JUMPI PUSH1 0x20 CALLDATASIZE PUSH1 0x3 NOT ADD SLT PUSH2 0x1E8 JUMPI PUSH2 0x172 PUSH2 0x1662 JUMP JUMPDEST SWAP1 PUSH2 0x17B PUSH2 0x1678 JUMP JUMPDEST PUSH1 0x1 PUSH1 0x1 PUSH1 0xA0 SHL SUB SWAP2 DUP3 AND SWAP3 DUP4 ISZERO PUSH2 0x1D2 JUMPI POP POP PUSH1 0x0 SLOAD DUP3 PUSH12 0xFFFFFFFFFFFFFFFFFFFFFFFF PUSH1 0xA0 SHL DUP3 AND OR PUSH1 0x0 SSTORE AND PUSH32 0x8BE0079C531659141344CD1FD0A4F28419497F9722A3DAAFE3B4186F6B6457E0 PUSH1 0x0 DUP1 LOG3 DUP1 RETURN JUMPDEST MLOAD PUSH4 0x1E4FBDF7 PUSH1 0xE0 SHL DUP2 MSTORE SWAP1 DUP2 ADD DUP5 SWAP1 MSTORE PUSH1 0x24 SWAP1 REVERT JUMPDEST DUP3 DUP1 REVERT JUMPDEST POP POP CALLVALUE PUSH2 0x153 JUMPI DUP2 PUSH1 0x3 NOT CALLDATASIZE ADD SLT PUSH2 0x153 JUMPI PUSH1 0x1 SLOAD SWAP1 MLOAD PUSH1 0x1 PUSH1 0x1 PUSH1 0xA0 SHL SUB SWAP1 SWAP2 AND DUP2 MSTORE PUSH1 0x20 SWAP1 RETURN JUMPDEST SWAP1 POP CALLVALUE PUSH2 0x1E8 JUMPI DUP2 PUSH1 0x3 NOT CALLDATASIZE ADD SLT PUSH2 0x1E8 JUMPI DUP1 CALLDATALOAD SWAP2 PUSH2 0x232 PUSH2 0x1A74 JUMP JUMPDEST PUSH1 0xFF DUP3 SLOAD AND PUSH2 0x640 JUMPI PUSH2 0x243 PUSH2 0x1AB6 JUMP JUMPDEST DUP1 MLOAD PUSH4 0x70A08231 PUSH1 0xE0 SHL DUP1 DUP3 MSTORE ADDRESS DUP3 DUP6 ADD MSTORE PUSH1 0x1 PUSH1 0x1 PUSH1 0xA0 SHL SUB PUSH32 0x0 DUP2 DUP2 AND SWAP6 SWAP1 SWAP4 PUSH1 0x20 SWAP4 SWAP3 PUSH1 0x24 SWAP2 DUP6 DUP2 DUP5 DUP2 DUP13 GAS STATICCALL SWAP1 DUP2 ISZERO PUSH2 0x636 JUMPI DUP12 SWAP2 PUSH2 0x609 JUMPI JUMPDEST POP PUSH1 0x1 SLOAD DUP5 SWAP1 DUP8 SWAP1 DUP5 AND DUP1 ISZERO PUSH2 0x600 JUMPI DUP11 MLOAD PUSH3 0x787445 PUSH1 0xE2 SHL DUP2 MSTORE SWAP3 DUP4 SWAP2 DUP3 SWAP1 GAS STATICCALL SWAP1 DUP2 ISZERO PUSH2 0x5F6 JUMPI DUP13 SWAP2 PUSH2 0x5C9 JUMPI JUMPDEST POP JUMPDEST PUSH1 0x2 SLOAD DUP6 SWAP1 DUP9 SWAP1 DUP6 AND DUP15 DUP2 ISZERO PUSH2 0x5B2 JUMPI POP DUP12 MLOAD PUSH3 0x787445 PUSH1 0xE2 SHL DUP2 MSTORE SWAP3 DUP4 SWAP2 DUP3 SWAP1 GAS STATICCALL SWAP1 DUP2 ISZERO PUSH2 0x5A8 JUMPI DUP14 SWAP2 PUSH2 0x577 JUMPI JUMPDEST POP PUSH2 0x320 SWAP3 PUSH2 0x31A SWAP3 PUSH2 0x315 SWAP2 PUSH2 0x16F0 JUMP JUMPDEST PUSH2 0x16F0 JUMP JUMPDEST DUP11 PUSH2 0x18E8 JUMP JUMPDEST SWAP6 PUSH2 0x32C DUP8 ISZERO ISZERO PUSH2 0x1A33 JUMP JUMPDEST DUP3 CALLDATALOAD DUP8 LT PUSH2 0x541 JUMPI DUP8 MLOAD PUSH4 0x23B872DD PUSH1 0xE0 SHL DUP13 MSTORE CALLER DUP6 MSTORE ADDRESS DUP5 MSTORE PUSH1 0x44 DUP12 SWAP1 MSTORE SWAP1 DUP7 DUP13 PUSH1 0x64 DUP2 DUP1 DUP6 GAS CALL SWAP1 PUSH1 0x1 DUP14 MLOAD EQ DUP3 AND ISZERO PUSH2 0x522 JUMPI JUMPDEST POP DUP2 DUP10 MSTORE DUP12 PUSH1 0x60 MSTORE ISZERO PUSH2 0x50E JUMPI POP DUP10 SWAP1 PUSH32 0x0 AND DUP1 EXTCODESIZE ISZERO PUSH2 0x153 JUMPI DUP8 MLOAD PUSH4 0x40C10F19 PUSH1 0xE0 SHL DUP2 MSTORE CALLER DUP6 DUP3 ADD SWAP1 DUP2 MSTORE PUSH1 0x20 DUP2 ADD DUP10 SWAP1 MSTORE SWAP1 SWAP2 DUP4 SWAP2 DUP4 SWAP2 SWAP1 DUP3 SWAP1 DUP5 SWAP1 DUP3 SWAP1 PUSH1 0x40 ADD SUB SWAP3 GAS CALL DUP1 ISZERO PUSH2 0x504 JUMPI SWAP1 DUP7 SWAP5 SWAP4 SWAP3 SWAP2 PUSH2 0x4E7 JUMPI JUMPDEST POP POP PUSH2 0x2710 PUSH2 0x3F4 PUSH2 0x3EB PUSH2 0x1713 JUMP JUMPDEST PUSH1 0x3 SLOAD SWAP1 PUSH2 0x18B5 JUMP JUMPDEST DIV SWAP4 DUP8 MLOAD SWAP9 DUP10 SWAP4 DUP5 SWAP3 DUP4 MSTORE ADDRESS SWAP1 DUP4 ADD MSTORE GAS STATICCALL DUP1 ISZERO PUSH2 0x4DD JUMPI DUP8 SWAP1 PUSH2 0x48B JUMPI JUMPDEST PUSH32 0x90890809C654F11D6E72A28FA60149770A0D11EC6C92319D6CEB2BB0A4EA1A15 SWAP6 POP DUP2 DUP2 GT PUSH2 0x472 JUMPI JUMPDEST POP POP DUP3 MLOAD SWAP5 DUP6 MSTORE DUP5 ADD MSTORE CALLER SWAP3 LOG2 PUSH1 0x1 PUSH32 0x9B779B17422D0DF92223018B32B4D1FA46E071723D6817E2486D003BECC55F00 SSTORE DUP1 RETURN JUMPDEST PUSH2 0x484 SWAP2 PUSH2 0x47F SWAP2 PUSH2 0x1B75 JUMP JUMPDEST PUSH2 0x1B9A JUMP JUMPDEST CODESIZE DUP1 PUSH2 0x43E JUMP JUMPDEST POP DUP2 DUP6 DUP2 RETURNDATASIZE DUP4 GT PUSH2 0x4D6 JUMPI JUMPDEST PUSH2 0x4A1 DUP2 DUP4 PUSH2 0x16CE JUMP JUMPDEST DUP2 ADD SUB SLT PUSH2 0x4D1 JUMPI PUSH32 0x90890809C654F11D6E72A28FA60149770A0D11EC6C92319D6CEB2BB0A4EA1A15 SWAP5 MLOAD PUSH2 0x413 JUMP JUMPDEST PUSH1 0x0 DUP1 REVERT JUMPDEST POP RETURNDATASIZE PUSH2 0x497 JUMP JUMPDEST DUP5 MLOAD RETURNDATASIZE DUP10 DUP3 RETURNDATACOPY RETURNDATASIZE SWAP1 REVERT JUMPDEST PUSH2 0x4F3 SWAP2 SWAP3 SWAP5 POP PUSH2 0x16A4 JUMP JUMPDEST PUSH2 0x500 JUMPI DUP4 SWAP2 DUP10 CODESIZE PUSH2 0x3DB JUMP JUMPDEST DUP9 DUP1 REVERT JUMPDEST DUP9 MLOAD RETURNDATASIZE DUP5 DUP3 RETURNDATACOPY RETURNDATASIZE SWAP1 REVERT JUMPDEST PUSH4 0x5274AFE7 PUSH1 0xE0 SHL DUP2 MSTORE DUP4 DUP2 ADD DUP10 SWAP1 MSTORE SWAP1 POP REVERT JUMPDEST PUSH1 0x1 DUP3 ISZERO AND PUSH2 0x538 JUMPI EXTCODESIZE ISZERO ISZERO RETURNDATASIZE ISZERO AND AND CODESIZE PUSH2 0x363 JUMP JUMPDEST DUP3 RETURNDATASIZE DUP15 DUP3 RETURNDATACOPY RETURNDATASIZE SWAP1 REVERT JUMPDEST DUP8 MLOAD PUSH3 0x461BCD PUSH1 0xE5 SHL DUP2 MSTORE DUP1 DUP6 ADD DUP8 SWAP1 MSTORE PUSH1 0x11 DUP2 DUP6 ADD MSTORE PUSH17 0x14DB1A5C1C1859D948195E18D959591959 PUSH1 0x7A SHL PUSH1 0x44 DUP3 ADD MSTORE PUSH1 0x64 SWAP1 REVERT JUMPDEST SWAP3 SWAP1 POP DUP8 DUP4 DUP2 RETURNDATASIZE DUP4 GT PUSH2 0x5A1 JUMPI JUMPDEST PUSH2 0x58F DUP2 DUP4 PUSH2 0x16CE JUMP JUMPDEST DUP2 ADD SUB SLT PUSH2 0x4D1 JUMPI SWAP2 MLOAD PUSH2 0x315 PUSH2 0x303 JUMP JUMPDEST POP RETURNDATASIZE PUSH2 0x585 JUMP JUMPDEST DUP11 MLOAD RETURNDATASIZE DUP16 DUP3 RETURNDATACOPY RETURNDATASIZE SWAP1 REVERT JUMPDEST PUSH2 0x320 SWAP6 SWAP4 POP PUSH2 0x315 SWAP3 POP PUSH2 0x31A SWAP5 SWAP2 POP SWAP3 PUSH2 0x16F0 JUMP JUMPDEST SWAP1 POP DUP7 DUP2 DUP2 RETURNDATASIZE DUP4 GT PUSH2 0x5EF JUMPI JUMPDEST PUSH2 0x5E0 DUP2 DUP4 PUSH2 0x16CE JUMP JUMPDEST DUP2 ADD SUB SLT PUSH2 0x4D1 JUMPI MLOAD CODESIZE PUSH2 0x2D0 JUMP JUMPDEST POP RETURNDATASIZE PUSH2 0x5D6 JUMP JUMPDEST DUP10 MLOAD RETURNDATASIZE DUP15 DUP3 RETURNDATACOPY RETURNDATASIZE SWAP1 REVERT JUMPDEST POP POP POP DUP11 PUSH2 0x2D2 JUMP JUMPDEST SWAP1 POP DUP6 DUP2 DUP2 RETURNDATASIZE DUP4 GT PUSH2 0x62F JUMPI JUMPDEST PUSH2 0x620 DUP2 DUP4 PUSH2 0x16CE JUMP JUMPDEST DUP2 ADD SUB SLT PUSH2 0x4D1 JUMPI MLOAD CODESIZE PUSH2 0x2A0 JUMP JUMPDEST POP RETURNDATASIZE PUSH2 0x616 JUMP JUMPDEST DUP9 MLOAD RETURNDATASIZE DUP14 DUP3 RETURNDATACOPY RETURNDATASIZE SWAP1 REVERT JUMPDEST SWAP1 PUSH1 0x20 PUSH1 0x64 SWAP3 MLOAD SWAP2 PUSH3 0x461BCD PUSH1 0xE5 SHL DUP4 MSTORE DUP3 ADD MSTORE PUSH1 0xD PUSH1 0x24 DUP3 ADD MSTORE PUSH13 0x15985D5B1D0E881C185D5CD959 PUSH1 0x9A SHL PUSH1 0x44 DUP3 ADD MSTORE REVERT JUMPDEST SWAP2 POP SWAP2 CALLVALUE PUSH2 0x153 JUMPI DUP2 PUSH1 0x3 NOT CALLDATASIZE ADD SLT PUSH2 0x153 JUMPI PUSH2 0x68E PUSH2 0x1678 JUMP JUMPDEST PUSH1 0x1 SLOAD PUSH1 0x1 PUSH1 0x1 PUSH1 0xA0 SHL SUB SWAP1 DUP4 SWAP1 DUP3 AND DUP1 PUSH2 0x744 JUMPI JUMPDEST POP POP PUSH1 0x2 SLOAD AND DUP1 PUSH2 0x6E5 JUMPI JUMPDEST POP POP POP PUSH1 0x1 PUSH1 0xFF NOT DUP3 SLOAD AND OR SWAP1 SSTORE PUSH32 0xCC6A1A065AB514031862E10458CBF117148FF1F8A168CFACAB350E6644C174F0 DUP2 DUP1 LOG1 DUP1 RETURN JUMPDEST PUSH1 0x20 SWAP1 DUP5 DUP4 MLOAD DUP1 SWAP6 DUP2 SWAP4 PUSH4 0x36CB886F PUSH1 0xE2 SHL DUP4 MSTORE GAS CALL SWAP1 DUP2 ISZERO PUSH2 0x73B JUMPI POP PUSH2 0x710 JUMPI JUMPDEST DUP1 DUP4 SWAP2 PUSH2 0x6B0 JUMP JUMPDEST PUSH1 0x20 SWAP1 DUP2 RETURNDATASIZE DUP2 GT PUSH2 0x734 JUMPI JUMPDEST PUSH2 0x726 DUP2 DUP4 PUSH2 0x16CE JUMP JUMPDEST DUP2 ADD SUB SLT PUSH2 0x4D1 JUMPI CODESIZE PUSH2 0x708 JUMP JUMPDEST POP RETURNDATASIZE PUSH2 0x71C JUMP JUMPDEST MLOAD RETURNDATASIZE DUP6 DUP3 RETURNDATACOPY RETURNDATASIZE SWAP1 REVERT JUMPDEST PUSH1 0x20 SWAP1 DUP7 DUP6 MLOAD DUP1 SWAP5 DUP2 SWAP4 PUSH4 0x36CB886F PUSH1 0xE2 SHL DUP4 MSTORE GAS CALL DUP1 ISZERO PUSH2 0x79B JUMPI PUSH2 0x76C JUMPI JUMPDEST DUP4 SWAP1 PUSH2 0x6A4 JUMP JUMPDEST PUSH1 0x20 DUP1 SWAP3 SWAP5 POP RETURNDATASIZE DUP2 GT PUSH2 0x794 JUMPI JUMPDEST PUSH2 0x784 DUP2 DUP4 PUSH2 0x16CE JUMP JUMPDEST DUP2 ADD SUB SLT PUSH2 0x4D1 JUMPI DUP4 SWAP2 CODESIZE PUSH2 0x765 JUMP JUMPDEST POP RETURNDATASIZE PUSH2 0x77A JUMP JUMPDEST POP POP POP MLOAD SWAP1 RETURNDATASIZE SWAP1 DUP3 RETURNDATACOPY RETURNDATASIZE SWAP1 REVERT JUMPDEST POP POP CALLVALUE PUSH2 0x153 JUMPI DUP2 PUSH1 0x3 NOT CALLDATASIZE ADD SLT PUSH2 0x153 JUMPI PUSH1 0x2 SLOAD SWAP1 MLOAD PUSH1 0x1 PUSH1 0x1 PUSH1 0xA0 SHL SUB SWAP1 SWAP2 AND DUP2 MSTORE PUSH1 0x20 SWAP1 RETURN JUMPDEST SWAP1 POP CALLVALUE PUSH2 0x1E8 JUMPI PUSH1 0x20 CALLDATASIZE PUSH1 0x3 NOT ADD SLT PUSH2 0x1E8 JUMPI DUP1 CALLDATALOAD SWAP2 PUSH2 0x7EF PUSH2 0x1678 JUMP JUMPDEST PUSH2 0x2710 DUP4 GT PUSH2 0x800 JUMPI POP POP PUSH1 0x3 SSTORE DUP1 RETURN JUMPDEST SWAP1 PUSH1 0x20 PUSH1 0x64 SWAP3 MLOAD SWAP2 PUSH3 0x461BCD PUSH1 0xE5 SHL DUP4 MSTORE DUP3 ADD MSTORE PUSH1 0x12 PUSH1 0x24 DUP3 ADD MSTORE PUSH18 0x5661756C743A20696E76616C696420627073 PUSH1 0x70 SHL PUSH1 0x44 DUP3 ADD MSTORE REVERT JUMPDEST DUP3 DUP5 CALLVALUE PUSH2 0x868 JUMPI PUSH1 0x20 CALLDATASIZE PUSH1 0x3 NOT ADD SLT PUSH2 0x868 JUMPI POP PUSH2 0x861 PUSH1 0x20 SWAP3 PUSH2 0x85A PUSH2 0x1713 JUMP JUMPDEST SWAP1 CALLDATALOAD PUSH2 0x18E8 JUMP JUMPDEST SWAP1 MLOAD SWAP1 DUP2 MSTORE RETURN JUMPDEST DUP1 REVERT JUMPDEST POP POP CALLVALUE PUSH2 0x153 JUMPI CALLDATASIZE PUSH1 0x3 NOT ADD SLT PUSH2 0x868 JUMPI PUSH2 0x884 PUSH2 0x1662 JUMP JUMPDEST PUSH1 0x24 CALLDATALOAD PUSH1 0x1 PUSH1 0x1 PUSH1 0xA0 SHL SUB DUP2 DUP2 AND SWAP3 SWAP2 DUP4 SWAP1 SUB PUSH2 0x4D1 JUMPI PUSH2 0x8A3 PUSH2 0x1678 JUMP JUMPDEST PUSH12 0xFFFFFFFFFFFFFFFFFFFFFFFF PUSH1 0xA0 SHL SWAP2 AND DUP2 PUSH1 0x1 SLOAD AND OR PUSH1 0x1 SSTORE PUSH1 0x2 SLOAD AND OR PUSH1 0x2 SSTORE DUP1 RETURN JUMPDEST DUP3 DUP5 CALLVALUE PUSH2 0x868 JUMPI DUP1 PUSH1 0x3 NOT CALLDATASIZE ADD SLT PUSH2 0x868 JUMPI POP PUSH1 0xFF PUSH1 0x20 SWAP3 SLOAD AND SWAP1 MLOAD SWAP1 ISZERO ISZERO DUP2 MSTORE RETURN JUMPDEST POP POP CALLVALUE PUSH2 0x153 JUMPI DUP2 PUSH1 0x3 NOT CALLDATASIZE ADD SLT PUSH2 0x153 JUMPI SWAP1 SLOAD SWAP1 MLOAD PUSH1 0x1 PUSH1 0x1 PUSH1 0xA0 SHL SUB SWAP1 SWAP2 AND DUP2 MSTORE PUSH1 0x20 SWAP1 RETURN JUMPDEST POP POP CALLVALUE PUSH2 0x153 JUMPI DUP2 PUSH1 0x3 NOT CALLDATASIZE ADD SLT PUSH2 0x153 JUMPI PUSH1 0x20 SWAP1 PUSH2 0x861 PUSH2 0x1EB5 JUMP JUMPDEST SWAP2 SWAP1 POP CALLVALUE PUSH2 0x1E8 JUMPI DUP3 PUSH1 0x3 NOT CALLDATASIZE ADD SLT PUSH2 0x1E8 JUMPI PUSH2 0x94C PUSH2 0x1678 JUMP JUMPDEST PUSH2 0x954 PUSH2 0x1AB6 JUMP JUMPDEST PUSH2 0x2710 PUSH2 0x962 PUSH2 0x3EB PUSH2 0x1713 JUMP JUMPDEST DUP3 MLOAD PUSH4 0x70A08231 PUSH1 0xE0 SHL DUP2 MSTORE ADDRESS DUP6 DUP3 ADD MSTORE PUSH1 0x1 PUSH1 0x1 PUSH1 0xA0 SHL SUB SWAP3 PUSH1 0x20 SWAP3 DIV SWAP1 DUP3 DUP2 PUSH1 0x24 DUP2 PUSH32 0x0 DUP9 AND GAS STATICCALL SWAP1 DUP2 ISZERO PUSH2 0xDB8 JUMPI DUP8 SWAP2 PUSH2 0xD8B JUMPI JUMPDEST POP DUP2 DUP2 GT ISZERO PUSH2 0xB1F JUMPI PUSH2 0x9CF SWAP2 PUSH2 0x47F SWAP2 PUSH2 0x1B75 JUMP JUMPDEST PUSH1 0x1 SLOAD DUP5 SWAP1 DUP3 SWAP1 DUP5 AND DUP1 ISZERO PUSH2 0xB15 JUMPI DUP6 MLOAD PUSH3 0x787445 PUSH1 0xE2 SHL DUP2 MSTORE SWAP3 DUP4 SWAP2 DUP3 SWAP1 GAS STATICCALL SWAP1 DUP2 ISZERO PUSH2 0xB0B JUMPI DUP7 SWAP2 PUSH2 0xADE JUMPI JUMPDEST POP SWAP2 JUMPDEST PUSH1 0x2 SLOAD AND DUP1 ISZERO PUSH2 0xAB3 JUMPI DUP2 SWAP1 DUP5 MLOAD SWAP6 DUP7 DUP1 SWAP3 PUSH3 0x787445 PUSH1 0xE2 SHL DUP3 MSTORE GAS STATICCALL DUP1 ISZERO PUSH2 0xAA9 JUMPI DUP6 SWAP1 PUSH2 0xA5C JUMPI JUMPDEST PUSH32 0xB33D39BBEF101ECC4F5EF04E6D3A125C9FB745A418DAC380E2A9460F8200DC8 SWAP5 POP SWAP1 JUMPDEST DUP4 MLOAD SWAP3 DUP4 MSTORE DUP3 ADD MSTORE LOG1 DUP1 RETURN JUMPDEST POP DUP1 DUP5 DUP2 RETURNDATASIZE DUP4 GT PUSH2 0xAA2 JUMPI JUMPDEST PUSH2 0xA72 DUP2 DUP4 PUSH2 0x16CE JUMP JUMPDEST DUP2 ADD SUB SLT PUSH2 0x4D1 JUMPI PUSH32 0xB33D39BBEF101ECC4F5EF04E6D3A125C9FB745A418DAC380E2A9460F8200DC8 SWAP4 MLOAD PUSH2 0xA2B JUMP JUMPDEST POP RETURNDATASIZE PUSH2 0xA68 JUMP JUMPDEST DUP4 MLOAD RETURNDATASIZE DUP8 DUP3 RETURNDATACOPY RETURNDATASIZE SWAP1 REVERT JUMPDEST POP PUSH32 0xB33D39BBEF101ECC4F5EF04E6D3A125C9FB745A418DAC380E2A9460F8200DC8 SWAP4 POP DUP5 SWAP1 PUSH2 0xA50 JUMP JUMPDEST SWAP1 POP DUP2 DUP2 DUP2 RETURNDATASIZE DUP4 GT PUSH2 0xB04 JUMPI JUMPDEST PUSH2 0xAF5 DUP2 DUP4 PUSH2 0x16CE JUMP JUMPDEST DUP2 ADD SUB SLT PUSH2 0x4D1 JUMPI MLOAD CODESIZE PUSH2 0x9FE JUMP JUMPDEST POP RETURNDATASIZE PUSH2 0xAEB JUMP JUMPDEST DUP5 MLOAD RETURNDATASIZE DUP9 DUP3 RETURNDATACOPY RETURNDATASIZE SWAP1 REVERT JUMPDEST POP POP POP DUP5 SWAP2 PUSH2 0xA01 JUMP JUMPDEST DUP2 DUP2 LT PUSH2 0xB2E JUMPI JUMPDEST POP POP PUSH2 0x9CF JUMP JUMPDEST PUSH2 0xB37 SWAP2 PUSH2 0x1B75 JUMP JUMPDEST DUP3 PUSH1 0x1 SLOAD AND DUP1 PUSH2 0xCB1 JUMPI JUMPDEST POP DUP1 ISZERO ISZERO DUP1 PUSH2 0xCA4 JUMPI JUMPDEST PUSH2 0xBB1 JUMPI JUMPDEST PUSH2 0xB5C JUMPI CODESIZE DUP1 PUSH2 0xB27 JUMP JUMPDEST DUP4 PUSH1 0x84 SWAP2 DUP5 MLOAD SWAP2 PUSH3 0x461BCD PUSH1 0xE5 SHL DUP4 MSTORE DUP3 ADD MSTORE PUSH1 0x2A PUSH1 0x24 DUP3 ADD MSTORE PUSH32 0x5661756C743A20696E73756666696369656E74206C697175696469747920746F PUSH1 0x44 DUP3 ADD MSTORE PUSH10 0x20726562616C616E6365 PUSH1 0xB0 SHL PUSH1 0x64 DUP3 ADD MSTORE REVERT JUMPDEST DUP3 PUSH1 0x2 SLOAD AND DUP7 DUP6 MLOAD PUSH3 0x787445 PUSH1 0xE2 SHL DUP2 MSTORE DUP5 DUP2 DUP10 DUP2 DUP7 GAS STATICCALL SWAP1 DUP2 ISZERO PUSH2 0xC9A JUMPI SWAP1 DUP6 SWAP2 DUP4 SWAP2 PUSH2 0xC6A JUMPI JUMPDEST POP DUP1 DUP6 GT ISZERO PUSH2 0xC62 JUMPI SWAP3 JUMPDEST DUP4 PUSH2 0xBF4 JUMPI JUMPDEST POP POP POP POP PUSH2 0xB51 JUMP JUMPDEST PUSH1 0x24 DUP9 MLOAD DUP1 SWAP5 DUP2 SWAP4 PUSH4 0x2E1A7D4D PUSH1 0xE0 SHL DUP4 MSTORE DUP8 DUP14 DUP5 ADD MSTORE GAS CALL DUP1 ISZERO PUSH2 0xC58 JUMPI SWAP1 DUP5 SWAP2 PUSH2 0xC2F JUMPI JUMPDEST POP POP PUSH2 0xC26 SWAP2 PUSH2 0x1B75 JUMP JUMPDEST CODESIZE DUP7 DUP4 DUP3 PUSH2 0xBEB JUMP JUMPDEST DUP2 RETURNDATASIZE DUP4 GT PUSH2 0xC51 JUMPI JUMPDEST PUSH2 0xC42 DUP2 DUP4 PUSH2 0x16CE JUMP JUMPDEST DUP2 ADD SUB SLT PUSH2 0x4D1 JUMPI DUP3 CODESIZE PUSH2 0xC1B JUMP JUMPDEST POP RETURNDATASIZE PUSH2 0xC38 JUMP JUMPDEST DUP7 MLOAD RETURNDATASIZE DUP11 DUP3 RETURNDATACOPY RETURNDATASIZE SWAP1 REVERT JUMPDEST POP DUP4 SWAP3 PUSH2 0xBE5 JUMP JUMPDEST SWAP3 POP POP DUP2 DUP2 RETURNDATASIZE DUP4 GT PUSH2 0xC93 JUMPI JUMPDEST PUSH2 0xC81 DUP2 DUP4 PUSH2 0x16CE JUMP JUMPDEST DUP2 ADD SUB SLT PUSH2 0x4D1 JUMPI DUP4 DUP9 SWAP2 MLOAD CODESIZE PUSH2 0xBDA JUMP JUMPDEST POP RETURNDATASIZE PUSH2 0xC77 JUMP JUMPDEST DUP8 MLOAD RETURNDATASIZE DUP5 DUP3 RETURNDATACOPY RETURNDATASIZE SWAP1 REVERT JUMPDEST POP DUP3 PUSH1 0x2 SLOAD AND ISZERO ISZERO PUSH2 0xB4C JUMP JUMPDEST DUP5 MLOAD PUSH3 0x787445 PUSH1 0xE2 SHL DUP2 MSTORE DUP8 SWAP1 DUP5 DUP2 DUP10 DUP2 DUP7 GAS STATICCALL SWAP1 DUP2 ISZERO PUSH2 0xC9A JUMPI SWAP1 DUP6 SWAP2 DUP4 SWAP2 PUSH2 0xD5B JUMPI JUMPDEST POP DUP1 DUP6 GT ISZERO PUSH2 0xD53 JUMPI SWAP3 JUMPDEST DUP4 PUSH2 0xCEF JUMPI JUMPDEST POP POP POP PUSH2 0xB42 JUMP JUMPDEST PUSH1 0x24 DUP9 MLOAD DUP1 SWAP5 DUP2 SWAP4 PUSH4 0x2E1A7D4D PUSH1 0xE0 SHL DUP4 MSTORE DUP8 DUP14 DUP5 ADD MSTORE GAS CALL DUP1 ISZERO PUSH2 0xC58 JUMPI SWAP1 DUP5 SWAP2 PUSH2 0xD2A JUMPI JUMPDEST POP POP PUSH2 0xD21 SWAP2 PUSH2 0x1B75 JUMP JUMPDEST CODESIZE DUP7 DUP4 DUP3 PUSH2 0xCE7 JUMP JUMPDEST DUP2 RETURNDATASIZE DUP4 GT PUSH2 0xD4C JUMPI JUMPDEST PUSH2 0xD3D DUP2 DUP4 PUSH2 0x16CE JUMP JUMPDEST DUP2 ADD SUB SLT PUSH2 0x4D1 JUMPI DUP3 CODESIZE PUSH2 0xD16 JUMP JUMPDEST POP RETURNDATASIZE PUSH2 0xD33 JUMP JUMPDEST POP DUP4 SWAP3 PUSH2 0xCE1 JUMP JUMPDEST SWAP3 POP POP DUP2 DUP2 RETURNDATASIZE DUP4 GT PUSH2 0xD84 JUMPI JUMPDEST PUSH2 0xD72 DUP2 DUP4 PUSH2 0x16CE JUMP JUMPDEST DUP2 ADD SUB SLT PUSH2 0x4D1 JUMPI DUP4 DUP9 SWAP2 MLOAD CODESIZE PUSH2 0xCD6 JUMP JUMPDEST POP RETURNDATASIZE PUSH2 0xD68 JUMP JUMPDEST SWAP1 POP DUP3 DUP2 DUP2 RETURNDATASIZE DUP4 GT PUSH2 0xDB1 JUMPI JUMPDEST PUSH2 0xDA2 DUP2 DUP4 PUSH2 0x16CE JUMP JUMPDEST DUP2 ADD SUB SLT PUSH2 0x4D1 JUMPI MLOAD CODESIZE PUSH2 0x9B9 JUMP JUMPDEST POP RETURNDATASIZE PUSH2 0xD98 JUMP JUMPDEST DUP6 MLOAD RETURNDATASIZE DUP10 DUP3 RETURNDATACOPY RETURNDATASIZE SWAP1 REVERT JUMPDEST DUP4 SWAP2 POP CALLVALUE PUSH2 0x153 JUMPI DUP2 PUSH1 0x3 NOT CALLDATASIZE ADD SLT PUSH2 0x153 JUMPI PUSH1 0x1 SLOAD DUP3 SWAP2 DUP3 SWAP2 PUSH1 0x1 PUSH1 0x1 PUSH1 0xA0 SHL SUB SWAP1 DUP2 AND DUP1 PUSH2 0xE71 JUMPI JUMPDEST POP PUSH1 0x2 SLOAD AND DUP1 PUSH2 0xE07 JUMPI JUMPDEST POP POP POP DUP3 MLOAD SWAP2 DUP3 MSTORE PUSH1 0x20 DUP3 ADD MSTORE RETURN JUMPDEST DUP6 MLOAD PUSH4 0x51618ED3 PUSH1 0xE0 SHL DUP2 MSTORE SWAP3 SWAP4 POP PUSH1 0x20 SWAP2 DUP4 SWAP2 DUP3 SWAP1 GAS STATICCALL SWAP2 DUP3 ISZERO PUSH2 0xE66 JUMPI SWAP2 PUSH2 0xE35 JUMPI JUMPDEST POP DUP4 DUP1 DUP1 PUSH2 0xDF8 JUMP JUMPDEST SWAP1 POP PUSH1 0x20 DUP2 RETURNDATASIZE DUP3 GT PUSH2 0xE5E JUMPI JUMPDEST DUP2 PUSH2 0xE4F PUSH1 0x20 SWAP4 DUP4 PUSH2 0x16CE JUMP JUMPDEST DUP2 ADD SUB SLT PUSH2 0x4D1 JUMPI MLOAD DUP4 PUSH2 0xE2C JUMP JUMPDEST RETURNDATASIZE SWAP2 POP PUSH2 0xE42 JUMP JUMPDEST DUP5 MLOAD SWAP1 RETURNDATASIZE SWAP1 DUP3 RETURNDATACOPY RETURNDATASIZE SWAP1 REVERT JUMPDEST DUP7 MLOAD PUSH4 0x51618ED3 PUSH1 0xE0 SHL DUP2 MSTORE SWAP2 SWAP6 POP PUSH1 0x20 SWAP1 DUP3 SWAP1 DUP5 SWAP1 DUP3 SWAP1 GAS STATICCALL SWAP1 DUP2 ISZERO PUSH2 0xED2 JUMPI DUP4 SWAP2 PUSH2 0xEA1 JUMPI JUMPDEST POP SWAP4 DUP7 PUSH2 0xDED JUMP JUMPDEST SWAP1 POP PUSH1 0x20 DUP2 RETURNDATASIZE DUP3 GT PUSH2 0xECA JUMPI JUMPDEST DUP2 PUSH2 0xEBB PUSH1 0x20 SWAP4 DUP4 PUSH2 0x16CE JUMP JUMPDEST DUP2 ADD SUB SLT PUSH2 0x4D1 JUMPI MLOAD DUP7 PUSH2 0xE99 JUMP JUMPDEST RETURNDATASIZE SWAP2 POP PUSH2 0xEAE JUMP JUMPDEST DUP7 MLOAD RETURNDATASIZE DUP6 DUP3 RETURNDATACOPY RETURNDATASIZE SWAP1 REVERT JUMPDEST POP POP CALLVALUE PUSH2 0x153 JUMPI DUP2 PUSH1 0x3 NOT CALLDATASIZE ADD SLT PUSH2 0x153 JUMPI PUSH1 0x20 SWAP1 PUSH1 0x3 SLOAD SWAP1 MLOAD SWAP1 DUP2 MSTORE RETURN JUMPDEST DUP4 CALLVALUE PUSH2 0x868 JUMPI DUP1 PUSH1 0x3 NOT CALLDATASIZE ADD SLT PUSH2 0x868 JUMPI PUSH2 0xF14 PUSH2 0x1678 JUMP JUMPDEST PUSH1 0x0 DUP1 SLOAD PUSH1 0x1 PUSH1 0x1 PUSH1 0xA0 SHL SUB NOT DUP2 AND DUP3 SSTORE PUSH1 0x1 PUSH1 0x1 PUSH1 0xA0 SHL SUB AND PUSH32 0x8BE0079C531659141344CD1FD0A4F28419497F9722A3DAAFE3B4186F6B6457E0 DUP3 DUP1 LOG3 DUP1 RETURN JUMPDEST POP POP CALLVALUE PUSH2 0x153 JUMPI DUP2 PUSH1 0x3 NOT CALLDATASIZE ADD SLT PUSH2 0x153 JUMPI MLOAD PUSH32 0x0 PUSH1 0x1 PUSH1 0x1 PUSH1 0xA0 SHL SUB AND DUP2 MSTORE PUSH1 0x20 SWAP1 RETURN JUMPDEST POP POP CALLVALUE PUSH2 0x153 JUMPI DUP2 PUSH1 0x3 NOT CALLDATASIZE ADD SLT PUSH2 0x153 JUMPI MLOAD PUSH32 0x0 PUSH1 0x1 PUSH1 0x1 PUSH1 0xA0 SHL SUB AND DUP2 MSTORE PUSH1 0x20 SWAP1 RETURN JUMPDEST POP POP CALLVALUE PUSH2 0x153 JUMPI PUSH1 0x20 CALLDATASIZE PUSH1 0x3 NOT ADD SLT PUSH2 0x153 JUMPI PUSH1 0x20 SWAP1 PUSH2 0x861 PUSH2 0xFFE PUSH2 0x1662 JUMP JUMPDEST PUSH2 0x1F74 JUMP JUMPDEST POP POP CALLVALUE PUSH2 0x153 JUMPI DUP2 PUSH1 0x3 NOT CALLDATASIZE ADD SLT PUSH2 0x153 JUMPI PUSH1 0x20 SWAP1 MLOAD PUSH2 0x1B58 DUP2 MSTORE RETURN JUMPDEST POP POP CALLVALUE PUSH2 0x153 JUMPI DUP2 PUSH1 0x3 NOT CALLDATASIZE ADD SLT PUSH2 0x153 JUMPI PUSH1 0x20 SWAP1 MLOAD PUSH2 0xBB8 DUP2 MSTORE RETURN JUMPDEST DUP4 DUP4 CALLVALUE PUSH2 0x153 JUMPI PUSH1 0x20 SWAP1 DUP2 PUSH1 0x3 NOT CALLDATASIZE ADD SLT PUSH2 0x1E8 JUMPI DUP4 CALLDATALOAD PUSH2 0x105C PUSH2 0x1A74 JUMP JUMPDEST PUSH2 0x1064 PUSH2 0x1AB6 JUMP JUMPDEST PUSH2 0x106F DUP2 ISZERO ISZERO PUSH2 0x1A33 JUMP JUMPDEST DUP2 MLOAD PUSH4 0x70A08231 PUSH1 0xE0 SHL DUP1 DUP3 MSTORE CALLER DUP8 DUP4 ADD MSTORE PUSH1 0x24 SWAP7 PUSH1 0x1 PUSH1 0x1 PUSH1 0xA0 SHL SUB PUSH32 0x0 DUP2 AND SWAP7 SWAP4 SWAP1 SWAP3 SWAP2 SWAP1 DUP5 DUP2 DUP12 DUP2 DUP12 GAS STATICCALL SWAP1 DUP2 ISZERO PUSH2 0x1506 JUMPI SWAP1 DUP7 SWAP2 DUP11 SWAP2 PUSH2 0x15BE JUMPI JUMPDEST POP LT PUSH2 0x157C JUMPI PUSH2 0x10E4 PUSH2 0x10DE PUSH2 0x1713 JUMP JUMPDEST DUP7 PUSH2 0x18B5 JUMP JUMPDEST DUP7 MLOAD PUSH4 0x18160DDD PUSH1 0xE0 SHL DUP2 MSTORE DUP6 DUP2 DUP5 DUP2 DUP13 GAS STATICCALL SWAP1 DUP2 ISZERO PUSH2 0x14E9 JUMPI DUP11 SWAP2 PUSH2 0x1549 JUMPI JUMPDEST POP PUSH2 0x110F SWAP2 PUSH2 0x18C8 JUMP JUMPDEST SWAP7 DUP8 ISZERO PUSH2 0x1510 JUMPI DUP1 EXTCODESIZE ISZERO PUSH2 0x500 JUMPI DUP7 MLOAD PUSH4 0x2770A7EB PUSH1 0xE2 SHL DUP2 MSTORE CALLER DUP4 DUP3 ADD SWAP1 DUP2 MSTORE PUSH1 0x20 DUP2 ADD DUP9 SWAP1 MSTORE SWAP1 SWAP2 DUP11 SWAP2 DUP4 SWAP2 SWAP1 DUP3 SWAP1 DUP5 SWAP1 DUP3 SWAP1 PUSH1 0x40 ADD SUB SWAP3 GAS CALL DUP1 ISZERO PUSH2 0x1506 JUMPI PUSH2 0x14F3 JUMPI JUMPDEST POP PUSH32 0x0 SWAP3 DUP1 DUP5 AND SWAP3 DUP8 MLOAD SWAP1 DUP2 MSTORE ADDRESS DUP4 DUP3 ADD MSTORE DUP6 DUP2 DUP13 DUP2 DUP8 GAS STATICCALL SWAP1 DUP2 ISZERO PUSH2 0x14E9 JUMPI DUP11 SWAP2 PUSH2 0x14BC JUMPI JUMPDEST POP DUP9 DUP2 LT PUSH2 0x1263 JUMPI JUMPDEST POP POP DUP6 MLOAD PUSH4 0xA9059CBB PUSH1 0xE0 SHL DUP10 MSTORE CALLER DUP3 MSTORE DUP8 DUP11 MSTORE SWAP3 DUP5 DUP10 PUSH1 0x44 DUP2 DUP1 DUP6 GAS CALL SWAP1 PUSH1 0x1 DUP11 MLOAD EQ DUP3 AND ISZERO PUSH2 0x1244 JUMPI JUMPDEST POP DUP4 DUP8 MSTORE ISZERO PUSH2 0x1232 JUMPI POP POP DUP4 MLOAD SWAP5 DUP6 MSTORE POP DUP4 ADD MSTORE CALLER SWAP2 PUSH32 0xF279E6A1F5E320CCA91135676D9CB6E44CA8A08C0B88342BCDB1144F6511B568 SWAP2 SWAP1 LOG2 PUSH1 0x1 PUSH32 0x9B779B17422D0DF92223018B32B4D1FA46E071723D6817E2486D003BECC55F00 SSTORE DUP1 RETURN JUMPDEST PUSH4 0x5274AFE7 PUSH1 0xE0 SHL DUP4 MSTORE DUP3 ADD MSTORE DUP7 SWAP2 POP REVERT JUMPDEST PUSH1 0x1 DUP3 ISZERO AND PUSH2 0x125A JUMPI EXTCODESIZE ISZERO ISZERO RETURNDATASIZE ISZERO AND AND DUP11 PUSH2 0x11D1 JUMP JUMPDEST DUP5 RETURNDATASIZE DUP12 DUP3 RETURNDATACOPY RETURNDATASIZE SWAP1 REVERT JUMPDEST PUSH2 0x126D SWAP1 DUP10 PUSH2 0x1B75 JUMP JUMPDEST DUP2 PUSH1 0x1 SLOAD AND DUP1 PUSH2 0x13D3 JUMPI JUMPDEST POP SWAP1 DUP2 ISZERO ISZERO DUP1 PUSH2 0x13C6 JUMPI JUMPDEST PUSH2 0x12E0 JUMPI JUMPDEST POP PUSH2 0x1294 JUMPI DUP10 DUP1 PUSH2 0x11A5 JUMP JUMPDEST DUP6 MLOAD PUSH3 0x461BCD PUSH1 0xE5 SHL DUP2 MSTORE SWAP1 DUP2 ADD DUP5 SWAP1 MSTORE PUSH1 0x21 DUP2 DUP11 ADD MSTORE PUSH32 0x5661756C743A207374726174656779207769746864726177616C206661696C65 PUSH1 0x44 DUP3 ADD MSTORE PUSH1 0x19 PUSH1 0xFA SHL PUSH1 0x64 DUP3 ADD MSTORE PUSH1 0x84 SWAP1 REVERT JUMPDEST PUSH1 0x2 SLOAD AND DUP8 MLOAD PUSH3 0x787445 PUSH1 0xE2 SHL DUP2 MSTORE DUP7 DUP2 DUP6 DUP2 DUP6 GAS STATICCALL SWAP1 DUP2 ISZERO PUSH2 0x1384 JUMPI DUP12 SWAP2 DUP9 SWAP2 DUP4 SWAP2 PUSH2 0x1396 JUMPI JUMPDEST POP DUP1 DUP6 GT ISZERO PUSH2 0x138E JUMPI SWAP3 JUMPDEST DUP4 PUSH2 0x1321 JUMPI JUMPDEST POP POP POP PUSH2 0x1288 JUMP JUMPDEST DUP14 DUP12 MLOAD DUP1 SWAP5 DUP2 SWAP4 PUSH4 0x2E1A7D4D PUSH1 0xE0 SHL DUP4 MSTORE DUP8 DUP11 DUP5 ADD MSTORE GAS CALL DUP1 ISZERO PUSH2 0x1384 JUMPI SWAP1 DUP8 SWAP2 PUSH2 0x135B JUMPI JUMPDEST POP POP PUSH2 0x1352 SWAP2 PUSH2 0x1B75 JUMP JUMPDEST DUP11 DUP10 DUP7 DUP3 PUSH2 0x1319 JUMP JUMPDEST DUP2 RETURNDATASIZE DUP4 GT PUSH2 0x137D JUMPI JUMPDEST PUSH2 0x136E DUP2 DUP4 PUSH2 0x16CE JUMP JUMPDEST DUP2 ADD SUB SLT PUSH2 0x4D1 JUMPI DUP6 DUP13 PUSH2 0x1347 JUMP JUMPDEST POP RETURNDATASIZE PUSH2 0x1364 JUMP JUMPDEST DUP10 MLOAD RETURNDATASIZE DUP14 DUP3 RETURNDATACOPY RETURNDATASIZE SWAP1 REVERT JUMPDEST POP DUP4 SWAP3 PUSH2 0x1313 JUMP JUMPDEST SWAP3 POP POP DUP2 DUP2 RETURNDATASIZE DUP4 GT PUSH2 0x13BF JUMPI JUMPDEST PUSH2 0x13AD DUP2 DUP4 PUSH2 0x16CE JUMP JUMPDEST DUP2 ADD SUB SLT PUSH2 0x4D1 JUMPI DUP7 DUP12 SWAP2 MLOAD DUP15 PUSH2 0x1308 JUMP JUMPDEST POP RETURNDATASIZE PUSH2 0x13A3 JUMP JUMPDEST POP DUP1 PUSH1 0x2 SLOAD AND ISZERO ISZERO PUSH2 0x1283 JUMP JUMPDEST DUP9 MLOAD PUSH3 0x787445 PUSH1 0xE2 SHL DUP2 MSTORE DUP8 DUP2 DUP7 DUP2 DUP6 GAS STATICCALL SWAP1 DUP2 ISZERO PUSH2 0x1476 JUMPI DUP14 SWAP3 DUP14 SWAP3 DUP11 SWAP3 DUP5 SWAP2 PUSH2 0x1488 JUMPI JUMPDEST POP DUP1 DUP7 GT ISZERO PUSH2 0x1480 JUMPI SWAP4 JUMPDEST DUP5 PUSH2 0x1413 JUMPI JUMPDEST POP POP POP POP PUSH2 0x1278 JUMP JUMPDEST DUP13 MLOAD DUP1 SWAP5 DUP2 SWAP4 PUSH4 0x2E1A7D4D PUSH1 0xE0 SHL DUP4 MSTORE DUP8 DUP12 DUP5 ADD MSTORE GAS CALL DUP1 ISZERO PUSH2 0x1476 JUMPI SWAP1 DUP9 SWAP2 PUSH2 0x144D JUMPI JUMPDEST POP POP PUSH2 0x1443 SWAP2 PUSH2 0x1B75 JUMP JUMPDEST DUP12 DUP11 DUP8 DUP3 DUP15 PUSH2 0x140A JUMP JUMPDEST DUP2 RETURNDATASIZE DUP4 GT PUSH2 0x146F JUMPI JUMPDEST PUSH2 0x1460 DUP2 DUP4 PUSH2 0x16CE JUMP JUMPDEST DUP2 ADD SUB SLT PUSH2 0x4D1 JUMPI DUP7 DUP14 PUSH2 0x1438 JUMP JUMPDEST POP RETURNDATASIZE PUSH2 0x1456 JUMP JUMPDEST DUP11 MLOAD RETURNDATASIZE DUP15 DUP3 RETURNDATACOPY RETURNDATASIZE SWAP1 REVERT JUMPDEST POP DUP5 SWAP4 PUSH2 0x1404 JUMP JUMPDEST SWAP5 POP POP SWAP2 POP DUP3 DUP2 RETURNDATASIZE DUP4 GT PUSH2 0x14B5 JUMPI JUMPDEST PUSH2 0x14A1 DUP2 DUP4 PUSH2 0x16CE JUMP JUMPDEST DUP2 ADD SUB SLT PUSH2 0x4D1 JUMPI DUP8 DUP13 SWAP2 DUP15 SWAP4 MLOAD CODESIZE PUSH2 0x13F9 JUMP JUMPDEST POP RETURNDATASIZE PUSH2 0x1497 JUMP JUMPDEST SWAP1 POP DUP6 DUP2 DUP2 RETURNDATASIZE DUP4 GT PUSH2 0x14E2 JUMPI JUMPDEST PUSH2 0x14D3 DUP2 DUP4 PUSH2 0x16CE JUMP JUMPDEST DUP2 ADD SUB SLT PUSH2 0x4D1 JUMPI MLOAD DUP12 PUSH2 0x119C JUMP JUMPDEST POP RETURNDATASIZE PUSH2 0x14C9 JUMP JUMPDEST DUP9 MLOAD RETURNDATASIZE DUP13 DUP3 RETURNDATACOPY RETURNDATASIZE SWAP1 REVERT JUMPDEST PUSH2 0x14FF SWAP1 SWAP9 SWAP2 SWAP9 PUSH2 0x16A4 JUMP JUMPDEST SWAP7 DUP10 PUSH2 0x1156 JUMP JUMPDEST DUP8 MLOAD RETURNDATASIZE DUP12 DUP3 RETURNDATACOPY RETURNDATASIZE SWAP1 REVERT JUMPDEST DUP7 MLOAD PUSH3 0x461BCD PUSH1 0xE5 SHL DUP2 MSTORE DUP1 DUP4 ADD DUP7 SWAP1 MSTORE PUSH1 0x14 DUP2 DUP13 ADD MSTORE PUSH20 0x5661756C743A207A65726F207769746864726177 PUSH1 0x60 SHL PUSH1 0x44 DUP3 ADD MSTORE PUSH1 0x64 SWAP1 REVERT JUMPDEST SWAP1 POP DUP6 DUP2 DUP2 RETURNDATASIZE DUP4 GT PUSH2 0x1575 JUMPI JUMPDEST PUSH2 0x1560 DUP2 DUP4 PUSH2 0x16CE JUMP JUMPDEST DUP2 ADD SUB SLT PUSH2 0x1571 JUMPI MLOAD PUSH2 0x110F PUSH2 0x1105 JUMP JUMPDEST DUP10 DUP1 REVERT JUMPDEST POP RETURNDATASIZE PUSH2 0x1556 JUMP JUMPDEST DUP6 MLOAD PUSH3 0x461BCD PUSH1 0xE5 SHL DUP2 MSTORE SWAP1 DUP2 ADD DUP5 SWAP1 MSTORE PUSH1 0x1A DUP2 DUP11 ADD MSTORE PUSH32 0x5661756C743A20696E73756666696369656E7420736861726573000000000000 PUSH1 0x44 DUP3 ADD MSTORE PUSH1 0x64 SWAP1 REVERT JUMPDEST DUP1 SWAP3 POP DUP7 DUP1 SWAP3 POP RETURNDATASIZE DUP4 GT PUSH2 0x15E8 JUMPI JUMPDEST PUSH2 0x15D7 DUP2 DUP4 PUSH2 0x16CE JUMP JUMPDEST DUP2 ADD SUB SLT PUSH2 0x500 JUMPI DUP6 SWAP1 MLOAD DUP12 PUSH2 0x10CD JUMP JUMPDEST POP RETURNDATASIZE PUSH2 0x15CD JUMP JUMPDEST DUP4 SWAP1 CALLVALUE PUSH2 0x153 JUMPI PUSH1 0x20 CALLDATASIZE PUSH1 0x3 NOT ADD SLT PUSH2 0x153 JUMPI DUP1 CALLDATALOAD DUP1 ISZERO ISZERO DUP1 SWAP2 SUB PUSH2 0x1E8 JUMPI PUSH2 0x1616 PUSH2 0x1678 JUMP JUMPDEST PUSH1 0xFF DUP1 NOT DUP4 SLOAD AND SWAP2 AND OR SWAP1 SSTORE DUP1 RETURN JUMPDEST DUP3 DUP5 CALLVALUE PUSH2 0x868 JUMPI PUSH1 0x20 CALLDATASIZE PUSH1 0x3 NOT ADD SLT PUSH2 0x868 JUMPI POP PUSH2 0x861 PUSH1 0x20 SWAP3 CALLDATALOAD PUSH2 0x1994 JUMP JUMPDEST POP POP CALLVALUE PUSH2 0x153 JUMPI DUP2 PUSH1 0x3 NOT CALLDATASIZE ADD SLT PUSH2 0x153 JUMPI PUSH1 0x20 SWAP1 PUSH2 0x861 PUSH2 0x1713 JUMP JUMPDEST PUSH1 0x4 CALLDATALOAD SWAP1 PUSH1 0x1 PUSH1 0x1 PUSH1 0xA0 SHL SUB DUP3 AND DUP3 SUB PUSH2 0x4D1 JUMPI JUMP JUMPDEST PUSH1 0x0 SLOAD PUSH1 0x1 PUSH1 0x1 PUSH1 0xA0 SHL SUB AND CALLER SUB PUSH2 0x168C JUMPI JUMP JUMPDEST PUSH1 0x40 MLOAD PUSH4 0x118CDAA7 PUSH1 0xE0 SHL DUP2 MSTORE CALLER PUSH1 0x4 DUP3 ADD MSTORE PUSH1 0x24 SWAP1 REVERT JUMPDEST PUSH8 0xFFFFFFFFFFFFFFFF DUP2 GT PUSH2 0x16B8 JUMPI PUSH1 0x40 MSTORE JUMP JUMPDEST PUSH4 0x4E487B71 PUSH1 0xE0 SHL PUSH1 0x0 MSTORE PUSH1 0x41 PUSH1 0x4 MSTORE PUSH1 0x24 PUSH1 0x0 REVERT JUMPDEST SWAP1 PUSH1 0x1F DUP1 NOT SWAP2 ADD AND DUP2 ADD SWAP1 DUP2 LT PUSH8 0xFFFFFFFFFFFFFFFF DUP3 GT OR PUSH2 0x16B8 JUMPI PUSH1 0x40 MSTORE JUMP JUMPDEST SWAP2 SWAP1 DUP3 ADD DUP1 SWAP3 GT PUSH2 0x16FD JUMPI JUMP JUMPDEST PUSH4 0x4E487B71 PUSH1 0xE0 SHL PUSH1 0x0 MSTORE PUSH1 0x11 PUSH1 0x4 MSTORE PUSH1 0x24 PUSH1 0x0 REVERT JUMPDEST PUSH1 0x40 DUP1 MLOAD PUSH4 0x70A08231 PUSH1 0xE0 SHL DUP2 MSTORE ADDRESS PUSH1 0x4 DUP3 ADD MSTORE SWAP1 PUSH1 0x1 PUSH1 0x1 PUSH1 0xA0 SHL SUB SWAP1 PUSH1 0x20 DUP1 DUP5 PUSH1 0x24 DUP2 PUSH32 0x0 DUP8 AND GAS STATICCALL SWAP4 DUP5 ISZERO PUSH2 0x18AA JUMPI PUSH1 0x0 SWAP5 PUSH2 0x187B JUMPI JUMPDEST POP PUSH1 0x1 SLOAD PUSH1 0x0 SWAP1 DUP3 SWAP1 DUP6 AND DUP1 ISZERO PUSH2 0x1873 JUMPI DUP5 MLOAD PUSH3 0x787445 PUSH1 0xE2 SHL DUP2 MSTORE SWAP3 POP DUP3 SWAP1 PUSH1 0x4 SWAP1 DUP3 SWAP1 GAS STATICCALL SWAP1 DUP2 ISZERO PUSH2 0x1868 JUMPI PUSH1 0x0 SWAP2 PUSH2 0x183B JUMPI JUMPDEST POP SWAP3 JUMPDEST PUSH1 0x2 SLOAD AND PUSH1 0x0 DUP2 ISZERO PUSH2 0x1827 JUMPI POP SWAP1 DUP1 PUSH1 0x4 SWAP3 DUP5 MLOAD SWAP4 DUP5 DUP1 SWAP3 PUSH3 0x787445 PUSH1 0xE2 SHL DUP3 MSTORE GAS STATICCALL SWAP3 DUP4 ISZERO PUSH2 0x181D JUMPI POP PUSH1 0x0 SWAP3 PUSH2 0x17EC JUMPI JUMPDEST POP POP PUSH2 0x17E9 SWAP3 SWAP2 PUSH2 0x315 SWAP2 SWAP3 PUSH2 0x16F0 JUMP JUMPDEST SWAP1 JUMP JUMPDEST DUP2 DUP2 SWAP4 SWAP3 SWAP4 RETURNDATASIZE DUP4 GT PUSH2 0x1816 JUMPI JUMPDEST PUSH2 0x1803 DUP2 DUP4 PUSH2 0x16CE JUMP JUMPDEST DUP2 ADD SUB SLT PUSH2 0x868 JUMPI POP MLOAD DUP2 PUSH2 0x315 PUSH2 0x17D8 JUMP JUMPDEST POP RETURNDATASIZE PUSH2 0x17F9 JUMP JUMPDEST MLOAD RETURNDATASIZE PUSH1 0x0 DUP3 RETURNDATACOPY RETURNDATASIZE SWAP1 REVERT JUMPDEST SWAP1 POP PUSH2 0x315 SWAP3 POP PUSH2 0x17E9 SWAP5 SWAP4 SWAP2 POP SWAP3 PUSH2 0x16F0 JUMP JUMPDEST SWAP1 DUP3 DUP3 DUP2 RETURNDATASIZE DUP4 GT PUSH2 0x1861 JUMPI JUMPDEST PUSH2 0x1851 DUP2 DUP4 PUSH2 0x16CE JUMP JUMPDEST DUP2 ADD SUB SLT PUSH2 0x868 JUMPI POP MLOAD CODESIZE PUSH2 0x17A2 JUMP JUMPDEST POP RETURNDATASIZE PUSH2 0x1847 JUMP JUMPDEST DUP4 MLOAD RETURNDATASIZE PUSH1 0x0 DUP3 RETURNDATACOPY RETURNDATASIZE SWAP1 REVERT JUMPDEST POP POP SWAP3 PUSH2 0x17A5 JUMP JUMPDEST SWAP1 SWAP4 DUP5 DUP3 DUP2 RETURNDATASIZE DUP4 GT PUSH2 0x18A3 JUMPI JUMPDEST PUSH2 0x1892 DUP2 DUP4 PUSH2 0x16CE JUMP JUMPDEST DUP2 ADD SUB SLT PUSH2 0x868 JUMPI POP MLOAD SWAP3 CODESIZE PUSH2 0x176C JUMP JUMPDEST POP RETURNDATASIZE PUSH2 0x1888 JUMP JUMPDEST DUP3 MLOAD RETURNDATASIZE PUSH1 0x0 DUP3 RETURNDATACOPY RETURNDATASIZE SWAP1 REVERT JUMPDEST DUP2 DUP2 MUL SWAP3 SWAP2 DUP2 ISZERO SWAP2 DUP5 DIV EQ OR ISZERO PUSH2 0x16FD JUMPI JUMP JUMPDEST DUP2 ISZERO PUSH2 0x18D2 JUMPI DIV SWAP1 JUMP JUMPDEST PUSH4 0x4E487B71 PUSH1 0xE0 SHL PUSH1 0x0 MSTORE PUSH1 0x12 PUSH1 0x4 MSTORE PUSH1 0x24 PUSH1 0x0 REVERT JUMPDEST PUSH1 0x40 MLOAD PUSH4 0x18160DDD PUSH1 0xE0 SHL DUP2 MSTORE SWAP1 SWAP2 SWAP1 PUSH1 0x20 DUP2 PUSH1 0x4 DUP2 PUSH32 0x0 PUSH1 0x1 PUSH1 0x1 PUSH1 0xA0 SHL SUB AND GAS STATICCALL SWAP1 DUP2 ISZERO PUSH2 0x1988 JUMPI PUSH1 0x0 SWAP2 PUSH2 0x1957 JUMPI JUMPDEST POP DUP1 ISZERO PUSH2 0x1952 JUMPI PUSH2 0x194D SWAP1 PUSH2 0x17E9 SWAP4 PUSH2 0x18B5 JUMP JUMPDEST PUSH2 0x18C8 JUMP JUMPDEST POP POP SWAP1 JUMP JUMPDEST SWAP1 PUSH1 0x20 DUP3 RETURNDATASIZE DUP3 GT PUSH2 0x1980 JUMPI JUMPDEST DUP2 PUSH2 0x1970 PUSH1 0x20 SWAP4 DUP4 PUSH2 0x16CE JUMP JUMPDEST DUP2 ADD SUB SLT PUSH2 0x868 JUMPI POP MLOAD CODESIZE PUSH2 0x1939 JUMP JUMPDEST RETURNDATASIZE SWAP2 POP PUSH2 0x1963 JUMP JUMPDEST PUSH1 0x40 MLOAD RETURNDATASIZE PUSH1 0x0 DUP3 RETURNDATACOPY RETURNDATASIZE SWAP1 REVERT JUMPDEST PUSH1 0x40 MLOAD PUSH4 0x18160DDD PUSH1 0xE0 SHL DUP2 MSTORE PUSH1 0x20 DUP2 PUSH1 0x4 DUP2 PUSH32 0x0 PUSH1 0x1 PUSH1 0x1 PUSH1 0xA0 SHL SUB AND GAS STATICCALL SWAP1 DUP2 ISZERO PUSH2 0x1988 JUMPI PUSH1 0x0 SWAP2 PUSH2 0x1A02 JUMPI JUMPDEST POP DUP1 ISZERO PUSH2 0x19FE JUMPI PUSH2 0x194D PUSH2 0x17E9 SWAP3 PUSH2 0x19F8 PUSH2 0x1713 JUMP JUMPDEST SWAP1 PUSH2 0x18B5 JUMP JUMPDEST POP SWAP1 JUMP JUMPDEST SWAP1 PUSH1 0x20 DUP3 RETURNDATASIZE DUP3 GT PUSH2 0x1A2B JUMPI JUMPDEST DUP2 PUSH2 0x1A1B PUSH1 0x20 SWAP4 DUP4 PUSH2 0x16CE JUMP JUMPDEST DUP2 ADD SUB SLT PUSH2 0x868 JUMPI POP MLOAD CODESIZE PUSH2 0x19E2 JUMP JUMPDEST RETURNDATASIZE SWAP2 POP PUSH2 0x1A0E JUMP JUMPDEST ISZERO PUSH2 0x1A3A JUMPI JUMP JUMPDEST PUSH1 0x40 MLOAD PUSH3 0x461BCD PUSH1 0xE5 SHL DUP2 MSTORE PUSH1 0x20 PUSH1 0x4 DUP3 ADD MSTORE PUSH1 0x12 PUSH1 0x24 DUP3 ADD MSTORE PUSH18 0x5661756C743A20736861726573207A65726F PUSH1 0x70 SHL PUSH1 0x44 DUP3 ADD MSTORE PUSH1 0x64 SWAP1 REVERT JUMPDEST PUSH32 0x9B779B17422D0DF92223018B32B4D1FA46E071723D6817E2486D003BECC55F00 PUSH1 0x2 DUP2 SLOAD EQ PUSH2 0x1AA4 JUMPI PUSH1 0x2 SWAP1 SSTORE JUMP JUMPDEST PUSH1 0x40 MLOAD PUSH4 0x3EE5AEB5 PUSH1 0xE0 SHL DUP2 MSTORE PUSH1 0x4 SWAP1 REVERT JUMPDEST PUSH1 0x1 SLOAD PUSH1 0x1 PUSH1 0x1 PUSH1 0xA0 SHL SUB SWAP1 DUP2 AND DUP1 PUSH2 0x1B25 JUMPI JUMPDEST POP PUSH1 0x2 SLOAD AND DUP1 PUSH2 0x1AD7 JUMPI POP JUMP JUMPDEST PUSH1 0x20 PUSH1 0x0 SWAP2 PUSH1 0x4 PUSH1 0x40 MLOAD DUP1 SWAP5 DUP2 SWAP4 PUSH4 0x59D9C75 PUSH1 0xE0 SHL DUP4 MSTORE GAS CALL DUP1 ISZERO PUSH2 0x1988 JUMPI PUSH2 0x1AFE JUMPI POP JUMP JUMPDEST PUSH1 0x20 SWAP1 DUP2 RETURNDATASIZE DUP2 GT PUSH2 0x1B1E JUMPI JUMPDEST PUSH2 0x1B14 DUP2 DUP4 PUSH2 0x16CE JUMP JUMPDEST DUP2 ADD SUB SLT PUSH2 0x4D1 JUMPI JUMP JUMPDEST POP RETURNDATASIZE PUSH2 0x1B0A JUMP JUMPDEST PUSH1 0x20 PUSH1 0x0 SWAP2 PUSH1 0x4 PUSH1 0x40 MLOAD DUP1 SWAP5 DUP2 SWAP4 PUSH4 0x59D9C75 PUSH1 0xE0 SHL DUP4 MSTORE GAS CALL DUP1 ISZERO PUSH2 0x1988 JUMPI ISZERO PUSH2 0x1ACA JUMPI PUSH1 0x20 SWAP1 DUP2 RETURNDATASIZE DUP2 GT PUSH2 0x1B6E JUMPI JUMPDEST PUSH2 0x1B60 DUP2 DUP4 PUSH2 0x16CE JUMP JUMPDEST DUP2 ADD SUB SLT PUSH2 0x4D1 JUMPI CODESIZE PUSH2 0x1ACA JUMP JUMPDEST POP RETURNDATASIZE PUSH2 0x1B56 JUMP JUMPDEST SWAP2 SWAP1 DUP3 SUB SWAP2 DUP3 GT PUSH2 0x16FD JUMPI JUMP JUMPDEST SWAP1 DUP2 PUSH1 0x20 SWAP2 SUB SLT PUSH2 0x4D1 JUMPI MLOAD DUP1 ISZERO ISZERO DUP2 SUB PUSH2 0x4D1 JUMPI SWAP1 JUMP JUMPDEST PUSH2 0x1B58 DUP1 DUP3 MUL SWAP1 DUP3 DUP3 DIV EQ DUP3 ISZERO OR ISZERO PUSH2 0x16FD JUMPI PUSH2 0x2710 PUSH2 0x1BBC SWAP2 DIV DUP1 SWAP3 PUSH2 0x1B75 JUMP JUMPDEST SWAP1 DUP1 ISZERO ISZERO DUP1 PUSH2 0x1EA1 JUMPI JUMPDEST PUSH2 0x1D4D JUMPI JUMPDEST POP DUP1 ISZERO ISZERO DUP1 PUSH2 0x1D39 JUMPI JUMPDEST PUSH2 0x1BDC JUMPI POP JUMP JUMPDEST PUSH1 0x2 SLOAD PUSH1 0x40 DUP1 MLOAD PUSH4 0x95EA7B3 PUSH1 0xE0 SHL DUP1 DUP3 MSTORE PUSH1 0x1 PUSH1 0x1 PUSH1 0xA0 SHL SUB SWAP4 DUP5 AND PUSH1 0x4 DUP4 ADD MSTORE PUSH1 0x0 PUSH1 0x24 DUP4 ADD DUP2 SWAP1 MSTORE SWAP5 PUSH1 0x20 SWAP5 SWAP1 SWAP3 SWAP1 SWAP2 PUSH32 0x0 DUP4 AND SWAP2 DUP7 DUP2 PUSH1 0x44 DUP2 DUP12 DUP8 GAS CALL DUP1 ISZERO PUSH2 0xC58 JUMPI SWAP3 DUP8 SWAP3 DUP7 SWAP3 PUSH2 0x1C83 SWAP6 PUSH2 0x1D1C JUMPI JUMPDEST POP PUSH1 0x2 SLOAD DUP9 MLOAD SWAP2 DUP3 MSTORE DUP7 AND PUSH1 0x1 PUSH1 0x1 PUSH1 0xA0 SHL SUB AND PUSH1 0x4 DUP3 ADD MSTORE PUSH1 0x24 DUP2 ADD SWAP3 SWAP1 SWAP3 MSTORE SWAP1 SWAP3 DUP4 SWAP2 SWAP1 DUP3 SWAP1 DUP11 SWAP1 DUP3 SWAP1 PUSH1 0x44 DUP3 ADD SWAP1 JUMP JUMPDEST SUB SWAP3 GAS CALL DUP1 ISZERO PUSH2 0xB0B JUMPI DUP6 SWAP3 DUP8 SWAP6 SWAP5 SWAP3 PUSH1 0x24 SWAP3 PUSH2 0x1CEF JUMPI JUMPDEST POP PUSH1 0x2 SLOAD AND SWAP2 DUP5 MLOAD SWAP6 DUP7 SWAP4 DUP5 SWAP3 PUSH4 0xB6B55F25 PUSH1 0xE0 SHL DUP5 MSTORE PUSH1 0x4 DUP5 ADD MSTORE GAS CALL SWAP1 DUP2 ISZERO PUSH2 0x73B JUMPI POP PUSH2 0x1CCA JUMPI POP POP POP JUMP JUMPDEST DUP2 RETURNDATASIZE DUP4 GT PUSH2 0x1CE8 JUMPI JUMPDEST PUSH2 0x1CDD DUP2 DUP4 PUSH2 0x16CE JUMP JUMPDEST DUP2 ADD SUB SLT PUSH2 0x868 JUMPI POP JUMP JUMPDEST POP RETURNDATASIZE PUSH2 0x1CD3 JUMP JUMPDEST PUSH2 0x1D0E SWAP1 DUP6 RETURNDATASIZE DUP8 GT PUSH2 0x1D15 JUMPI JUMPDEST PUSH2 0x1D06 DUP2 DUP4 PUSH2 0x16CE JUMP JUMPDEST DUP2 ADD SWAP1 PUSH2 0x1B82 JUMP JUMPDEST POP CODESIZE PUSH2 0x1C9B JUMP JUMPDEST POP RETURNDATASIZE PUSH2 0x1CFC JUMP JUMPDEST PUSH2 0x1D32 SWAP1 DUP6 RETURNDATASIZE DUP8 GT PUSH2 0x1D15 JUMPI PUSH2 0x1D06 DUP2 DUP4 PUSH2 0x16CE JUMP JUMPDEST POP CODESIZE PUSH2 0x1C50 JUMP JUMPDEST POP PUSH1 0x2 SLOAD PUSH1 0x1 PUSH1 0x1 PUSH1 0xA0 SHL SUB AND ISZERO ISZERO PUSH2 0x1BD5 JUMP JUMPDEST PUSH1 0x1 SLOAD PUSH1 0x40 DUP1 MLOAD PUSH4 0x95EA7B3 PUSH1 0xE0 SHL DUP1 DUP3 MSTORE PUSH1 0x1 PUSH1 0x1 PUSH1 0xA0 SHL SUB SWAP4 DUP5 AND PUSH1 0x4 DUP4 ADD MSTORE PUSH1 0x0 PUSH1 0x24 DUP4 ADD DUP2 SWAP1 MSTORE SWAP5 PUSH1 0x20 SWAP5 SWAP1 SWAP3 SWAP1 SWAP2 PUSH32 0x0 DUP4 AND SWAP2 DUP7 DUP2 PUSH1 0x44 DUP2 DUP12 DUP8 GAS CALL DUP1 ISZERO PUSH2 0xC58 JUMPI SWAP3 DUP8 SWAP3 DUP7 SWAP3 PUSH2 0x1DF4 SWAP6 PUSH2 0x1E84 JUMPI JUMPDEST POP PUSH1 0x1 SLOAD DUP9 MLOAD SWAP2 DUP3 MSTORE DUP7 AND PUSH1 0x1 PUSH1 0x1 PUSH1 0xA0 SHL SUB AND PUSH1 0x4 DUP3 ADD MSTORE PUSH1 0x24 DUP2 ADD SWAP3 SWAP1 SWAP3 MSTORE SWAP1 SWAP3 DUP4 SWAP2 SWAP1 DUP3 SWAP1 DUP11 SWAP1 DUP3 SWAP1 PUSH1 0x44 DUP3 ADD SWAP1 JUMP JUMPDEST SUB SWAP3 GAS CALL DUP1 ISZERO PUSH2 0xB0B JUMPI DUP6 SWAP3 DUP8 SWAP6 SWAP5 SWAP3 PUSH1 0x24 SWAP3 PUSH2 0x1E67 JUMPI JUMPDEST POP PUSH1 0x1 SLOAD AND SWAP2 DUP5 MLOAD SWAP6 DUP7 SWAP4 DUP5 SWAP3 PUSH4 0xB6B55F25 PUSH1 0xE0 SHL DUP5 MSTORE PUSH1 0x4 DUP5 ADD MSTORE GAS CALL SWAP1 DUP2 ISZERO PUSH2 0x73B JUMPI POP PUSH2 0x1E3E JUMPI JUMPDEST POP POP PUSH2 0x1BCB JUMP JUMPDEST DUP2 RETURNDATASIZE DUP4 GT PUSH2 0x1E60 JUMPI JUMPDEST PUSH2 0x1E51 DUP2 DUP4 PUSH2 0x16CE JUMP JUMPDEST DUP2 ADD SUB SLT PUSH2 0x868 JUMPI DUP1 DUP1 PUSH2 0x1E37 JUMP JUMPDEST POP RETURNDATASIZE PUSH2 0x1E47 JUMP JUMPDEST PUSH2 0x1E7D SWAP1 DUP6 RETURNDATASIZE DUP8 GT PUSH2 0x1D15 JUMPI PUSH2 0x1D06 DUP2 DUP4 PUSH2 0x16CE JUMP JUMPDEST POP CODESIZE PUSH2 0x1E0C JUMP JUMPDEST PUSH2 0x1E9A SWAP1 DUP6 RETURNDATASIZE DUP8 GT PUSH2 0x1D15 JUMPI PUSH2 0x1D06 DUP2 DUP4 PUSH2 0x16CE JUMP JUMPDEST POP CODESIZE PUSH2 0x1DC1 JUMP JUMPDEST POP PUSH1 0x1 SLOAD PUSH1 0x1 PUSH1 0x1 PUSH1 0xA0 SHL SUB AND ISZERO ISZERO PUSH2 0x1BC6 JUMP JUMPDEST PUSH1 0x40 MLOAD PUSH4 0x18160DDD PUSH1 0xE0 SHL DUP2 MSTORE PUSH1 0x20 DUP2 PUSH1 0x4 DUP2 PUSH32 0x0 PUSH1 0x1 PUSH1 0x1 PUSH1 0xA0 SHL SUB AND GAS STATICCALL SWAP1 DUP2 ISZERO PUSH2 0x1988 JUMPI PUSH1 0x0 SWAP2 PUSH2 0x1F43 JUMPI JUMPDEST POP DUP1 ISZERO PUSH2 0x1F36 JUMPI PUSH2 0x1F12 PUSH2 0x1713 JUMP JUMPDEST SWAP1 PUSH8 0xDE0B6B3A7640000 SWAP2 DUP3 DUP2 MUL SWAP3 DUP2 DUP5 DIV EQ SWAP1 ISZERO OR ISZERO PUSH2 0x16FD JUMPI PUSH2 0x17E9 SWAP2 PUSH2 0x18C8 JUMP JUMPDEST POP PUSH8 0xDE0B6B3A7640000 SWAP1 JUMP JUMPDEST SWAP1 PUSH1 0x20 DUP3 RETURNDATASIZE DUP3 GT PUSH2 0x1F6C JUMPI JUMPDEST DUP2 PUSH2 0x1F5C PUSH1 0x20 SWAP4 DUP4 PUSH2 0x16CE JUMP JUMPDEST DUP2 ADD SUB SLT PUSH2 0x868 JUMPI POP MLOAD CODESIZE PUSH2 0x1F03 JUMP JUMPDEST RETURNDATASIZE SWAP2 POP PUSH2 0x1F4F JUMP JUMPDEST PUSH1 0x40 MLOAD PUSH4 0x70A08231 PUSH1 0xE0 SHL DUP2 MSTORE PUSH1 0x1 PUSH1 0x1 PUSH1 0xA0 SHL SUB SWAP2 DUP3 AND PUSH1 0x4 DUP3 ADD MSTORE PUSH1 0x20 SWAP3 SWAP2 PUSH32 0x0 AND SWAP1 DUP4 DUP2 PUSH1 0x24 DUP2 DUP6 GAS STATICCALL SWAP1 DUP2 ISZERO PUSH2 0x1988 JUMPI PUSH1 0x0 SWAP2 PUSH2 0x2050 JUMPI JUMPDEST POP DUP1 ISZERO PUSH2 0x2048 JUMPI DUP4 PUSH2 0x1FE5 PUSH1 0x4 SWAP3 PUSH2 0x19F8 PUSH2 0x1713 JUMP JUMPDEST SWAP3 PUSH1 0x40 MLOAD SWAP3 DUP4 DUP1 SWAP3 PUSH4 0x18160DDD PUSH1 0xE0 SHL DUP3 MSTORE GAS STATICCALL SWAP4 DUP5 ISZERO PUSH2 0x1988 JUMPI PUSH1 0x0 SWAP5 PUSH2 0x2015 JUMPI JUMPDEST POP POP SWAP2 PUSH2 0x17E9 SWAP2 SWAP3 PUSH2 0x18C8 JUMP JUMPDEST DUP2 DUP2 RETURNDATASIZE DUP4 GT PUSH2 0x2041 JUMPI JUMPDEST PUSH2 0x2029 DUP2 DUP4 PUSH2 0x16CE JUMP JUMPDEST DUP2 ADD SUB SLT PUSH2 0x203D JUMPI MLOAD SWAP3 POP PUSH2 0x17E9 CODESIZE PUSH2 0x2008 JUMP JUMPDEST DUP4 DUP1 REVERT JUMPDEST POP RETURNDATASIZE PUSH2 0x201F JUMP JUMPDEST POP PUSH1 0x0 SWAP3 POP POP JUMP JUMPDEST SWAP1 DUP5 DUP3 DUP2 RETURNDATASIZE DUP4 GT PUSH2 0x2076 JUMPI JUMPDEST PUSH2 0x2066 DUP2 DUP4 PUSH2 0x16CE JUMP JUMPDEST DUP2 ADD SUB SLT PUSH2 0x868 JUMPI POP MLOAD CODESIZE PUSH2 0x1FCF JUMP JUMPDEST POP RETURNDATASIZE PUSH2 0x205C JUMP INVALID LOG2 PUSH5 0x6970667358 0x22 SLT KECCAK256 0xF9 0x49 DIV PUSH11 0xC3D69DAC7D53E666D897D9 SWAP12 0x4F TIMESTAMP ADD 0x4A RETURNDATACOPY PUSH5 0x63380F5D0B CREATE2 SWAP9 0xE2 0xC 0x1F PUSH5 0x736F6C6343 STOP ADDMOD EQ STOP CALLER PUSH1 0x80 CALLVALUE PUSH3 0x39B JUMPI PUSH1 0x1 PUSH1 0x1 PUSH1 0x40 SHL SUB PUSH1 0x1F PUSH1 0x1F NOT PUSH3 0xD95 CODESIZE DUP2 SWAP1 SUB DUP4 DUP2 ADD DUP4 AND DUP7 ADD DUP6 DUP2 GT DUP8 DUP3 LT OR PUSH3 0x3A0 JUMPI DUP7 SWAP3 DUP3 SWAP2 PUSH1 0x40 MSTORE DUP4 CODECOPY PUSH1 0x20 SWAP6 DUP7 SWAP2 DUP2 ADD SUB SLT PUSH3 0x39B JUMPI MLOAD PUSH1 0x1 PUSH1 0x1 PUSH1 0xA0 SHL SUB SWAP5 DUP6 DUP3 AND SWAP5 SWAP2 DUP6 SWAP1 SUB PUSH3 0x39B JUMPI PUSH3 0x67 PUSH3 0x3B6 JUMP JUMPDEST PUSH1 0x9 DUP2 MSTORE PUSH9 0x5969656C64204C5443 PUSH1 0xB8 SHL DUP3 DUP3 ADD MSTORE PUSH3 0x86 PUSH3 0x3B6 JUMP JUMPDEST SWAP5 PUSH1 0x4 SWAP6 DUP7 DUP2 MSTORE PUSH4 0x794C5443 PUSH1 0xE0 SHL DUP5 DUP3 ADD MSTORE DUP3 MLOAD SWAP4 DUP6 DUP6 GT PUSH3 0x2A1 JUMPI PUSH1 0x3 SWAP5 DUP6 SLOAD SWAP5 PUSH1 0x1 SWAP6 DUP7 DUP2 DUP2 SHR SWAP2 AND DUP1 ISZERO PUSH3 0x390 JUMPI JUMPDEST DUP5 DUP3 LT EQ PUSH3 0x37B JUMPI SWAP1 DUP2 DUP7 DUP5 SWAP4 GT PUSH3 0x325 JUMPI JUMPDEST POP DUP4 SWAP1 DUP7 DUP4 GT PUSH1 0x1 EQ PUSH3 0x2C2 JUMPI PUSH1 0x0 SWAP3 PUSH3 0x2B6 JUMPI JUMPDEST POP POP PUSH1 0x0 NOT DUP3 DUP9 SHL SHR NOT AND SWAP1 DUP6 SHL OR DUP6 SSTORE JUMPDEST DUP2 MLOAD SWAP6 DUP7 GT PUSH3 0x2A1 JUMPI DUP8 SLOAD DUP5 DUP2 DUP2 SHR SWAP2 AND DUP1 ISZERO PUSH3 0x296 JUMPI JUMPDEST DUP3 DUP3 LT EQ PUSH3 0x281 JUMPI DUP4 DUP2 GT PUSH3 0x236 JUMPI JUMPDEST POP DUP1 SWAP3 DUP7 GT PUSH1 0x1 EQ PUSH3 0x1CA JUMPI POP DUP5 SWAP6 POP SWAP1 DUP5 SWAP3 SWAP2 PUSH1 0x0 SWAP6 PUSH3 0x1BE JUMPI JUMPDEST POP POP SHL SWAP3 PUSH1 0x0 NOT SWAP2 SHL SHR NOT AND OR DUP2 SSTORE JUMPDEST DUP2 ISZERO PUSH3 0x1A6 JUMPI POP PUSH1 0x5 DUP1 SLOAD PUSH1 0x1 PUSH1 0x1 PUSH1 0xA0 SHL SUB NOT DUP2 AND DUP4 OR SWAP1 SWAP2 SSTORE PUSH1 0x40 MLOAD SWAP3 AND PUSH32 0x8BE0079C531659141344CD1FD0A4F28419497F9722A3DAAFE3B4186F6B6457E0 PUSH1 0x0 DUP1 LOG3 PUSH2 0x9BE SWAP1 DUP2 PUSH3 0x3D7 DUP3 CODECOPY RETURN JUMPDEST PUSH1 0x24 SWAP1 PUSH1 0x0 PUSH1 0x40 MLOAD SWAP2 PUSH4 0x1E4FBDF7 PUSH1 0xE0 SHL DUP4 MSTORE DUP3 ADD MSTORE REVERT JUMPDEST ADD MLOAD SWAP4 POP CODESIZE DUP1 PUSH3 0x143 JUMP JUMPDEST SWAP4 SWAP3 SWAP6 DUP6 SWAP1 DUP2 AND DUP9 PUSH1 0x0 MSTORE DUP6 PUSH1 0x0 KECCAK256 SWAP6 PUSH1 0x0 SWAP1 JUMPDEST DUP10 DUP4 DUP4 LT PUSH3 0x21B JUMPI POP POP POP LT PUSH3 0x200 JUMPI JUMPDEST POP POP POP POP DUP2 SHL ADD DUP2 SSTORE PUSH3 0x153 JUMP JUMPDEST ADD MLOAD SWAP1 PUSH1 0xF8 DUP5 PUSH1 0x0 NOT SWAP3 SHL AND SHR NOT AND SWAP1 SSTORE CODESIZE DUP1 DUP1 DUP1 PUSH3 0x1F1 JUMP JUMPDEST DUP6 DUP8 ADD MLOAD DUP10 SSTORE SWAP1 SWAP8 ADD SWAP7 SWAP5 DUP6 ADD SWAP5 DUP9 SWAP4 POP SWAP1 DUP2 ADD SWAP1 PUSH3 0x1DE JUMP JUMPDEST DUP9 PUSH1 0x0 MSTORE DUP2 PUSH1 0x0 KECCAK256 DUP5 DUP1 DUP10 ADD PUSH1 0x5 SHR DUP3 ADD SWAP3 DUP5 DUP11 LT PUSH3 0x277 JUMPI JUMPDEST ADD PUSH1 0x5 SHR ADD SWAP1 DUP6 SWAP1 JUMPDEST DUP3 DUP2 LT PUSH3 0x26A JUMPI POP POP PUSH3 0x125 JUMP JUMPDEST PUSH1 0x0 DUP2 SSTORE ADD DUP6 SWAP1 PUSH3 0x25A JUMP JUMPDEST SWAP3 POP DUP2 SWAP3 PUSH3 0x251 JUMP JUMPDEST PUSH1 0x22 DUP10 PUSH4 0x4E487B71 PUSH1 0xE0 SHL PUSH1 0x0 MSTORE MSTORE PUSH1 0x24 PUSH1 0x0 REVERT JUMPDEST SWAP1 PUSH1 0x7F AND SWAP1 PUSH3 0x113 JUMP JUMPDEST PUSH1 0x41 DUP9 PUSH4 0x4E487B71 PUSH1 0xE0 SHL PUSH1 0x0 MSTORE MSTORE PUSH1 0x24 PUSH1 0x0 REVERT JUMPDEST ADD MLOAD SWAP1 POP CODESIZE DUP1 PUSH3 0xE7 JUMP JUMPDEST SWAP1 DUP11 DUP9 SWAP5 AND SWAP2 DUP10 PUSH1 0x0 MSTORE DUP6 PUSH1 0x0 KECCAK256 SWAP3 PUSH1 0x0 JUMPDEST DUP8 DUP3 DUP3 LT PUSH3 0x30E JUMPI POP POP DUP5 GT PUSH3 0x2F5 JUMPI JUMPDEST POP POP POP DUP2 SHL ADD DUP6 SSTORE PUSH3 0xF9 JUMP JUMPDEST ADD MLOAD PUSH1 0x0 NOT DUP4 DUP11 SHL PUSH1 0xF8 AND SHR NOT AND SWAP1 SSTORE CODESIZE DUP1 DUP1 PUSH3 0x2E7 JUMP JUMPDEST DUP4 DUP6 ADD MLOAD DUP7 SSTORE DUP12 SWAP8 SWAP1 SWAP6 ADD SWAP5 SWAP4 DUP5 ADD SWAP4 ADD PUSH3 0x2D4 JUMP JUMPDEST SWAP1 SWAP2 POP DUP8 PUSH1 0x0 MSTORE DUP4 PUSH1 0x0 KECCAK256 DUP7 DUP1 DUP6 ADD PUSH1 0x5 SHR DUP3 ADD SWAP3 DUP7 DUP7 LT PUSH3 0x371 JUMPI JUMPDEST SWAP2 DUP10 SWAP2 DUP7 SWAP6 SWAP5 SWAP4 ADD PUSH1 0x5 SHR ADD SWAP2 JUMPDEST DUP3 DUP2 LT PUSH3 0x361 JUMPI POP POP PUSH3 0xD0 JUMP JUMPDEST PUSH1 0x0 DUP2 SSTORE DUP6 SWAP5 POP DUP10 SWAP2 ADD PUSH3 0x351 JUMP JUMPDEST SWAP3 POP DUP2 SWAP3 PUSH3 0x343 JUMP JUMPDEST PUSH1 0x22 DUP12 PUSH4 0x4E487B71 PUSH1 0xE0 SHL PUSH1 0x0 MSTORE MSTORE PUSH1 0x24 PUSH1 0x0 REVERT JUMPDEST SWAP1 PUSH1 0x7F AND SWAP1 PUSH3 0xBB JUMP JUMPDEST PUSH1 0x0 DUP1 REVERT JUMPDEST PUSH4 0x4E487B71 PUSH1 0xE0 SHL PUSH1 0x0 MSTORE PUSH1 0x41 PUSH1 0x4 MSTORE PUSH1 0x24 PUSH1 0x0 REVERT JUMPDEST PUSH1 0x40 DUP1 MLOAD SWAP2 SWAP1 DUP3 ADD PUSH1 0x1 PUSH1 0x1 PUSH1 0x40 SHL SUB DUP2 GT DUP4 DUP3 LT OR PUSH3 0x3A0 JUMPI PUSH1 0x40 MSTORE JUMP INVALID PUSH1 0x80 PUSH1 0x40 DUP2 DUP2 MSTORE PUSH1 0x4 DUP1 CALLDATASIZE LT ISZERO PUSH2 0x15 JUMPI PUSH1 0x0 DUP1 REVERT JUMPDEST PUSH1 0x0 SWAP3 DUP4 CALLDATALOAD PUSH1 0xE0 SHR SWAP1 DUP2 PUSH4 0x6FDDE03 EQ PUSH2 0x70F JUMPI POP DUP1 PUSH4 0x95EA7B3 EQ PUSH2 0x666 JUMPI DUP1 PUSH4 0x18160DDD EQ PUSH2 0x647 JUMPI DUP1 PUSH4 0x23B872DD EQ PUSH2 0x554 JUMPI DUP1 PUSH4 0x313CE567 EQ PUSH2 0x538 JUMPI DUP1 PUSH4 0x40C10F19 EQ PUSH2 0x489 JUMPI DUP1 PUSH4 0x70A08231 EQ PUSH2 0x452 JUMPI DUP1 PUSH4 0x715018A6 EQ PUSH2 0x3F2 JUMPI DUP1 PUSH4 0x8DA5CB5B EQ PUSH2 0x3C9 JUMPI DUP1 PUSH4 0x95D89B41 EQ PUSH2 0x2A9 JUMPI DUP1 PUSH4 0x9DC29FAC EQ PUSH2 0x1CD JUMPI DUP1 PUSH4 0xA9059CBB EQ PUSH2 0x19C JUMPI DUP1 PUSH4 0xDD62ED3E EQ PUSH2 0x14F JUMPI PUSH4 0xF2FDE38B EQ PUSH2 0xBD JUMPI PUSH1 0x0 DUP1 REVERT JUMPDEST CALLVALUE PUSH2 0x14B JUMPI PUSH1 0x20 CALLDATASIZE PUSH1 0x3 NOT ADD SLT PUSH2 0x14B JUMPI PUSH2 0xD6 PUSH2 0x84D JUMP JUMPDEST SWAP1 PUSH2 0xDF PUSH2 0x87E JUMP JUMPDEST PUSH1 0x1 PUSH1 0x1 PUSH1 0xA0 SHL SUB SWAP2 DUP3 AND SWAP3 DUP4 ISZERO PUSH2 0x135 JUMPI POP POP PUSH1 0x5 SLOAD DUP3 PUSH12 0xFFFFFFFFFFFFFFFFFFFFFFFF PUSH1 0xA0 SHL DUP3 AND OR PUSH1 0x5 SSTORE AND PUSH32 0x8BE0079C531659141344CD1FD0A4F28419497F9722A3DAAFE3B4186F6B6457E0 DUP4 DUP1 LOG3 DUP1 RETURN JUMPDEST MLOAD PUSH4 0x1E4FBDF7 PUSH1 0xE0 SHL DUP2 MSTORE SWAP1 DUP2 ADD DUP5 SWAP1 MSTORE PUSH1 0x24 SWAP1 REVERT JUMPDEST DUP3 DUP1 REVERT JUMPDEST POP POP CALLVALUE PUSH2 0x198 JUMPI DUP1 PUSH1 0x3 NOT CALLDATASIZE ADD SLT PUSH2 0x198 JUMPI DUP1 PUSH1 0x20 SWAP3 PUSH2 0x16D PUSH2 0x84D JUMP JUMPDEST PUSH2 0x175 PUSH2 0x868 JUMP JUMPDEST PUSH1 0x1 PUSH1 0x1 PUSH1 0xA0 SHL SUB SWAP2 DUP3 AND DUP4 MSTORE PUSH1 0x1 DUP7 MSTORE DUP4 DUP4 KECCAK256 SWAP2 AND DUP3 MSTORE DUP5 MSTORE KECCAK256 SLOAD SWAP1 MLOAD SWAP1 DUP2 MSTORE RETURN JUMPDEST POP DUP1 REVERT JUMPDEST POP POP CALLVALUE PUSH2 0x198 JUMPI DUP1 PUSH1 0x3 NOT CALLDATASIZE ADD SLT PUSH2 0x198 JUMPI PUSH1 0x20 SWAP1 PUSH2 0x1C6 PUSH2 0x1BC PUSH2 0x84D JUMP JUMPDEST PUSH1 0x24 CALLDATALOAD SWAP1 CALLER PUSH2 0x8AA JUMP JUMPDEST MLOAD PUSH1 0x1 DUP2 MSTORE RETURN JUMPDEST POP DUP3 SWAP1 CALLVALUE PUSH2 0x198 JUMPI DUP3 PUSH1 0x3 NOT CALLDATASIZE ADD SLT PUSH2 0x198 JUMPI PUSH2 0x1E8 PUSH2 0x84D JUMP JUMPDEST SWAP1 PUSH1 0x24 CALLDATALOAD SWAP1 PUSH2 0x1F5 PUSH2 0x87E JUMP JUMPDEST PUSH1 0x1 PUSH1 0x1 PUSH1 0xA0 SHL SUB DUP4 AND SWAP3 DUP4 ISZERO PUSH2 0x292 JUMPI DUP4 DUP6 MSTORE DUP5 PUSH1 0x20 MSTORE DUP6 DUP6 KECCAK256 SLOAD SWAP2 DUP4 DUP4 LT PUSH2 0x25E JUMPI POP POP DUP2 DUP5 SWAP6 PUSH32 0xDDF252AD1BE2C89B69C2B068FC378DAA952BA7F163C4A11628F55A4DF523B3EF SWAP4 PUSH1 0x20 SWAP4 DUP7 DUP9 MSTORE DUP8 DUP6 MSTORE SUB DUP2 DUP8 KECCAK256 SSTORE DUP2 PUSH1 0x2 SLOAD SUB PUSH1 0x2 SSTORE MLOAD SWAP1 DUP2 MSTORE LOG3 DUP1 RETURN JUMPDEST DUP7 MLOAD PUSH4 0x391434E3 PUSH1 0xE2 SHL DUP2 MSTORE PUSH1 0x1 PUSH1 0x1 PUSH1 0xA0 SHL SUB SWAP1 SWAP3 AND SWAP1 DUP3 ADD SWAP1 DUP2 MSTORE PUSH1 0x20 DUP2 ADD DUP4 SWAP1 MSTORE PUSH1 0x40 DUP2 ADD DUP5 SWAP1 MSTORE DUP2 SWAP1 PUSH1 0x60 ADD SUB SWAP1 REVERT JUMPDEST DUP6 MLOAD PUSH4 0x4B637E8F PUSH1 0xE1 SHL DUP2 MSTORE DUP1 DUP4 ADD DUP7 SWAP1 MSTORE PUSH1 0x24 SWAP1 REVERT JUMPDEST POP SWAP2 SWAP1 CALLVALUE PUSH2 0x198 JUMPI DUP2 PUSH1 0x3 NOT CALLDATASIZE ADD SLT PUSH2 0x198 JUMPI DUP1 MLOAD SWAP1 DUP3 DUP5 SLOAD PUSH1 0x1 DUP2 DUP2 SHR SWAP1 DUP1 DUP4 AND SWAP3 DUP4 ISZERO PUSH2 0x3BF JUMPI JUMPDEST PUSH1 0x20 SWAP4 DUP5 DUP5 LT DUP2 EQ PUSH2 0x3AC JUMPI DUP4 DUP9 MSTORE SWAP1 DUP2 ISZERO PUSH2 0x390 JUMPI POP PUSH1 0x1 EQ PUSH2 0x33B JUMPI JUMPDEST POP POP POP DUP3 SWAP1 SUB PUSH1 0x1F ADD PUSH1 0x1F NOT AND DUP3 ADD SWAP3 PUSH8 0xFFFFFFFFFFFFFFFF DUP5 GT DUP4 DUP6 LT OR PUSH2 0x328 JUMPI POP DUP3 SWAP2 DUP3 PUSH2 0x324 SWAP3 MSTORE DUP3 PUSH2 0x804 JUMP JUMPDEST SUB SWAP1 RETURN JUMPDEST PUSH4 0x4E487B71 PUSH1 0xE0 SHL DUP2 MSTORE PUSH1 0x41 DUP6 MSTORE PUSH1 0x24 SWAP1 REVERT JUMPDEST DUP8 DUP8 MSTORE SWAP2 SWAP3 POP DUP6 SWAP2 DUP4 PUSH32 0x8A35ACFBC15FF81A39AE7D344FD709F28E8600B4AA8C65C6B64BFE7FE36BD19B JUMPDEST DUP4 DUP6 LT PUSH2 0x37C JUMPI POP POP POP POP DUP4 ADD ADD CODESIZE DUP1 DUP1 PUSH2 0x2F2 JUMP JUMPDEST DUP1 SLOAD DUP9 DUP7 ADD DUP4 ADD MSTORE SWAP4 ADD SWAP3 DUP5 SWAP1 DUP3 ADD PUSH2 0x366 JUMP JUMPDEST PUSH1 0xFF NOT AND DUP8 DUP6 ADD MSTORE POP POP ISZERO ISZERO PUSH1 0x5 SHL DUP5 ADD ADD SWAP1 POP CODESIZE DUP1 DUP1 PUSH2 0x2F2 JUMP JUMPDEST PUSH4 0x4E487B71 PUSH1 0xE0 SHL DUP10 MSTORE PUSH1 0x22 DUP11 MSTORE PUSH1 0x24 DUP10 REVERT JUMPDEST SWAP2 PUSH1 0x7F AND SWAP2 PUSH2 0x2D3 JUMP JUMPDEST POP POP CALLVALUE PUSH2 0x198 JUMPI DUP2 PUSH1 0x3 NOT CALLDATASIZE ADD SLT PUSH2 0x198 JUMPI PUSH1 0x5 SLOAD SWAP1 MLOAD PUSH1 0x1 PUSH1 0x1 PUSH1 0xA0 SHL SUB SWAP1 SWAP2 AND DUP2 MSTORE PUSH1 0x20 SWAP1 RETURN JUMPDEST DUP4 CALLVALUE PUSH2 0x44F JUMPI DUP1 PUSH1 0x3 NOT CALLDATASIZE ADD SLT PUSH2 0x44F JUMPI PUSH2 0x40B PUSH2 0x87E JUMP JUMPDEST PUSH1 0x5 DUP1 SLOAD PUSH1 0x1 PUSH1 0x1 PUSH1 0xA0 SHL SUB NOT DUP2 AND SWAP1 SWAP2 SSTORE DUP2 SWAP1 PUSH1 0x1 PUSH1 0x1 PUSH1 0xA0 SHL SUB AND PUSH32 0x8BE0079C531659141344CD1FD0A4F28419497F9722A3DAAFE3B4186F6B6457E0 DUP3 DUP1 LOG3 DUP1 RETURN JUMPDEST DUP1 REVERT JUMPDEST POP POP CALLVALUE PUSH2 0x198 JUMPI PUSH1 0x20 CALLDATASIZE PUSH1 0x3 NOT ADD SLT PUSH2 0x198 JUMPI PUSH1 0x20 SWAP2 DUP2 SWAP1 PUSH1 0x1 PUSH1 0x1 PUSH1 0xA0 SHL SUB PUSH2 0x47A PUSH2 0x84D JUMP JUMPDEST AND DUP2 MSTORE DUP1 DUP5 MSTORE KECCAK256 SLOAD SWAP1 MLOAD SWAP1 DUP2 MSTORE RETURN JUMPDEST POP SWAP1 CALLVALUE PUSH2 0x14B JUMPI DUP1 PUSH1 0x3 NOT CALLDATASIZE ADD SLT PUSH2 0x14B JUMPI PUSH2 0x4A3 PUSH2 0x84D JUMP JUMPDEST SWAP1 PUSH1 0x24 CALLDATALOAD SWAP2 PUSH2 0x4B0 PUSH2 0x87E JUMP JUMPDEST PUSH1 0x1 PUSH1 0x1 PUSH1 0xA0 SHL SUB AND SWAP3 DUP4 ISZERO PUSH2 0x523 JUMPI PUSH1 0x2 SLOAD SWAP1 DUP4 DUP3 ADD DUP1 SWAP3 GT PUSH2 0x510 JUMPI POP DUP5 SWAP3 PUSH32 0xDDF252AD1BE2C89B69C2B068FC378DAA952BA7F163C4A11628F55A4DF523B3EF SWAP3 PUSH1 0x20 SWAP3 PUSH1 0x2 SSTORE DUP6 DUP6 MSTORE DUP5 DUP4 MSTORE DUP1 DUP6 KECCAK256 DUP3 DUP2 SLOAD ADD SWAP1 SSTORE MLOAD SWAP1 DUP2 MSTORE LOG3 DUP1 RETURN JUMPDEST PUSH4 0x4E487B71 PUSH1 0xE0 SHL DUP7 MSTORE PUSH1 0x11 SWAP1 MSTORE PUSH1 0x24 DUP6 REVERT JUMPDEST DUP5 PUSH1 0x24 SWAP3 MLOAD SWAP2 PUSH4 0xEC442F05 PUSH1 0xE0 SHL DUP4 MSTORE DUP3 ADD MSTORE REVERT JUMPDEST POP POP CALLVALUE PUSH2 0x198 JUMPI DUP2 PUSH1 0x3 NOT CALLDATASIZE ADD SLT PUSH2 0x198 JUMPI PUSH1 0x20 SWAP1 MLOAD PUSH1 0x12 DUP2 MSTORE RETURN JUMPDEST POP DUP3 CALLVALUE PUSH2 0x44F JUMPI PUSH1 0x60 CALLDATASIZE PUSH1 0x3 NOT ADD SLT PUSH2 0x44F JUMPI PUSH2 0x56F PUSH2 0x84D JUMP JUMPDEST PUSH2 0x577 PUSH2 0x868 JUMP JUMPDEST SWAP2 PUSH1 0x44 CALLDATALOAD SWAP4 PUSH1 0x1 DUP1 PUSH1 0xA0 SHL SUB DUP4 AND DUP1 DUP4 MSTORE PUSH1 0x1 PUSH1 0x20 MSTORE DUP7 DUP4 KECCAK256 CALLER DUP5 MSTORE PUSH1 0x20 MSTORE DUP7 DUP4 KECCAK256 SLOAD SWAP2 PUSH1 0x0 NOT DUP4 LT PUSH2 0x5B3 JUMPI JUMPDEST PUSH1 0x20 DUP9 PUSH2 0x1C6 DUP10 DUP10 DUP10 PUSH2 0x8AA JUMP JUMPDEST DUP7 DUP4 LT PUSH2 0x61B JUMPI DUP2 ISZERO PUSH2 0x604 JUMPI CALLER ISZERO PUSH2 0x5ED JUMPI POP DUP3 MSTORE PUSH1 0x1 PUSH1 0x20 SWAP1 DUP2 MSTORE DUP7 DUP4 KECCAK256 CALLER DUP5 MSTORE DUP2 MSTORE SWAP2 DUP7 SWAP1 KECCAK256 SWAP1 DUP6 SWAP1 SUB SWAP1 SSTORE DUP3 SWAP1 PUSH2 0x1C6 DUP8 PUSH2 0x5A5 JUMP JUMPDEST DUP8 MLOAD PUSH4 0x4A1406B1 PUSH1 0xE1 SHL DUP2 MSTORE SWAP1 DUP2 ADD DUP5 SWAP1 MSTORE PUSH1 0x24 SWAP1 REVERT JUMPDEST DUP8 MLOAD PUSH4 0xE602DF05 PUSH1 0xE0 SHL DUP2 MSTORE SWAP1 DUP2 ADD DUP5 SWAP1 MSTORE PUSH1 0x24 SWAP1 REVERT JUMPDEST DUP8 MLOAD PUSH4 0x7DC7A0D9 PUSH1 0xE1 SHL DUP2 MSTORE CALLER SWAP2 DUP2 ADD SWAP2 DUP3 MSTORE PUSH1 0x20 DUP3 ADD SWAP4 SWAP1 SWAP4 MSTORE PUSH1 0x40 DUP2 ADD DUP8 SWAP1 MSTORE DUP3 SWAP2 POP PUSH1 0x60 ADD SUB SWAP1 REVERT JUMPDEST POP POP CALLVALUE PUSH2 0x198 JUMPI DUP2 PUSH1 0x3 NOT CALLDATASIZE ADD SLT PUSH2 0x198 JUMPI PUSH1 0x20 SWAP1 PUSH1 0x2 SLOAD SWAP1 MLOAD SWAP1 DUP2 MSTORE RETURN JUMPDEST POP CALLVALUE PUSH2 0x14B JUMPI DUP2 PUSH1 0x3 NOT CALLDATASIZE ADD SLT PUSH2 0x14B JUMPI PUSH2 0x67F PUSH2 0x84D JUMP JUMPDEST PUSH1 0x24 CALLDATALOAD SWAP1 CALLER ISZERO PUSH2 0x6F8 JUMPI PUSH1 0x1 PUSH1 0x1 PUSH1 0xA0 SHL SUB AND SWAP2 DUP3 ISZERO PUSH2 0x6E1 JUMPI POP DUP1 DUP4 PUSH1 0x20 SWAP6 CALLER DUP2 MSTORE PUSH1 0x1 DUP8 MSTORE DUP2 DUP2 KECCAK256 DUP6 DUP3 MSTORE DUP8 MSTORE KECCAK256 SSTORE DUP3 MLOAD SWAP1 DUP2 MSTORE PUSH32 0x8C5BE1E5EBEC7D5BD14F71427D1E84F3DD0314C0F7B2291E5B200AC8C7C3B925 DUP5 CALLER SWAP3 LOG3 MLOAD PUSH1 0x1 DUP2 MSTORE RETURN JUMPDEST DUP4 MLOAD PUSH4 0x4A1406B1 PUSH1 0xE1 SHL DUP2 MSTORE SWAP1 DUP2 ADD DUP6 SWAP1 MSTORE PUSH1 0x24 SWAP1 REVERT JUMPDEST DUP4 MLOAD PUSH4 0xE602DF05 PUSH1 0xE0 SHL DUP2 MSTORE DUP1 DUP5 ADD DUP7 SWAP1 MSTORE PUSH1 0x24 SWAP1 REVERT JUMPDEST DUP5 SWAP2 POP DUP4 CALLVALUE PUSH2 0x14B JUMPI DUP3 PUSH1 0x3 NOT CALLDATASIZE ADD SLT PUSH2 0x14B JUMPI DUP3 PUSH1 0x3 SLOAD PUSH1 0x1 DUP2 DUP2 SHR SWAP1 DUP1 DUP4 AND SWAP3 DUP4 ISZERO PUSH2 0x7FA JUMPI JUMPDEST PUSH1 0x20 SWAP4 DUP5 DUP5 LT DUP2 EQ PUSH2 0x3AC JUMPI DUP4 DUP9 MSTORE SWAP1 DUP2 ISZERO PUSH2 0x7DE JUMPI POP PUSH1 0x1 EQ PUSH2 0x788 JUMPI POP POP POP DUP3 SWAP1 SUB PUSH1 0x1F ADD PUSH1 0x1F NOT AND DUP3 ADD SWAP3 PUSH8 0xFFFFFFFFFFFFFFFF DUP5 GT DUP4 DUP6 LT OR PUSH2 0x328 JUMPI POP DUP3 SWAP2 DUP3 PUSH2 0x324 SWAP3 MSTORE DUP3 PUSH2 0x804 JUMP JUMPDEST PUSH1 0x3 DUP8 MSTORE SWAP2 SWAP3 POP DUP6 SWAP2 DUP4 PUSH32 0xC2575A0E9E593C00F959F8C92F12DB2869C3395A3B0502D05E2516446F71F85B JUMPDEST DUP4 DUP6 LT PUSH2 0x7CA JUMPI POP POP POP POP DUP4 ADD ADD DUP6 DUP1 DUP1 PUSH2 0x2F2 JUMP JUMPDEST DUP1 SLOAD DUP9 DUP7 ADD DUP4 ADD MSTORE SWAP4 ADD SWAP3 DUP5 SWAP1 DUP3 ADD PUSH2 0x7B4 JUMP JUMPDEST PUSH1 0xFF NOT AND DUP8 DUP6 ADD MSTORE POP POP ISZERO ISZERO PUSH1 0x5 SHL DUP5 ADD ADD SWAP1 POP DUP6 DUP1 DUP1 PUSH2 0x2F2 JUMP JUMPDEST SWAP2 PUSH1 0x7F AND SWAP2 PUSH2 0x738 JUMP JUMPDEST PUSH1 0x20 DUP1 DUP3 MSTORE DUP3 MLOAD DUP2 DUP4 ADD DUP2 SWAP1 MSTORE SWAP1 SWAP4 SWAP3 PUSH1 0x0 JUMPDEST DUP3 DUP2 LT PUSH2 0x839 JUMPI POP POP PUSH1 0x40 SWAP3 SWAP4 POP PUSH1 0x0 DUP4 DUP3 DUP5 ADD ADD MSTORE PUSH1 0x1F DUP1 NOT SWAP2 ADD AND ADD ADD SWAP1 JUMP JUMPDEST DUP2 DUP2 ADD DUP7 ADD MLOAD DUP5 DUP3 ADD PUSH1 0x40 ADD MSTORE DUP6 ADD PUSH2 0x817 JUMP JUMPDEST PUSH1 0x4 CALLDATALOAD SWAP1 PUSH1 0x1 PUSH1 0x1 PUSH1 0xA0 SHL SUB DUP3 AND DUP3 SUB PUSH2 0x863 JUMPI JUMP JUMPDEST PUSH1 0x0 DUP1 REVERT JUMPDEST PUSH1 0x24 CALLDATALOAD SWAP1 PUSH1 0x1 PUSH1 0x1 PUSH1 0xA0 SHL SUB DUP3 AND DUP3 SUB PUSH2 0x863 JUMPI JUMP JUMPDEST PUSH1 0x5 SLOAD PUSH1 0x1 PUSH1 0x1 PUSH1 0xA0 SHL SUB AND CALLER SUB PUSH2 0x892 JUMPI JUMP JUMPDEST PUSH1 0x40 MLOAD PUSH4 0x118CDAA7 PUSH1 0xE0 SHL DUP2 MSTORE CALLER PUSH1 0x4 DUP3 ADD MSTORE PUSH1 0x24 SWAP1 REVERT JUMPDEST SWAP2 PUSH1 0x1 PUSH1 0x1 PUSH1 0xA0 SHL SUB DUP1 DUP5 AND SWAP3 DUP4 ISZERO PUSH2 0x96F JUMPI AND SWAP3 DUP4 ISZERO PUSH2 0x956 JUMPI PUSH1 0x0 SWAP1 DUP4 DUP3 MSTORE DUP2 PUSH1 0x20 MSTORE PUSH1 0x40 DUP3 KECCAK256 SLOAD SWAP1 DUP4 DUP3 LT PUSH2 0x924 JUMPI POP SWAP2 PUSH1 0x40 DUP3 DUP3 PUSH32 0xDDF252AD1BE2C89B69C2B068FC378DAA952BA7F163C4A11628F55A4DF523B3EF SWAP6 DUP8 PUSH1 0x20 SWAP7 MSTORE DUP3 DUP7 MSTORE SUB DUP3 DUP3 KECCAK256 SSTORE DUP7 DUP2 MSTORE KECCAK256 DUP2 DUP2 SLOAD ADD SWAP1 SSTORE PUSH1 0x40 MLOAD SWAP1 DUP2 MSTORE LOG3 JUMP JUMPDEST PUSH1 0x40 MLOAD PUSH4 0x391434E3 PUSH1 0xE2 SHL DUP2 MSTORE PUSH1 0x1 PUSH1 0x1 PUSH1 0xA0 SHL SUB SWAP2 SWAP1 SWAP2 AND PUSH1 0x4 DUP3 ADD MSTORE PUSH1 0x24 DUP2 ADD SWAP2 SWAP1 SWAP2 MSTORE PUSH1 0x44 DUP2 ADD DUP4 SWAP1 MSTORE PUSH1 0x64 SWAP1 REVERT JUMPDEST PUSH1 0x40 MLOAD PUSH4 0xEC442F05 PUSH1 0xE0 SHL DUP2 MSTORE PUSH1 0x0 PUSH1 0x4 DUP3 ADD MSTORE PUSH1 0x24 SWAP1 REVERT JUMPDEST PUSH1 0x40 MLOAD PUSH4 0x4B637E8F PUSH1 0xE1 SHL DUP2 MSTORE PUSH1 0x0 PUSH1 0x4 DUP3 ADD MSTORE PUSH1 0x24 SWAP1 REVERT INVALID LOG2 PUSH5 0x6970667358 0x22 SLT KECCAK256 0x2C ORIGIN 0xB4 0x27 PUSH0 GAS CALLVALUE NOT 0xE 0xE3 SHL 0x1F 0xC 0xEB 0xDA CODESIZE PUSH26 0xA9850D554EB97448DD98A7E47A47F964736F6C63430008140033 "},"methodIdentifiers":{"MAX_BPS()":"fd967f47","STRAT_A_WEIGHT()":"5646b995","STRAT_B_WEIGHT()":"40f4520c","convertToAssets(uint256)":"07a2d13a","convertToShares(uint256)":"c6e6f592","deposit(uint256,uint256)":"e2bbb158","emergencyWithdrawAll()":"dd191719","getStrategyAPYs()":"79664776","getUserPosition(address)":"5b7c2dad","isPaused()":"b187bd26","owner()":"8da5cb5b","rebalance()":"7d7c2a1c","renounceOwnership()":"715018a6","setPaused(bool)":"16c38b3c","setStrategies(address,address)":"c583214c","setTargetBuffer(uint256)":"c82b929d","sharePrice()":"87269729","shareToken()":"6c9fa59e","strategyA()":"e504d975","strategyB()":"d7ebce75","targetBufferBps()":"715857b0","totalAssets()":"01e1d114","transferOwnership(address)":"f2fde38b","underlying()":"6f307dc3","withdraw(uint256)":"2e1a7d4d"}}}}}