{
  "_format": "hh-sol-artifact-1",
  "contractName": "MockLTC",
  "sourceName": "contracts/MockLTC.sol",
  "abi": [
    {
      "inputs": [],
      "stateMutability": "nonpayable",
      "type": "constructor"
    },
    {
      "inputs": [
        {
          "internalType": "address",
          "name": "spender",
          "type": "address"
        },
        {
          "internalType": "uint256",
          "name": "allowance",
          "type": "uint256"
        },
        {
          "internalType": "uint256",
          "name": "needed",
          "type": "uint256"
        }
      ],
      "name": "ERC20InsufficientAllowance",
      "type": "error"
    },
    {
      "inputs": [
        {
          "internalType": "address",
          "name": "sender",
          "type": "address"
        },
        {
          "internalType": "uint256",
          "name": "balance",
          "type": "uint256"
        },
        {
          "internalType": "uint256",
          "name": "needed",
          "type": "uint256"
        }
      ],
      "name": "ERC20InsufficientBalance",
      "type": "error"
    },
    {
      "inputs": [
        {
          "internalType": "address",
          "name": "approver",
          "type": "address"
        }
      ],
      "name": "ERC20InvalidApprover",
      "type": "error"
    },
    {
      "inputs": [
        {
          "internalType": "address",
          "name": "receiver",
          "type": "address"
        }
      ],
      "name": "ERC20InvalidReceiver",
      "type": "error"
    },
    {
      "inputs": [
        {
          "internalType": "address",
          "name": "sender",
          "type": "address"
        }
      ],
      "name": "ERC20InvalidSender",
      "type": "error"
    },
    {
      "inputs": [
        {
          "internalType": "address",
          "name": "spender",
          "type": "address"
        }
      ],
      "name": "ERC20InvalidSpender",
      "type": "error"
    },
    {
      "anonymous": false,
      "inputs": [
        {
          "indexed": true,
          "internalType": "address",
          "name": "owner",
          "type": "address"
        },
        {
          "indexed": true,
          "internalType": "address",
          "name": "spender",
          "type": "address"
        },
        {
          "indexed": false,
          "internalType": "uint256",
          "name": "value",
          "type": "uint256"
        }
      ],
      "name": "Approval",
      "type": "event"
    },
    {
      "anonymous": false,
      "inputs": [
        {
          "indexed": true,
          "internalType": "address",
          "name": "from",
          "type": "address"
        },
        {
          "indexed": true,
          "internalType": "address",
          "name": "to",
          "type": "address"
        },
        {
          "indexed": false,
          "internalType": "uint256",
          "name": "value",
          "type": "uint256"
        }
      ],
      "name": "Transfer",
      "type": "event"
    },
    {
      "inputs": [],
      "name": "COOLDOWN",
      "outputs": [
        {
          "internalType": "uint256",
          "name": "",
          "type": "uint256"
        }
      ],
      "stateMutability": "view",
      "type": "function"
    },
    {
      "inputs": [],
      "name": "FAUCET_AMOUNT",
      "outputs": [
        {
          "internalType": "uint256",
          "name": "",
          "type": "uint256"
        }
      ],
      "stateMutability": "view",
      "type": "function"
    },
    {
      "inputs": [
        {
          "internalType": "address",
          "name": "owner",
          "type": "address"
        },
        {
          "internalType": "address",
          "name": "spender",
          "type": "address"
        }
      ],
      "name": "allowance",
      "outputs": [
        {
          "internalType": "uint256",
          "name": "",
          "type": "uint256"
        }
      ],
      "stateMutability": "view",
      "type": "function"
    },
    {
      "inputs": [
        {
          "internalType": "address",
          "name": "spender",
          "type": "address"
        },
        {
          "internalType": "uint256",
          "name": "value",
          "type": "uint256"
        }
      ],
      "name": "approve",
      "outputs": [
        {
          "internalType": "bool",
          "name": "",
          "type": "bool"
        }
      ],
      "stateMutability": "nonpayable",
      "type": "function"
    },
    {
      "inputs": [
        {
          "internalType": "address",
          "name": "account",
          "type": "address"
        }
      ],
      "name": "balanceOf",
      "outputs": [
        {
          "internalType": "uint256",
          "name": "",
          "type": "uint256"
        }
      ],
      "stateMutability": "view",
      "type": "function"
    },
    {
      "inputs": [],
      "name": "decimals",
      "outputs": [
        {
          "internalType": "uint8",
          "name": "",
          "type": "uint8"
        }
      ],
      "stateMutability": "view",
      "type": "function"
    },
    {
      "inputs": [],
      "name": "faucet",
      "outputs": [],
      "stateMutability": "nonpayable",
      "type": "function"
    },
    {
      "inputs": [
        {
          "internalType": "address",
          "name": "",
          "type": "address"
        }
      ],
      "name": "lastClaim",
      "outputs": [
        {
          "internalType": "uint256",
          "name": "",
          "type": "uint256"
        }
      ],
      "stateMutability": "view",
      "type": "function"
    },
    {
      "inputs": [],
      "name": "name",
      "outputs": [
        {
          "internalType": "string",
          "name": "",
          "type": "string"
        }
      ],
      "stateMutability": "view",
      "type": "function"
    },
    {
      "inputs": [],
      "name": "symbol",
      "outputs": [
        {
          "internalType": "string",
          "name": "",
          "type": "string"
        }
      ],
      "stateMutability": "view",
      "type": "function"
    },
    {
      "inputs": [],
      "name": "totalSupply",
      "outputs": [
        {
          "internalType": "uint256",
          "name": "",
          "type": "uint256"
        }
      ],
      "stateMutability": "view",
      "type": "function"
    },
    {
      "inputs": [
        {
          "internalType": "address",
          "name": "to",
          "type": "address"
        },
        {
          "internalType": "uint256",
          "name": "value",
          "type": "uint256"
        }
      ],
      "name": "transfer",
      "outputs": [
        {
          "internalType": "bool",
          "name": "",
          "type": "bool"
        }
      ],
      "stateMutability": "nonpayable",
      "type": "function"
    },
    {
      "inputs": [
        {
          "internalType": "address",
          "name": "from",
          "type": "address"
        },
        {
          "internalType": "address",
          "name": "to",
          "type": "address"
        },
        {
          "internalType": "uint256",
          "name": "value",
          "type": "uint256"
        }
      ],
      "name": "transferFrom",
      "outputs": [
        {
          "internalType": "bool",
          "name": "",
          "type": "bool"
        }
      ],
      "stateMutability": "nonpayable",
      "type": "function"
    }
  ],
  "bytecode": "0x608034620003c5576040906001600160401b039080830182811182821017620003af578352600d81526020906c26b7b1b5902634ba32b1b7b4b760991b8282015283519284840184811082821117620003af578552600493848152636d4c544360e01b8482015282518281116200039a576003918254916001958684811c941680156200038f575b888510146200037a578190601f9485811162000324575b508890858311600114620002bd57600092620002b1575b505060001982861b1c191690861b1783555b80519384116200029c5786548581811c9116801562000291575b878210146200027c5782811162000231575b5085918411600114620001c657938394918492600095620001ba575b50501b92600019911b1c19161782555b3315620001a35760025469d3c21bcecceda1000000928382018092116200018e57506000917fddf252ad1be2c89b69c2b068fc378daa952ba7f163c4a11628f55a4df523b3ef9160025533835282815284832084815401905584519384523393a3516108569081620003cb8239f35b601190634e487b7160e01b6000525260246000fd5b506000602492519163ec442f0560e01b8352820152fd5b0151935038806200010f565b9190601f198416928760005284876000209460005b8989838310620002195750505010620001fe575b50505050811b0182556200011f565b01519060f884600019921b161c1916905538808080620001ef565b868601518955909701969485019488935001620001db565b87600052866000208380870160051c82019289881062000272575b0160051c019086905b82811062000265575050620000f3565b6000815501869062000255565b925081926200024c565b602288634e487b7160e01b6000525260246000fd5b90607f1690620000e1565b604187634e487b7160e01b6000525260246000fd5b015190503880620000b5565b90889350601f19831691876000528a6000209260005b8c8282106200030d5750508411620002f4575b505050811b018355620000c7565b015160001983881b60f8161c19169055388080620002e6565b8385015186558c97909501949384019301620002d3565b90915085600052886000208580850160051c8201928b861062000370575b918a91869594930160051c01915b828110620003605750506200009e565b600081558594508a910162000350565b9250819262000342565b602289634e487b7160e01b6000525260246000fd5b93607f169362000087565b604186634e487b7160e01b6000525260246000fd5b634e487b7160e01b600052604160045260246000fd5b600080fdfe608060408181526004908136101561001657600080fd5b600092833560e01c90816306fdde03146105ef57508063095ea7b31461054557806318160ddd1461052657806323b872dd14610430578063313ce567146104145780635c16e15e146103dc57806370a08231146103a5578063766976401461038257806395d89b4114610262578063a2724a4d14610245578063a9059cbb14610214578063dd62ed3e146101c75763de5f72fd146100b357600080fd5b346101c357826003193601126101c35733835260056020528083205461a8c081018091116101b05742106101755733835260056020524281842055331561016057600254670429d069189e00009283820180921161014d57506002553383528260205280832082815401905551908152817fddf252ad1be2c89b69c2b068fc378daa952ba7f163c4a11628f55a4df523b3ef60203393a380f35b634e487b7160e01b855260119052602484fd5b91602492519163ec442f0560e01b8352820152fd5b906020606492519162461bcd60e51b835282015260156024820152744661756365743a207761697420313220686f75727360581b6044820152fd5b634e487b7160e01b845260118352602484fd5b8280fd5b838234610210578060031936011261021057806020926101e5610711565b6101ed61072c565b6001600160a01b0391821683526001865283832091168252845220549051908152f35b5080fd5b83823461021057806003193601126102105760209061023e610234610711565b6024359033610742565b5160018152f35b8382346102105781600319360112610210576020905161a8c08152f35b50829034610210578160031936011261021057805190828454600181811c90808316928315610378575b60209384841081146103655783885290811561034957506001146102f4575b505050829003601f01601f191682019267ffffffffffffffff8411838510176102e157508291826102dd9252826106c8565b0390f35b634e487b7160e01b815260418552602490fd5b8787529192508591837f8a35acfbc15ff81a39ae7d344fd709f28e8600b4aa8c65c6b64bfe7fe36bd19b5b83851061033557505050508301018580806102ab565b80548886018301529301928490820161031f565b60ff1916878501525050151560051b84010190508580806102ab565b634e487b7160e01b895260228a52602489fd5b91607f169161028c565b83823461021057816003193601126102105760209051670429d069189e00008152f35b8382346102105760203660031901126102105760209181906001600160a01b036103cd610711565b16815280845220549051908152f35b8382346102105760203660031901126102105760209181906001600160a01b03610404610711565b1681526005845220549051908152f35b8382346102105781600319360112610210576020905160128152f35b5091346105235760603660031901126105235761044b610711565b61045361072c565b916044359360018060a01b03831680835260016020528683203384526020528683205491600019831061048f575b60208861023e898989610742565b8683106104f75781156104e05733156104c95750825260016020908152868320338452815291869020908590039055829061023e38610481565b8751634a1406b160e11b8152908101849052602490fd5b875163e602df0560e01b8152908101849052602490fd5b8751637dc7a0d960e11b8152339181019182526020820193909352604081018790528291506060010390fd5b80fd5b8382346102105781600319360112610210576020906002549051908152f35b5090346101c357816003193601126101c35761055f610711565b6024359033156105d8576001600160a01b03169182156105c157508083602095338152600187528181208582528752205582519081527f8c5be1e5ebec7d5bd14f71427d1e84f3dd0314c0f7b2291e5b200ac8c7c3b925843392a35160018152f35b8351634a1406b160e11b8152908101859052602490fd5b835163e602df0560e01b8152808401869052602490fd5b90508391346101c357826003193601126101c35782600354600181811c908083169283156106be575b602093848410811461036557838852908115610349575060011461066857505050829003601f01601f191682019267ffffffffffffffff8411838510176102e157508291826102dd9252826106c8565b600387529192508591837fc2575a0e9e593c00f959f8c92f12db2869c3395a3b0502d05e2516446f71f85b5b8385106106aa57505050508301018580806102ab565b805488860183015293019284908201610694565b91607f1691610618565b6020808252825181830181905290939260005b8281106106fd57505060409293506000838284010152601f8019910116010190565b8181018601518482016040015285016106db565b600435906001600160a01b038216820361072757565b600080fd5b602435906001600160a01b038216820361072757565b916001600160a01b0380841692831561080757169283156107ee57600090838252816020526040822054908382106107bc575091604082827fddf252ad1be2c89b69c2b068fc378daa952ba7f163c4a11628f55a4df523b3ef958760209652828652038282205586815220818154019055604051908152a3565b60405163391434e360e21b81526001600160a01b03919091166004820152602481019190915260448101839052606490fd5b60405163ec442f0560e01b815260006004820152602490fd5b604051634b637e8f60e11b815260006004820152602490fdfea2646970667358221220f0aa1b216703f81da48455afb288a26961bd57f78b6b9814318280fb1f1c004864736f6c63430008140033",
  "linkReferences": {},
  "deployedLinkReferences": {}
}