{
  "_format": "hh-sol-artifact-1",
  "contractName": "LiteVault",
  "sourceName": "contracts/LiteVault.sol",
  "abi": [
    {
      "inputs": [
        {
          "internalType": "address",
          "name": "_underlying",
          "type": "address"
        },
        {
          "internalType": "address",
          "name": "_initialOwner",
          "type": "address"
        }
      ],
      "stateMutability": "nonpayable",
      "type": "constructor"
    },
    {
      "inputs": [
        {
          "internalType": "address",
          "name": "owner",
          "type": "address"
        }
      ],
      "name": "OwnableInvalidOwner",
      "type": "error"
    },
    {
      "inputs": [
        {
          "internalType": "address",
          "name": "account",
          "type": "address"
        }
      ],
      "name": "OwnableUnauthorizedAccount",
      "type": "error"
    },
    {
      "inputs": [],
      "name": "ReentrancyGuardReentrantCall",
      "type": "error"
    },
    {
      "inputs": [
        {
          "internalType": "address",
          "name": "token",
          "type": "address"
        }
      ],
      "name": "SafeERC20FailedOperation",
      "type": "error"
    },
    {
      "anonymous": false,
      "inputs": [
        {
          "indexed": true,
          "internalType": "address",
          "name": "user",
          "type": "address"
        },
        {
          "indexed": false,
          "internalType": "uint256",
          "name": "amount",
          "type": "uint256"
        },
        {
          "indexed": false,
          "internalType": "uint256",
          "name": "shares",
          "type": "uint256"
        }
      ],
      "name": "Deposit",
      "type": "event"
    },
    {
      "anonymous": false,
      "inputs": [],
      "name": "EmergencyWithdraw",
      "type": "event"
    },
    {
      "anonymous": false,
      "inputs": [
        {
          "indexed": true,
          "internalType": "address",
          "name": "previousOwner",
          "type": "address"
        },
        {
          "indexed": true,
          "internalType": "address",
          "name": "newOwner",
          "type": "address"
        }
      ],
      "name": "OwnershipTransferred",
      "type": "event"
    },
    {
      "anonymous": false,
      "inputs": [
        {
          "indexed": false,
          "internalType": "uint256",
          "name": "stratAAssets",
          "type": "uint256"
        },
        {
          "indexed": false,
          "internalType": "uint256",
          "name": "stratBAssets",
          "type": "uint256"
        }
      ],
      "name": "Rebalance",
      "type": "event"
    },
    {
      "anonymous": false,
      "inputs": [
        {
          "indexed": true,
          "internalType": "address",
          "name": "user",
          "type": "address"
        },
        {
          "indexed": false,
          "internalType": "uint256",
          "name": "amount",
          "type": "uint256"
        },
        {
          "indexed": false,
          "internalType": "uint256",
          "name": "shares",
          "type": "uint256"
        }
      ],
      "name": "Withdraw",
      "type": "event"
    },
    {
      "inputs": [],
      "name": "MAX_BPS",
      "outputs": [
        {
          "internalType": "uint256",
          "name": "",
          "type": "uint256"
        }
      ],
      "stateMutability": "view",
      "type": "function"
    },
    {
      "inputs": [],
      "name": "STRAT_A_WEIGHT",
      "outputs": [
        {
          "internalType": "uint256",
          "name": "",
          "type": "uint256"
        }
      ],
      "stateMutability": "view",
      "type": "function"
    },
    {
      "inputs": [],
      "name": "STRAT_B_WEIGHT",
      "outputs": [
        {
          "internalType": "uint256",
          "name": "",
          "type": "uint256"
        }
      ],
      "stateMutability": "view",
      "type": "function"
    },
    {
      "inputs": [
        {
          "internalType": "uint256",
          "name": "shares",
          "type": "uint256"
        }
      ],
      "name": "convertToAssets",
      "outputs": [
        {
          "internalType": "uint256",
          "name": "",
          "type": "uint256"
        }
      ],
      "stateMutability": "view",
      "type": "function"
    },
    {
      "inputs": [
        {
          "internalType": "uint256",
          "name": "assets",
          "type": "uint256"
        }
      ],
      "name": "convertToShares",
      "outputs": [
        {
          "internalType": "uint256",
          "name": "",
          "type": "uint256"
        }
      ],
      "stateMutability": "view",
      "type": "function"
    },
    {
      "inputs": [
        {
          "internalType": "uint256",
          "name": "amount",
          "type": "uint256"
        },
        {
          "internalType": "uint256",
          "name": "minShares",
          "type": "uint256"
        }
      ],
      "name": "deposit",
      "outputs": [],
      "stateMutability": "nonpayable",
      "type": "function"
    },
    {
      "inputs": [],
      "name": "emergencyWithdrawAll",
      "outputs": [],
      "stateMutability": "nonpayable",
      "type": "function"
    },
    {
      "inputs": [],
      "name": "getStrategyAPYs",
      "outputs": [
        {
          "internalType": "uint256",
          "name": "apyA",
          "type": "uint256"
        },
        {
          "internalType": "uint256",
          "name": "apyB",
          "type": "uint256"
        }
      ],
      "stateMutability": "view",
      "type": "function"
    },
    {
      "inputs": [
        {
          "internalType": "address",
          "name": "user",
          "type": "address"
        }
      ],
      "name": "getUserPosition",
      "outputs": [
        {
          "internalType": "uint256",
          "name": "",
          "type": "uint256"
        }
      ],
      "stateMutability": "view",
      "type": "function"
    },
    {
      "inputs": [],
      "name": "isPaused",
      "outputs": [
        {
          "internalType": "bool",
          "name": "",
          "type": "bool"
        }
      ],
      "stateMutability": "view",
      "type": "function"
    },
    {
      "inputs": [],
      "name": "owner",
      "outputs": [
        {
          "internalType": "address",
          "name": "",
          "type": "address"
        }
      ],
      "stateMutability": "view",
      "type": "function"
    },
    {
      "inputs": [],
      "name": "rebalance",
      "outputs": [],
      "stateMutability": "nonpayable",
      "type": "function"
    },
    {
      "inputs": [],
      "name": "renounceOwnership",
      "outputs": [],
      "stateMutability": "nonpayable",
      "type": "function"
    },
    {
      "inputs": [
        {
          "internalType": "bool",
          "name": "_paused",
          "type": "bool"
        }
      ],
      "name": "setPaused",
      "outputs": [],
      "stateMutability": "nonpayable",
      "type": "function"
    },
    {
      "inputs": [
        {
          "internalType": "address",
          "name": "_stratA",
          "type": "address"
        },
        {
          "internalType": "address",
          "name": "_stratB",
          "type": "address"
        }
      ],
      "name": "setStrategies",
      "outputs": [],
      "stateMutability": "nonpayable",
      "type": "function"
    },
    {
      "inputs": [
        {
          "internalType": "uint256",
          "name": "_bps",
          "type": "uint256"
        }
      ],
      "name": "setTargetBuffer",
      "outputs": [],
      "stateMutability": "nonpayable",
      "type": "function"
    },
    {
      "inputs": [],
      "name": "sharePrice",
      "outputs": [
        {
          "internalType": "uint256",
          "name": "",
          "type": "uint256"
        }
      ],
      "stateMutability": "view",
      "type": "function"
    },
    {
      "inputs": [],
      "name": "shareToken",
      "outputs": [
        {
          "internalType": "contract YLTC",
          "name": "",
          "type": "address"
        }
      ],
      "stateMutability": "view",
      "type": "function"
    },
    {
      "inputs": [],
      "name": "strategyA",
      "outputs": [
        {
          "internalType": "contract IStrategy",
          "name": "",
          "type": "address"
        }
      ],
      "stateMutability": "view",
      "type": "function"
    },
    {
      "inputs": [],
      "name": "strategyB",
      "outputs": [
        {
          "internalType": "contract IStrategy",
          "name": "",
          "type": "address"
        }
      ],
      "stateMutability": "view",
      "type": "function"
    },
    {
      "inputs": [],
      "name": "targetBufferBps",
      "outputs": [
        {
          "internalType": "uint256",
          "name": "",
          "type": "uint256"
        }
      ],
      "stateMutability": "view",
      "type": "function"
    },
    {
      "inputs": [],
      "name": "totalAssets",
      "outputs": [
        {
          "internalType": "uint256",
          "name": "",
          "type": "uint256"
        }
      ],
      "stateMutability": "view",
      "type": "function"
    },
    {
      "inputs": [
        {
          "internalType": "address",
          "name": "newOwner",
          "type": "address"
        }
      ],
      "name": "transferOwnership",
      "outputs": [],
      "stateMutability": "nonpayable",
      "type": "function"
    },
    {
      "inputs": [],
      "name": "underlying",
      "outputs": [
        {
          "internalType": "contract IERC20",
          "name": "",
          "type": "address"
        }
      ],
      "stateMutability": "view",
      "type": "function"
    },
    {
      "inputs": [
        {
          "internalType": "uint256",
          "name": "shares",
          "type": "uint256"
        }
      ],
      "name": "withdraw",
      "outputs": [],
      "stateMutability": "nonpayable",
      "type": "function"
    }
  ],
  "bytecode": "0x60c034620001bc5762003035906001600160401b03601f38849003908101601f191683019082821184831017620001c15780849160409687948552833981010312620001bc576200005e60206200005684620001d7565b9301620001d7565b60017f9b779b17422d0df92223018b32b4d1fa46e071723d6817e2486d003becc55f00556001600160a01b0390811691908215620001a457600080546001600160a01b03198116851782558651919591949083167f8be0079c531659141344cd1fd0a4f28419497f9722a3daafe3b4186f6b6457e08780a36105dc60035516608052610d958281019182118383101762000190576020918391620022a0833930815203019082f090811562000185575060a052516120b39081620001ed823960805181818161025f0152818161098801528181610f6a015281816111590152818161173a01528181611c110152611d82015260a05181818161037501528181610fae0152818161108e01528181611900015281816119a901528181611eca0152611f970152f35b8251903d90823e3d90fd5b634e487b7160e01b84526041600452602484fd5b8451631e4fbdf760e01b815260006004820152602490fd5b600080fd5b634e487b7160e01b600052604160045260246000fd5b51906001600160a01b0382168203620001bc5756fe6040608081526004908136101561001557600080fd5b600091823560e01c90816301e1d1141461164557816307a2d13a1461162557816316c38b3c146115ef5781632e1a7d4d1461103d57816340f4520c146110205781635646b995146110035781635b7c2dad14610fdd5781636c9fa59e14610f995781636f307dc314610f55578163715018a614610efb578163715857b014610edc5781637966477614610dc25781637d7c2a1c1461093157816387269729146109145781638da5cb5b146108ec578163b187bd26146108c9578163c583214c1461086b578163c6e6f59214610838578163c82b929d146107d1578163d7ebce75146107a857838263dd1917191461067357508163e2bbb15814610215578163e504d975146101ec578163f2fde38b14610157575063fd967f471461013857600080fd5b34610153578160031936011261015357602090516127108152f35b5080fd5b9050346101e85760203660031901126101e857610172611662565b9061017b611678565b6001600160a01b039182169283156101d2575050600054826bffffffffffffffffffffffff60a01b821617600055167f8be0079c531659141344cd1fd0a4f28419497f9722a3daafe3b4186f6b6457e0600080a380f35b51631e4fbdf760e01b8152908101849052602490fd5b8280fd5b50503461015357816003193601126101535760015490516001600160a01b039091168152602090f35b9050346101e857816003193601126101e857803591610232611a74565b60ff82541661064057610243611ab6565b80516370a0823160e01b80825230828501526001600160a01b037f000000000000000000000000000000000000000000000000000000000000000081811695909360209392602491858184818c5afa908115610636578b91610609575b506001548490879084168015610600578a516278744560e21b815292839182905afa9081156105f6578c916105c9575b505b6002548590889085168e81156105b257508b516278744560e21b815292839182905afa9081156105a8578d91610577575b506103209261031a92610315916116f0565b6116f0565b8a6118e8565b9561032c871515611a33565b823587106105415787516323b872dd60e01b8c5233855230845260448b905290868c60648180855af19060018d5114821615610522575b508189528b6060521561050e575089907f000000000000000000000000000000000000000000000000000000000000000016803b156101535787516340c10f1960e01b815233858201908152602081018990529091839183919082908490829060400103925af18015610504579086949392916104e7575b50506127106103f46103eb611713565b600354906118b5565b049387519889938492835230908301525afa80156104dd57879061048b575b7f90890809c654f11d6e72a28fa60149770a0d11ec6c92319d6ceb2bb0a4ea1a159550818111610472575b505082519485528401523392a260017f9b779b17422d0df92223018b32b4d1fa46e071723d6817e2486d003becc55f005580f35b6104849161047f91611b75565b611b9a565b388061043e565b508185813d83116104d6575b6104a181836116ce565b810103126104d1577f90890809c654f11d6e72a28fa60149770a0d11ec6c92319d6ceb2bb0a4ea1a159451610413565b600080fd5b503d610497565b84513d89823e3d90fd5b6104f3919294506116a4565b61050057839189386103db565b8880fd5b88513d84823e3d90fd5b635274afe760e01b81528381018990529050fd5b6001821516610538573b15153d15161638610363565b823d8e823e3d90fd5b875162461bcd60e51b81528085018790526011818501527014db1a5c1c1859d948195e18d959591959607a1b6044820152606490fd5b9290508783813d83116105a1575b61058f81836116ce565b810103126104d1579151610315610303565b503d610585565b8a513d8f823e3d90fd5b610320959350610315925061031a949150926116f0565b90508681813d83116105ef575b6105e081836116ce565b810103126104d15751386102d0565b503d6105d6565b89513d8e823e3d90fd5b5050508a6102d2565b90508581813d831161062f575b61062081836116ce565b810103126104d15751386102a0565b503d610616565b88513d8d823e3d90fd5b906020606492519162461bcd60e51b8352820152600d60248201526c15985d5b1d0e881c185d5cd959609a1b6044820152fd5b9150913461015357816003193601126101535761068e611678565b6001546001600160a01b03908390821680610744575b505060025416806106e5575b505050600160ff198254161790557fcc6a1a065ab514031862e10458cbf117148ff1f8a168cfacab350e6644c174f08180a180f35b602090848351809581936336cb886f60e21b83525af190811561073b5750610710575b8083916106b0565b602090813d8111610734575b61072681836116ce565b810103126104d15738610708565b503d61071c565b513d85823e3d90fd5b602090868551809481936336cb886f60e21b83525af1801561079b5761076c575b83906106a4565b6020809294503d8111610794575b61078481836116ce565b810103126104d157839138610765565b503d61077a565b50505051903d90823e3d90fd5b50503461015357816003193601126101535760025490516001600160a01b039091168152602090f35b9050346101e85760203660031901126101e8578035916107ef611678565b612710831161080057505060035580f35b906020606492519162461bcd60e51b835282015260126024820152715661756c743a20696e76616c69642062707360701b6044820152fd5b828434610868576020366003190112610868575061086160209261085a611713565b90356118e8565b9051908152f35b80fd5b5050346101535736600319011261086857610884611662565b6024356001600160a01b0381811692918390036104d1576108a3611678565b6bffffffffffffffffffffffff60a01b9116816001541617600155600254161760025580f35b8284346108685780600319360112610868575060ff602092541690519015158152f35b505034610153578160031936011261015357905490516001600160a01b039091168152602090f35b505034610153578160031936011261015357602090610861611eb5565b919050346101e857826003193601126101e85761094c611678565b610954611ab6565b6127106109626103eb611713565b82516370a0823160e01b815230858201526001600160a01b0392602092049082816024817f000000000000000000000000000000000000000000000000000000000000000088165afa908115610db8578791610d8b575b5081811115610b1f576109cf9161047f91611b75565b6001548490829084168015610b155785516278744560e21b815292839182905afa908115610b0b578691610ade575b50915b600254168015610ab35781908451958680926278744560e21b82525afa8015610aa9578590610a5c575b7f0b33d39bbef101ecc4f5ef04e6d3a125c9fb745a418dac380e2a9460f8200dc89450905b8351928352820152a180f35b508084813d8311610aa2575b610a7281836116ce565b810103126104d1577f0b33d39bbef101ecc4f5ef04e6d3a125c9fb745a418dac380e2a9460f8200dc89351610a2b565b503d610a68565b83513d87823e3d90fd5b507f0b33d39bbef101ecc4f5ef04e6d3a125c9fb745a418dac380e2a9460f8200dc893508490610a50565b90508181813d8311610b04575b610af581836116ce565b810103126104d15751386109fe565b503d610aeb565b84513d88823e3d90fd5b5050508491610a01565b818110610b2e575b50506109cf565b610b3791611b75565b826001541680610cb1575b5080151580610ca4575b610bb1575b610b5c573880610b27565b8360849184519162461bcd60e51b8352820152602a60248201527f5661756c743a20696e73756666696369656e74206c697175696469747920746f60448201526920726562616c616e636560b01b6064820152fd5b82600254168685516278744560e21b815284818981865afa908115610c9a579085918391610c6a575b5080851115610c6257925b83610bf4575b50505050610b51565b6024885180948193632e1a7d4d60e01b8352878d8401525af18015610c5857908491610c2f575b5050610c2691611b75565b38868382610beb565b813d8311610c51575b610c4281836116ce565b810103126104d1578238610c1b565b503d610c38565b86513d8a823e3d90fd5b508392610be5565b92505081813d8311610c93575b610c8181836116ce565b810103126104d1578388915138610bda565b503d610c77565b87513d84823e3d90fd5b5082600254161515610b4c565b84516278744560e21b8152879084818981865afa908115610c9a579085918391610d5b575b5080851115610d5357925b83610cef575b505050610b42565b6024885180948193632e1a7d4d60e01b8352878d8401525af18015610c5857908491610d2a575b5050610d2191611b75565b38868382610ce7565b813d8311610d4c575b610d3d81836116ce565b810103126104d1578238610d16565b503d610d33565b508392610ce1565b92505081813d8311610d84575b610d7281836116ce565b810103126104d1578388915138610cd6565b503d610d68565b90508281813d8311610db1575b610da281836116ce565b810103126104d15751386109b9565b503d610d98565b85513d89823e3d90fd5b83915034610153578160031936011261015357600154829182916001600160a01b0390811680610e71575b506002541680610e07575b50505082519182526020820152f35b85516351618ed360e01b8152929350602091839182905afa918215610e665791610e35575b50838080610df8565b90506020813d8211610e5e575b81610e4f602093836116ce565b810103126104d1575183610e2c565b3d9150610e42565b8451903d90823e3d90fd5b86516351618ed360e01b81529195506020908290849082905afa908115610ed2578391610ea1575b509386610ded565b90506020813d8211610eca575b81610ebb602093836116ce565b810103126104d1575186610e99565b3d9150610eae565b86513d85823e3d90fd5b5050346101535781600319360112610153576020906003549051908152f35b8334610868578060031936011261086857610f14611678565b600080546001600160a01b0319811682556001600160a01b03167f8be0079c531659141344cd1fd0a4f28419497f9722a3daafe3b4186f6b6457e08280a380f35b505034610153578160031936011261015357517f00000000000000000000000000000000000000000000000000000000000000006001600160a01b03168152602090f35b505034610153578160031936011261015357517f00000000000000000000000000000000000000000000000000000000000000006001600160a01b03168152602090f35b50503461015357602036600319011261015357602090610861610ffe611662565b611f74565b50503461015357816003193601126101535760209051611b588152f35b50503461015357816003193601126101535760209051610bb88152f35b83833461015357602090816003193601126101e857833561105c611a74565b611064611ab6565b61106f811515611a33565b81516370a0823160e01b80825233878301526024966001600160a01b037f0000000000000000000000000000000000000000000000000000000000000000811696939092919084818b818b5afa908115611506579086918a916115be575b501061157c576110e46110de611713565b866118b5565b86516318160ddd60e01b8152858184818c5afa9081156114e9578a91611549575b5061110f916118c8565b96871561151057803b15610500578651632770a7eb60e21b8152338382019081526020810188905290918a9183919082908490829060400103925af18015611506576114f3575b507f000000000000000000000000000000000000000000000000000000000000000092808416928751908152308382015285818c81875afa9081156114e9578a916114bc575b50888110611263575b5050855163a9059cbb60e01b8952338252878a5292848960448180855af19060018a5114821615611244575b508387521561123257505083519485525083015233917ff279e6a1f5e320cca91135676d9cb6e44ca8a08c0b88342bcdb1144f6511b5689190a260017f9b779b17422d0df92223018b32b4d1fa46e071723d6817e2486d003becc55f005580f35b635274afe760e01b8352820152869150fd5b600182151661125a573b15153d1516168a6111d1565b843d8b823e3d90fd5b61126d9089611b75565b8160015416806113d3575b5090811515806113c6575b6112e0575b506112945789806111a5565b855162461bcd60e51b81529081018490526021818a01527f5661756c743a207374726174656779207769746864726177616c206661696c656044820152601960fa1b6064820152608490fd5b6002541687516278744560e21b815286818581855afa908115611384578b9188918391611396575b508085111561138e57925b83611321575b505050611288565b8d8b5180948193632e1a7d4d60e01b8352878a8401525af180156113845790879161135b575b505061135291611b75565b8a898682611319565b813d831161137d575b61136e81836116ce565b810103126104d157858c611347565b503d611364565b89513d8d823e3d90fd5b508392611313565b92505081813d83116113bf575b6113ad81836116ce565b810103126104d157868b91518e611308565b503d6113a3565b5080600254161515611283565b88516278744560e21b815287818681855afa908115611476578d928d928a928491611488575b508086111561148057935b84611413575b50505050611278565b8c5180948193632e1a7d4d60e01b8352878b8401525af180156114765790889161144d575b505061144391611b75565b8b8a87828e61140a565b813d831161146f575b61146081836116ce565b810103126104d157868d611438565b503d611456565b8a513d8e823e3d90fd5b508493611404565b945050915082813d83116114b5575b6114a181836116ce565b810103126104d157878c918e9351386113f9565b503d611497565b90508581813d83116114e2575b6114d381836116ce565b810103126104d157518b61119c565b503d6114c9565b88513d8c823e3d90fd5b6114ff909891986116a4565b9689611156565b87513d8b823e3d90fd5b865162461bcd60e51b81528083018690526014818c0152735661756c743a207a65726f20776974686472617760601b6044820152606490fd5b90508581813d8311611575575b61156081836116ce565b81010312611571575161110f611105565b8980fd5b503d611556565b855162461bcd60e51b8152908101849052601a818a01527f5661756c743a20696e73756666696369656e74207368617265730000000000006044820152606490fd5b809250868092503d83116115e8575b6115d781836116ce565b81010312610500578590518b6110cd565b503d6115cd565b8390346101535760203660031901126101535780358015158091036101e857611616611678565b60ff8019835416911617905580f35b828434610868576020366003190112610868575061086160209235611994565b505034610153578160031936011261015357602090610861611713565b600435906001600160a01b03821682036104d157565b6000546001600160a01b0316330361168c57565b60405163118cdaa760e01b8152336004820152602490fd5b67ffffffffffffffff81116116b857604052565b634e487b7160e01b600052604160045260246000fd5b90601f8019910116810190811067ffffffffffffffff8211176116b857604052565b919082018092116116fd57565b634e487b7160e01b600052601160045260246000fd5b604080516370a0823160e01b8152306004820152906001600160a01b0390602080846024817f000000000000000000000000000000000000000000000000000000000000000087165afa9384156118aa5760009461187b575b506001546000908290851680156118735784516278744560e21b81529250829060049082905afa9081156118685760009161183b575b50925b6002541660008115611827575090806004928451938480926278744560e21b82525afa92831561181d57506000926117ec575b50506117e9929161031591926116f0565b90565b81819392933d8311611816575b61180381836116ce565b81010312610868575051816103156117d8565b503d6117f9565b513d6000823e3d90fd5b905061031592506117e994939150926116f0565b908282813d8311611861575b61185181836116ce565b81010312610868575051386117a2565b503d611847565b83513d6000823e3d90fd5b5050926117a5565b90938482813d83116118a3575b61189281836116ce565b81010312610868575051923861176c565b503d611888565b82513d6000823e3d90fd5b818102929181159184041417156116fd57565b81156118d2570490565b634e487b7160e01b600052601260045260246000fd5b6040516318160ddd60e01b81529091906020816004817f00000000000000000000000000000000000000000000000000000000000000006001600160a01b03165afa90811561198857600091611957575b5080156119525761194d906117e9936118b5565b6118c8565b505090565b906020823d8211611980575b81611970602093836116ce565b8101031261086857505138611939565b3d9150611963565b6040513d6000823e3d90fd5b6040516318160ddd60e01b81526020816004817f00000000000000000000000000000000000000000000000000000000000000006001600160a01b03165afa90811561198857600091611a02575b5080156119fe5761194d6117e9926119f8611713565b906118b5565b5090565b906020823d8211611a2b575b81611a1b602093836116ce565b81010312610868575051386119e2565b3d9150611a0e565b15611a3a57565b60405162461bcd60e51b81526020600482015260126024820152715661756c743a20736861726573207a65726f60701b6044820152606490fd5b7f9b779b17422d0df92223018b32b4d1fa46e071723d6817e2486d003becc55f006002815414611aa45760029055565b604051633ee5aeb560e01b8152600490fd5b6001546001600160a01b0390811680611b25575b506002541680611ad75750565b602060009160046040518094819363059d9c7560e01b83525af1801561198857611afe5750565b602090813d8111611b1e575b611b1481836116ce565b810103126104d157565b503d611b0a565b602060009160046040518094819363059d9c7560e01b83525af180156119885715611aca57602090813d8111611b6e575b611b6081836116ce565b810103126104d15738611aca565b503d611b56565b919082039182116116fd57565b908160209103126104d1575180151581036104d15790565b611b588082029082820414821517156116fd57612710611bbc91048092611b75565b9080151580611ea1575b611d4d575b5080151580611d39575b611bdc5750565b6002546040805163095ea7b360e01b8082526001600160a01b03938416600483015260006024830181905294602094909290917f000000000000000000000000000000000000000000000000000000000000000083169186816044818b875af18015610c58579287928692611c8395611d1c575b50600254885191825286166001600160a01b031660048201526024810192909252909283919082908a9082906044820190565b03925af18015610b0b57859287959492602492611cef575b5060025416918451958693849263b6b55f2560e01b845260048401525af190811561073b5750611cca57505050565b813d8311611ce8575b611cdd81836116ce565b810103126108685750565b503d611cd3565b611d0e90853d8711611d15575b611d0681836116ce565b810190611b82565b5038611c9b565b503d611cfc565b611d3290853d8711611d1557611d0681836116ce565b5038611c50565b506002546001600160a01b03161515611bd5565b6001546040805163095ea7b360e01b8082526001600160a01b03938416600483015260006024830181905294602094909290917f000000000000000000000000000000000000000000000000000000000000000083169186816044818b875af18015610c58579287928692611df495611e84575b50600154885191825286166001600160a01b031660048201526024810192909252909283919082908a9082906044820190565b03925af18015610b0b57859287959492602492611e67575b5060015416918451958693849263b6b55f2560e01b845260048401525af190811561073b5750611e3e575b5050611bcb565b813d8311611e60575b611e5181836116ce565b81010312610868578080611e37565b503d611e47565b611e7d90853d8711611d1557611d0681836116ce565b5038611e0c565b611e9a90853d8711611d1557611d0681836116ce565b5038611dc1565b506001546001600160a01b03161515611bc6565b6040516318160ddd60e01b81526020816004817f00000000000000000000000000000000000000000000000000000000000000006001600160a01b03165afa90811561198857600091611f43575b508015611f3657611f12611713565b90670de0b6b3a7640000918281029281840414901517156116fd576117e9916118c8565b50670de0b6b3a764000090565b906020823d8211611f6c575b81611f5c602093836116ce565b8101031261086857505138611f03565b3d9150611f4f565b6040516370a0823160e01b81526001600160a01b039182166004820152602092917f000000000000000000000000000000000000000000000000000000000000000016908381602481855afa90811561198857600091612050575b5080156120485783611fe56004926119f8611713565b92604051928380926318160ddd60e01b82525afa93841561198857600094612015575b5050916117e991926118c8565b81813d8311612041575b61202981836116ce565b8101031261203d575192506117e938612008565b8380fd5b503d61201f565b506000925050565b908482813d8311612076575b61206681836116ce565b8101031261086857505138611fcf565b503d61205c56fea2646970667358221220f949046ac3d69dac7d53e666d897d99b4f42014a3e6463380f5d0bf598e20c1f64736f6c634300081400336080346200039b576001600160401b03601f601f1962000d95388190038381018316860185811187821017620003a0578692829160405283396020958691810103126200039b57516001600160a01b039485821694918590036200039b5762000067620003b6565b60098152685969656c64204c544360b81b8282015262000086620003b6565b9460049586815263794c544360e01b84820152825193858511620002a1576003948554946001958681811c9116801562000390575b848210146200037b5790818684931162000325575b508390868311600114620002c257600092620002b6575b505060001982881b1c191690851b1785555b8151958611620002a15787548481811c9116801562000296575b82821014620002815783811162000236575b5080928611600114620001ca575084955090849291600095620001be575b50501b92600019911b1c19161781555b8115620001a65750600580546001600160a01b03198116831790915560405192167f8be0079c531659141344cd1fd0a4f28419497f9722a3daafe3b4186f6b6457e0600080a36109be9081620003d78239f35b602490600060405191631e4fbdf760e01b8352820152fd5b01519350388062000143565b939295859081168860005285600020956000905b898383106200021b575050501062000200575b50505050811b01815562000153565b01519060f884600019921b161c1916905538808080620001f1565b858701518955909701969485019488935090810190620001de565b88600052816000208480890160051c820192848a1062000277575b0160051c019085905b8281106200026a57505062000125565b600081550185906200025a565b9250819262000251565b602289634e487b7160e01b6000525260246000fd5b90607f169062000113565b604188634e487b7160e01b6000525260246000fd5b015190503880620000e7565b908a8894169189600052856000209260005b878282106200030e5750508411620002f5575b505050811b018555620000f9565b0151600019838a1b60f8161c19169055388080620002e7565b8385015186558b97909501949384019301620002d4565b90915087600052836000208680850160051c82019286861062000371575b918991869594930160051c01915b82811062000361575050620000d0565b6000815585945089910162000351565b9250819262000343565b60228b634e487b7160e01b6000525260246000fd5b90607f1690620000bb565b600080fd5b634e487b7160e01b600052604160045260246000fd5b60408051919082016001600160401b03811183821017620003a05760405256fe6080604081815260048036101561001557600080fd5b600092833560e01c90816306fdde031461070f57508063095ea7b31461066657806318160ddd1461064757806323b872dd14610554578063313ce5671461053857806340c10f191461048957806370a0823114610452578063715018a6146103f25780638da5cb5b146103c957806395d89b41146102a95780639dc29fac146101cd578063a9059cbb1461019c578063dd62ed3e1461014f5763f2fde38b146100bd57600080fd5b3461014b57602036600319011261014b576100d661084d565b906100df61087e565b6001600160a01b03918216928315610135575050600554826bffffffffffffffffffffffff60a01b821617600555167f8be0079c531659141344cd1fd0a4f28419497f9722a3daafe3b4186f6b6457e08380a380f35b51631e4fbdf760e01b8152908101849052602490fd5b8280fd5b5050346101985780600319360112610198578060209261016d61084d565b610175610868565b6001600160a01b0391821683526001865283832091168252845220549051908152f35b5080fd5b5050346101985780600319360112610198576020906101c66101bc61084d565b60243590336108aa565b5160018152f35b508290346101985782600319360112610198576101e861084d565b90602435906101f561087e565b6001600160a01b0383169283156102925783855284602052858520549183831061025e5750508184957fddf252ad1be2c89b69c2b068fc378daa952ba7f163c4a11628f55a4df523b3ef936020938688528785520381872055816002540360025551908152a380f35b865163391434e360e21b81526001600160a01b03909216908201908152602081018390526040810184905281906060010390fd5b8551634b637e8f60e11b8152808301869052602490fd5b50919034610198578160031936011261019857805190828454600181811c908083169283156103bf575b60209384841081146103ac57838852908115610390575060011461033b575b505050829003601f01601f191682019267ffffffffffffffff8411838510176103285750829182610324925282610804565b0390f35b634e487b7160e01b815260418552602490fd5b8787529192508591837f8a35acfbc15ff81a39ae7d344fd709f28e8600b4aa8c65c6b64bfe7fe36bd19b5b83851061037c57505050508301013880806102f2565b805488860183015293019284908201610366565b60ff1916878501525050151560051b84010190503880806102f2565b634e487b7160e01b895260228a52602489fd5b91607f16916102d3565b50503461019857816003193601126101985760055490516001600160a01b039091168152602090f35b833461044f578060031936011261044f5761040b61087e565b600580546001600160a01b0319811690915581906001600160a01b03167f8be0079c531659141344cd1fd0a4f28419497f9722a3daafe3b4186f6b6457e08280a380f35b80fd5b5050346101985760203660031901126101985760209181906001600160a01b0361047a61084d565b16815280845220549051908152f35b50903461014b578060031936011261014b576104a361084d565b90602435916104b061087e565b6001600160a01b03169283156105235760025490838201809211610510575084927fddf252ad1be2c89b69c2b068fc378daa952ba7f163c4a11628f55a4df523b3ef9260209260025585855284835280852082815401905551908152a380f35b634e487b7160e01b865260119052602485fd5b84602492519163ec442f0560e01b8352820152fd5b5050346101985781600319360112610198576020905160128152f35b50823461044f57606036600319011261044f5761056f61084d565b610577610868565b916044359360018060a01b0383168083526001602052868320338452602052868320549160001983106105b3575b6020886101c68989896108aa565b86831061061b5781156106045733156105ed575082526001602090815286832033845281529186902090859003905582906101c6876105a5565b8751634a1406b160e11b8152908101849052602490fd5b875163e602df0560e01b8152908101849052602490fd5b8751637dc7a0d960e11b8152339181019182526020820193909352604081018790528291506060010390fd5b5050346101985781600319360112610198576020906002549051908152f35b503461014b578160031936011261014b5761067f61084d565b6024359033156106f8576001600160a01b03169182156106e157508083602095338152600187528181208582528752205582519081527f8c5be1e5ebec7d5bd14f71427d1e84f3dd0314c0f7b2291e5b200ac8c7c3b925843392a35160018152f35b8351634a1406b160e11b8152908101859052602490fd5b835163e602df0560e01b8152808401869052602490fd5b849150833461014b578260031936011261014b5782600354600181811c908083169283156107fa575b60209384841081146103ac578388529081156107de575060011461078857505050829003601f01601f191682019267ffffffffffffffff8411838510176103285750829182610324925282610804565b600387529192508591837fc2575a0e9e593c00f959f8c92f12db2869c3395a3b0502d05e2516446f71f85b5b8385106107ca57505050508301018580806102f2565b8054888601830152930192849082016107b4565b60ff1916878501525050151560051b84010190508580806102f2565b91607f1691610738565b6020808252825181830181905290939260005b82811061083957505060409293506000838284010152601f8019910116010190565b818101860151848201604001528501610817565b600435906001600160a01b038216820361086357565b600080fd5b602435906001600160a01b038216820361086357565b6005546001600160a01b0316330361089257565b60405163118cdaa760e01b8152336004820152602490fd5b916001600160a01b0380841692831561096f57169283156109565760009083825281602052604082205490838210610924575091604082827fddf252ad1be2c89b69c2b068fc378daa952ba7f163c4a11628f55a4df523b3ef958760209652828652038282205586815220818154019055604051908152a3565b60405163391434e360e21b81526001600160a01b03919091166004820152602481019190915260448101839052606490fd5b60405163ec442f0560e01b815260006004820152602490fd5b604051634b637e8f60e11b815260006004820152602490fdfea26469706673582212202c32b4275f5a34190ee31b1f0cebda3879a9850d554eb97448dd98a7e47a47f964736f6c63430008140033",
  "linkReferences": {},
  "deployedLinkReferences": {}
}